:020000040000fa
:080000000002040000000000f2
:020000040000fa
:10040000cf76260000df27000001880000000000f2
:100410000a00070011000700000020000000e000b3
:10042000020032000000020000000000ca9a020030
:10043000000000000040da000000fe004440a90077
:10044000e07320000000e000030032000000200004
:10045000a00188004440a8000000060000362800e3
:10046000010020001500370062004000e0804800d5
:10047000910188009001ba0062004000e0804800cd
:10048000910188009002ba0062004000e0804800bc
:100490000002eb006028e10004003a000059eb0084
:1004a0008301e900fdff3e00040037006128e10000
:1004b000010032000082eb00050007009101880076
:1004c0001001ba000200e000e7ff3a00000005005a
:1004d000910188008002780062004000e0804800be
:1004e0003559ba008301e900080032002559ba00e5
:1004f0008301e900050032000400e000f4ff32004f
:1005000015d9ba008301e900f1ff3a0000000600a6
:100510005863040000000000a47104000000000003
:10052000508a040000000000408b0400000000001e
:10053000de560400000000004e82040000000000af
:1005400050540400000000000e9e04000000000053
:10055000c85e040000000000020304000000000068
:100560004e030400000000004a05040000000000e3
:10057000461b040000000000000004000000000012
:100580008001eb000200370061f079008301e80090
:10059000828f5100fcff3a00000006008001eb0052
:1005a00002003700817178008301e800828f5100da
:1005b000fcff3a000000060000037800800178008c
:1005c0000002eb00010037008059780084025100de
:1005d000820f52000900320064c078000402e80073
:1005e0000004e000f8ff3a00830078008058eb0038
:1005f00005804100808f5000fcff3a000600780023
:1006000000000600881f780002047800dcff070065
:10061000080040004f047800000006000000fa00c7
:10062000881f7800000478003fb99700ea815700de
:1006300080007800203020008d01070080007800c5
:100640000000e000020035000040eb0000f47800fc
:10065000010078004f0478000080fa0000000600d6
:100660008001780000017800010037000201e800f5
:100670001204e000fdff3a00020037000201e8002a
:100680008100e80011407800004978000004e00093
:10069000faff3a000300780000000600889fbe00c1
:1006a0008004780001007800020478008901780055
:1006b0001100200019010700880f500001003200ce
:1006c0008004eb00090078004f04be000000060023
:1006d0000000fa004fb99700e881570021c82300b5
:1006e000e0342000620107000080fa0000000600ec
:1006f000ec874700889fbe008a9fbe008c9fbe008b
:100700008e1f7800f0b79f0081bf9f0082047800a1
:1007100000047800010037000804e800184778005a
:100720000e00fb000b0207000000e000faff3a0099
:10073000d0c2b300804f57000500320000c0e9006e
:10074000804f570002003200004778000100370058
:100750000804e8000900e00045003500e18f54007e
:100760004300320040022000808f540040003c00d3
:100770000900e0000e003400f08f54001a003a0027
:1007800000c3b300984f100016003a009840900044
:1007900080c7b30080cf50000300320080c5b30093
:1007a00080cf50000f003a000884e8000e003700a8
:1007b000a900200000c3b300984f10000a003a00bf
:1007c0009840900080c7b30080cf500004003200f2
:1007d0008900200080c5b30080cf500002003a009d
:1007e0000884e800090120000805780001003700ae
:1007f0000a05e80000c3b3009a4f1000fcff320066
:100800008a0578006066b8000e00370050fa2700ad
:1008100000425200c4ef9f006149b9000c00be00c5
:10082000511407004fea97000401fb00cf91de004e
:100830008b05e800ccb79f00ddb79f0000064100a4
:10084000818649001b00fb00ca0107008000780078
:100850000901780050fa2700cd0107000002780056
:100860000000e000e9ff3a008b0f540006003a0058
:100870000fb897000000e00029003200ffb0970099
:1008800001087800260037008a80550000f827000c
:1008900060c07c000000fb000080500016003300a8
:1008a0004240a9000f003c004fe997000200fb0006
:1008b000cf80de000000560081805e00800f560071
:1008c000818f5e00070039006149b9007f1707007a
:1008d0004fb19700dfb19700820f5000838f58000f
:1008e0000500320020022000004088000086eb0056
:1008f0008086eb0005003700d0c2b300804f570060
:1009000002003a0060061600e0861e008fb99700cc
:100910000300e000030032008b097800010037007b
:100920006066b8000c00be004f0778004f06be009e
:100930004f05be004f04be00cf00b100000006000e
:100940000e00fa00889fbe008a9fbe008c1f7800b0
:10095000a0bf9f00010478000205be00800478005b
:100960006c80570094010700680660000030a10009
:10097000e10f500014003a00afb897000002780071
:10098000f481570008017800090078000f02070081
:100990000000e00002003a006000b80003003700e9
:1009a0000fb897009fb8970029140700c0b79f00a1
:1009b000d1b79f006fb19700ffb197000a014100c6
:1009c0008b81490016003700e20f500018003a00f2
:1009d000afb8970014002000f48157000801780098
:1009e00009007800db0207000000e00002003a0086
:1009f0006000b800030037000fb897009fb8970059
:100a000013140700c0b79f00d1b79f006fb19700c4
:100a1000ffb1970078805700c30307000a01be00aa
:100a20004fb09700dfb097002f0407000d0037008c
:100a3000e30f500003003a000000200001f82700f7
:100a400004003700e40f500005003a00f0ff2f00cb
:100a5000f1ff2700c0b79f00d1b79f000300370008
:100a60006000b800c0b79f00d1b79f004fb097009b
:100a7000dfb097000c00e0000100320001f0a2009e
:100a80004f0678004f05be004f04be000080fa00fc
:100a900000000600900178000200e00002003a0029
:100aa0000308e900050037008080eb001304e00034
:100ab000020032000308e8009300fb000100780008
:100ac000000006000200fa00f0bf9f003fb9970047
:100ad000ea8157008f80e900a054200079040700c4
:100ae0000080fa000000060021c823003d05070031
:100af0000000e0000600350021c82300a00020000f
:100b00007e0507008000eb000000e00001003d00d2
:100b10008080eb000100780000000600889fbe0086
:100b20008a9fbe008c9fbe008e1f780081067800d1
:100b300083047800000678000288b9000007780076
:100b40000000e00002003a00000178004200370097
:100b50000d00e0004000320000057800c900900060
:100b600069009000808f500004003900090078006f
:100b7000600607000000e00029003500004020006a
:100b80001900600003003a000a047800800578002c
:100b90000b0037000a017800a10020000c0078004b
:100ba000fb000700800578000000e00002003a002a
:100bb0000a047800020037000c0050000004e8002e
:100bc000c90190006900900003005000880f500098
:100bd00002003100000478008005eb000801780075
:100be0008c0078000300780065fe070008064600c8
:100bf000080555004900900000004400c00498001a
:100c00000b00e00004003200090078007c060700b9
:100c10000000e00002003a000a00e000cfff3a00c6
:100c200000802000190060000200320009007800f6
:100c30007306070000c020001900600002003200a7
:100c400049009000e00498000a00570011000900d4
:100c50000d80d80000017800020078004f0778006e
:100c60004f06be004f05be004f04be000000060048
:100c70006200fa00889fbe008a9fbe000004be008a
:100c8000020578008300780060f92f000f00400013
:100c90004005070088979f0099979f000000eb0090
:100ca000a09f9f009a4578000b80fb000000ea009f
:100cb000cf04de0050c2b30080cf550002003200e6
:100cc00009047800010037000904e9000800e00089
:100cd0000b0034001f909700080178008a0078000c
:100ce0008f9197000300010090979f000000e000a3
:100cf000930032002f98970000004400a09f9f00af
:100d00000905450050c2b30080cf550004003200f1
:100d10000b04e000e3ff3a002f98970089003700aa
:100d20000000eb00809f9f00f0979f00e0979f00de
:100d3000d0979f00c0979f00b0979f00c09f9f00d3
:100d40000900370020f02300008050000000400020
:100d500061ef2300e10078004f98970001007000d8
:100d6000c09f9f000a05e8001a4478008800fb0035
:100d700020f023000c050700800078000000e00050
:100d8000f0ff3a00a0c2b300804f54000e003a00ba
:100d9000bf8897000180e900b08f9f0010007800a5
:100da000b09f9f000000e00005003d000000ea0049
:100db000b09f9f004f9897000020a000c09f9f0009
:100dc0000a05e80010003700b19f9f0009003700b6
:100dd000bf989700f0ff2700808f5000040032007a
:100de0006a08b9000000410003004000b09f9f0066
:100df0000a05e8001a01fb0003fd2f000300410073
:100e0000e90f5000f2ff3600e0c2b3009a4f100025
:100e1000040032000080eb00909f9f008a0478005d
:100e20001c0037008a04e800a0c2b300994f1000ec
:100e300007003a00bf8897000180e900b08f9f004b
:100e400010007800909f9f008a84e800110037000e
:100e50000000eb00909f9f00090037009f989700cb
:100e6000f0ff2700808f5000040032006a08b900ac
:100e70000000410003004000909f9f008904e800ab
:100e80001901fb0003fd2f0003004100e90f500092
:100e9000f2ff3600194478008800fb0040f423007c
:100ea000c10407000000e00002003a00004478009e
:100eb000010037008904e800a87f9f0080c6b300c6
:100ec000804f540004003a00994f14000a003a0081
:100ed0006640500006003700c0c6b300804f540083
:100ee00005003a00994f140003003a0065404000a5
:100ef000a07f9f008904e8000905e800c8fb2f00d7
:100f00000f04440060f92f000f0040008085e800c6
:100f10008801780019417800800078000b00780083
:100f2000f40507000000e00005003a0088007800a2
:100f30000b007800a50407000000e00059ff3d0009
:100f40000080eb004f05be004f04be000080fa0099
:100f5000000006006900e100040035006d00e100ba
:100f6000030034000002b10001003200000005005f
:100f700010000500800078001104b1000300350066
:100f80009101b10001003c000050a00000000600eb
:100f90008001eb00040037008301e80090cf1000cf
:100fa000040032000000e800828f5100faff3a008e
:100fb0000000eb0000000600889fbe008a9fbe0074
:100fc0008c1f7800000678008105780010057800f5
:100fd0000a047800010037000804e800984478000b
:100fe0000900fb00dbff0700800078000000e00044
:100ff000f9ff3a00d0c2b30080cf540003003a009a
:101000000804e8008200200005003700b0c2b300e9
:1010100080cf540001003a000804e8000101780084
:1010200098407800e5c6b30085cf50000300320039
:10103000e3c4b30083cf500022003a0098409000f0
:1010400010c6b30080cf50000300320010c4b300bc
:1010500080cf500050003a00a840900085cf50004b
:1010600003003200e0c4b30080cf50004a003a00d1
:101070006305440080c2b3009a4f100002003200a2
:101080000a047800090037000a047800d844780080
:101090000900fb00140707000000e000fbff3a0016
:1010a000f0c5b30080cf5400f8ff320042002000aa
:1010b00090c2b300984f100038003a000805e800cd
:1010c0003600370094c6b30084cf500003003200ce
:1010d00090c4b30080cf500034003a001840900014
:1010e000854f500002003200834f50002a003a0022
:1010f000a840900060c6b30080cf500003003200cb
:1011000060c4b30080cf500023003a006305440060
:101110003200b3009a40780084cf500003003200c0
:1011200090c4b30080cf50001c003a0048409000ab
:10113000854f500002003200834f500017003a00e4
:10114000d840900084cf50000300320090c4b30018
:1011500080cf500011003a00e840900040c7b30033
:1011600080cf50000300320040c5b30080cf500054
:101170000a003a00f840900090c7b30080cf5000ba
:101180000300320090c5b30080cf500003003a0046
:1011900068054400010037000001eb000b00e0008f
:1011a000040032008a0d7800020037000200a0001f
:1011b000080578000a0e7800020078004f067800d3
:1011c0004f05be004f04be0000000600e487470044
:1011d000889fbe008a9fbe008c9fbe008e1f780035
:1011e00080bf9f0081047800020778000306780022
:1011f0006922b900040578008006eb000200370080
:101200008904e8001d00200000c3b300994f1000be
:10121000fbff3200000eeb003c1678000c04780057
:101220008005eb00280037008a8f550016003d002e
:1012300092002000110009008205d800010078000a
:101240000000e00003003a0064044400000ceb00de
:1012500038147800a2002000030020001800be000f
:10126000c1110700194178000201fb00cf91de0097
:1012700000004100818049000003b1000180b100fd
:10128000008cbe000d00370010002000010020007f
:101290001c0e40005c9648008a8f550008003a00fa
:1012a00040c3b300994f1000050034001000200027
:1012b00001002000180c4000589448008b05e800fd
:1012c0008904e8001d002000194178000200fb009d
:1012d0000003b100e90f5000d3ff36008b0f55001b
:1012e00001003d008a057800e0c2b300804f510044
:1012f00001003a008904e8000b00e000070032001a
:10130000290037000080eb008080eb001c0e4000bd
:101310005c9648008904e8001d00200000c3b3006b
:10132000994f1000f7ff32008005eb001e003700d8
:101330008a8f55001a003d0092002000110009001c
:101340008205d800010078000000e00003003a00a8
:1013500064044400000ceb0038147800a200200064
:10136000030020001800be007f110700194178001b
:101370000201fb00cf91de000000410081804900a6
:101380000003b1000180b100008cbe008b05e800b5
:101390000080eb008080eb001c0e40005c96480053
:1013a0008904e8001d0020001900fb000003b100c3
:1013b000e90f5000deff3600920020001100090006
:1013c0008205d800010078000000e000170032001c
:1013d000690510001802be00e00f5200e08f5a00ad
:1013e000070032004250dd00e1e723000100400029
:1013f0001001be000400be005b110700008cbe009f
:101400008a8545006150b9001c1e10001c9618000a
:1014100006003700e98555009000200001002000fb
:101420001c0e40005c96480064045400e88f550090
:10143000040034001800be00e00f5000e08f580098
:10144000f4ff32000d00e0003300320099407800d4
:1014500050c6b30080cf50000300320050c4b30028
:1014600080cf50002c003a008900e8001144780039
:10147000b2c2b300824f540005003200d0c2b300a4
:10148000804f54000200320002447800010037000f
:101490008980e800810478008006eb006022b800b3
:1014a00011003700f00f2e00515f2000800f520016
:1014b000818f5a000a003c00a20020000300200097
:1014c0000400be00281107000a01fb00cf91de00d6
:1014d00000024100818249000403b1000580b1008f
:1014e0008904e8001d002000194578000a00fb006f
:1014f0000003b100e90f5000eaff3600d0c2b3008c
:10150000804f540002003a0060021200e0821a008c
:101510001c0e42005c964a000e00e00004003200ff
:101520000d00e00001003a008fbc9700090f780021
:1015300092002000110009008205d8004f077800b2
:101540004f06be004f05be004f04be004f00b10065
:1015500000000600e8874700889fbe008a9fbe0003
:101560008c9fbe008e1f780080bf9f008104780092
:1015700002077800030578006722b90004067800a6
:101580008006eb00020037008904e8001d002000ff
:1015900000c3b300994f1000fbff3200000deb00b9
:1015a0003a1578000a0478008005eb002c0037001b
:1015b0008c8f550019003d0072002000811f7800bb
:1015c000110009008205d80001007800cf007800e2
:1015d0000000e00003003a0064044400000ceb004b
:1015e000381478001801be004418dd00cc11de006c
:1015f000830170004411dd00a0df23000080500053
:1016000041de2300614078000000fb00cf80de0057
:10161000001c4100019449000e0037001200200018
:10162000030020001a0d41005a9549008c8f550087
:1016300009003a00a0df23000080500041de2300b3
:1016400061407800e74f500003003400180c41005f
:10165000589449008b05e8008904e8001d0020002b
:101660009900fb0062012000a0df230048fe070074
:10167000800078000000e000cdff3a008b0f56009c
:1016800001003d008c057800e0c2b300994f1000c6
:1016900001003a008904e8000b00e0000700320076
:1016a0002c0037000080eb008080eb001a0d40001a
:1016b0005a9548008904e8001d00200000c3b300cb
:1016c000994f1000f7ff32008005eb002100370032
:1016d0008c8f55001d003d0072002000811f780096
:1016e000110009008205d80001007800cf007800c1
:1016f0000000e00003003a0064044400000ceb002a
:10170000381478001801be004418dd00cc11de004a
:10171000830170004411dd00a0df23000080500031
:1017200041de2300614078000000fb00cf80de0036
:10173000001c4100019449008b05e8000081eb008a
:101740008081eb001a0d41005a9549008904e80098
:101750001d0020009900fb0062012000a0df230093
:101760000bfe0700800078000000e000d8ff3a0080
:1017700072002000110009008205d80001007800e5
:101780000000e00014003200670010004202dd009b
:101790001801be000402e900030033000201410009
:1017a00083814900fbff3700028cbe008085450025
:1017b000cf80de001a1d10001a95180006003700b1
:1017c000e785550070002000010020001a0d400040
:1017d0005a95480064045400e68f55000400340014
:1017e0001800be00e00f5000e08f5800f4ff3200f8
:1017f0001a00be004209dd00ce01de008301710047
:101800004201dd00e2b79f00f3b79f00028dbe00ea
:101810000d00e000350032009940780000c7b300a9
:1018200080cf50000300320000c5b30080cf5000cd
:101830002e003a008900e80011447800b2c2b300db
:10184000824f540005003200d0c2b300804f5400d4
:101850000200320002447800010037008980e8006d
:10186000810478008006eb006022b8001100370088
:10187000f00f2e00515f2000800f5200818f5a0020
:101880000a003c00a2002000030020000400be006b
:10189000351007000c01fb00cf91de000002410073
:1018a000818249000403b1000580b1008904e80089
:1018b0001d002000194678000c00fb000003b10059
:1018c000e90f5000eaff3600d0c2b300804f540049
:1018d00002003a0060021200e0821a006fb0970026
:1018e000ffb09700041d4000059548000e00e00081
:1018f000040032000d00e00001003a008fbc9700a8
:10190000090f780072002000110009008205d8003c
:101910004f0778004f06be004f05be004f04be00c3
:101920008f00b10000000600889fbe008a1f78006b
:101930008c9fbe00000578000206be000084e8000f
:1019400018017800c714de00f90fb2008900780092
:10195000f00f2000808f540006003a00f207b2001a
:1019600048003a00100020001a00e0004600320053
:10197000440037000900e00007003a000a00780040
:10198000e7040700800078000000e0000200340057
:10199000090078003c0037006108b9000c014000e4
:1019a0008d814800e00f2000800f5100e08f59002a
:1019b000090034000000200001f82f001800e000aa
:1019c000020035000000200001f82700008dbe0055
:1019d000100020002c003700e00f5100e08f59006c
:1019e00005003400f007280018006000c710dd0073
:1019f000010c7000210037009800780000002800da
:101a00008082600001027800f407b2000470a00038
:101a1000040c780061005100e0805900f70f40008d
:101a2000e08f480004003d00050c7800000deb003d
:101a30000000eb0014003700f00f400003003c00f2
:101a4000040d7800000ceb00700040008001ea00fb
:101a5000090032009a0078008308de0070811100ce
:101a6000180078000200dd00008d7000180078007a
:101a70000300de00000c7800188c72000080eb0080
:101a800001003700200020004f06be004f057800ff
:101a90004f04be00000006000200fa00889fbe004e
:101aa0008a1f7800000578000204be0080007800dc
:101ab00068805700c50407001a01be000800be0078
:101ac000af0f0700008dbe004fb99700cf91de0029
:101ad0000a00780094ff07004f0578004f04be000d
:101ae0000080fa00000006000400fa00889fbe0093
:101af0008a9fbe008c1f780090bf9f00a1bf9f00ef
:101b00000205be00e00f5100e08f59006600320070
:101b10006011b800261107000000e00062003200ea
:101b2000e00f5500e08f5d002e003d0060051500c0
:101b3000e0851d000400200005f82300e8ed2300e7
:101b4000090037000a08a300040032001801be0093
:101b50000400be008a0f07000002be008b05d10002
:101b60000a85d30064044400e00f5500e08f5d0057
:101b70000300320020ef2300800f5400f1ff3a00f1
:101b80000401be000000200001f823003910070006
:101b90000001be006e805700bfff070000067800fe
:101ba0000000e00039003d00e00f5500e08f5d00cf
:101bb0003d0032000a04be00e2112b00f3a4200015
:101bc0006e805700b4ff0700000678000000e000b8
:101bd0002e003d0061045400e0845c002e003200c1
:101be000f5ff3700e00f5500e08f5d00270034005f
:101bf0000400200005f82300e8ed23000a08a300f4
:101c0000040032001801be000400be005c0f070093
:101c10000002be008b85d1000a85d300e00f55007d
:101c2000e08f5d00040034006404440020ef2300d2
:101c3000800f5400f1ff3a000401be006e8057008f
:101c400095ff0700000678000000e0000f003d004f
:101c5000e00f5500e08f5d00130034000a04be0061
:101c6000e25a2c00d34927006e8057008aff0700f4
:101c7000000678000000e00004003d00610454000c
:101c8000e0845c0004003200f5ff37000001200012
:101c90000c00e00003003200e10f560002003a00a1
:101ca000800020006f0407001fb89700afb89700ae
:101cb0004f0678004f05be004f04be000080fa00ba
:101cc000000006001200fa00889fbe008a9fbe0036
:101cd0008c1f780002047800a0b79f00b1b79f0066
:101ce00083007800788057002a0107000000eb008d
:101cf000e0b79f00d8b79f0000067800dfb49700d8
:101d0000194578000a80fb000000ea00cf05de00dc
:101d10000a00fb008ffc07000000e0001a00320000
:101d20006fb097000000e800e0b79f003fb0970059
:101d3000120020008000eb00afb19700030001000b
:101d40000004780083fc0700000178000000e00038
:101d5000f3ff3a006fb09700e10f44000700320034
:101d60000000e900e0b79f003fb0970088007800ce
:101d7000afb1970003000100230037000000e90025
:101d8000e0b79f002000370050c2b300804f5500dd
:101d9000020032000b047800190037000b04e90040
:101da000170037006fb097000000e800e0b79f0011
:101db0003fb09700120020008000eb00afb1970009
:101dc00003000100800078001900fb00808f5000a4
:101dd0000a003200e18f40007c0032006fb09700b3
:101de0000000e900e0b79f003fb097000001eb0062
:101df000afb1970003000100740037008904e800c8
:101e00000804e900e7ff3b005fb0970080804500d1
:101e1000d1b79f0050c2b300804f5500030032007d
:101e20000a04e000b5ff3a0068003700a2c2b30020
:101e30000040eb00914f110003003a000100e80060
:101e4000d0b79f0002407800a0f79f000000eb0091
:101e500080bf9f000b0037008fb89700f0ff27006e
:101e6000808f5000040032006a08b9000000410071
:101e70000300400080bf9f005fb097000000e800b3
:101e8000d0b79f00dfb49700194478000801fb0029
:101e900003fd2f0003004100e90f5000eeff360064
:101ea0008200780040f12300bf0007000000e0003e
:101eb00002003a0000447800020037000900e80000
:101ec000d0b79f00b8f79f0080c6b300804f540082
:101ed00005003a00dfb09700914f14000c003a0063
:101ee0006640500007003700c0c6b300804f540062
:101ef00007003a00dfb09700914f140004003a0049
:101f000065404000b0f79f000100e800d0b79f0097
:101f10005fb097009000fb00b0f12300a200070023
:101f20000000e00019003a006fb097000000e800e0
:101f3000e0b79f003fb09700120020008000eb0048
:101f4000afb19700030001000004780001fc070016
:101f5000000178000000e000f3ff3a006fb0970046
:101f6000e10f4400070032000000e900e0b79f00e5
:101f70003fb0970088007800afb1970003000100e0
:101f8000020037000000e900e0b79f007c805700a6
:101f9000bf0307000000e00003003c000c00e0006d
:101fa00009003200090037004ff097000004e000fc
:101fb000010032000c06e8005fb097000000e80066
:101fc000d0b79f004dff3700000678000c00780066
:101fd0004f0678004f05be004f04be000080fa0097
:101fe00000000600889fbe008a9fbe0000057800a2
:101ff000810478002d003700c9009000690090002e
:10200000808f500004003900090078003901070072
:102010000000e0003500350000402000190060009d
:1020200009003200a10020000a0078002f040700f8
:10203000800578000000e000040032000a00500033
:102040000004e80004003700800578000a007800ea
:102050003104070000047800c90190006900900075
:1020600003005000880f5000020031000004780087
:102070008005eb00080178008a00780003007800f2
:102080003ff90700080545004900900000004400a2
:10209000c00498000b00e000040032000900780042
:1020a000570107000000e00010003a001a04e000a9
:1020b000d1ff3a00008020001900600004003200c7
:1020c000090078004e0107000000e00007003a0018
:1020d00000c0200019006000050032004900900097
:1020e000e00498000000eb00010037000080eb00e6
:1020f0004f05be004f04be0000000600889fbe00d2
:102100008a1f780080047800010478000045780078
:10211000c100900068009000808f500004003900da
:1021200008007800f30007000000e000150035000b
:102130004800900009587800400498001800780082
:1021400000b8a30004003a0000a8a3000600320073
:10215000ea4f550004003a00080078002801070003
:102160000000e00007003a0000c0200018006000f6
:102170000200320048009000600498000a80fb00d2
:10218000010037000080eb004f0578004f04be00cf
:10219000000006000200fa00f1bf9f00010878006d
:1021a0000080fa0000000600040037000204e0008e
:1021b00001003a00000005000000e800104178002e
:1021c000814f5100f9ff3a00000006000400fa00b8
:1021d000889fbe008a9fbe008c1f78000004780094
:1021e0000106780070089000f8009000010050008f
:1021f00088089000010050009808900001005000ed
:10220000a808900001005000b8089000010050009c
:10221000c8089000810550000002220090bf9f0076
:1022200000032300a0bf9f00081090000028a30017
:1022300018003a000b00e000160034008b04780010
:1022400009057800e28f5400020036002a002000c1
:10225000020037000900e0000b0034005800900035
:10226000c80190000a017800ee80570003000100c9
:10227000500498000000e0009600320068089000ca
:1022800000004500600c98008a8454004240a90078
:10229000ebff3c00780190000200e0000b003400ee
:1022a00058009000c80190008c00780003000100e5
:1022b000500498000000e00086003200680890009a
:1022c000f800900001004000600c9800880c90001d
:1022d0000900e0001500340009057800e28f540081
:1022e000020036002a002000020037000900e0004a
:1022f0000b00340058009000c80190000a017800db
:10230000ec80570003000100500498000000e0003a
:10231000700032006808900000004500600c9800d2
:102320008a8454004240a900ebff3c001809900049
:102330000200e0000b003400e8009000580090001c
:10234000c801900003000100500498000000e00064
:10235000600032006808900098089000010040007a
:10236000600c9800a80c90000900e00015003400f3
:1023700009057800e28f5400020036002a00200090
:10238000020037000900e0000b0034005800900004
:10239000c80190000a017800ec805700030001009a
:1023a000500498000000e0004a00320068089000e5
:1023b00000004500600c98008a8454004240a90047
:1023c000ebff3c00380990000200e0000d003400f3
:1023d000e8009000180890008080400058009000ad
:1023e000c801900003000100500498000000e000c4
:1023f0003800320068089000b808900001004000e2
:10240000600c9800c80c90000900e0001500340032
:1024100009057800e28f5400020036002a002000ef
:10242000020037000900e0000b0034005800900063
:10243000c80190000a017800ec80570003000100f9
:10244000500498000000e00022003200680890006c
:1024500000004500600c98008a8454004240a900a6
:10246000ebff3c00081090000028a3001b00320086
:102470000b00e000190034008b0478000905780097
:10248000e28f5400020036002a00200002003700cc
:102490000900e0000b00340058009000c8019000d3
:1024a0000a017800ee8057000300010050049800f4
:1024b0000000e000070032006808900000004500be
:1024c000600c98008a8454004240a9000300340044
:1024d000eaff37000080eb00010037000000eb004e
:1024e0004f0678004f05be004f04be000080fa0082
:1024f00000000600889fbe0000047800c001900024
:10250000600090008000eb00808f5100390039009e
:10251000180178002000290000006100e20f50003f
:1025200007003200002020000200e000010035001a
:1025300000202400000c71008080eb002d0037008b
:102540000100260001006100810f500008003a00e0
:1025500038009000808f5100050039000800780095
:10256000270007008080eb000000e00021003a0017
:1025700000c020001800600017003a00a804900076
:102580006002200008004000808f540012003a00d2
:10259000002020009f03070080007800200498009e
:1025a0000000e00005003a00290498004904980062
:1025b0000900e80030049800060037001860a00009
:1025c000400498000020b00030049800410c9800ae
:1025d000510c9800e1030700280090005004980077
:1025e000380090006004980000002600180c70006d
:1025f0008000eb00010078004f04be0000000600e0
:10260000889fbe00000478000000e0000e003a0041
:1026100080047800a8c42300180078000000e000bf
:1026200004003200f6ff07000000e00001003d005a
:102630008084eb000884e800a0c52300800f5400cc
:1026400029003200f4ff370000002200180060006b
:1026500024003200a804900008003700090150004f
:10266000384090000000fb0089007800530c070000
:102670000000e00013003400808444004800900013
:10268000808f5400f5ff3900280090004004980026
:102690001801780000c02000000061000200320034
:1026a000a800900001003700b8009000000024004e
:1026b000000061000a003200610498008004eb0011
:1026c000090037002800900040049800600498003a
:1026d000500c98001890a0008084eb000200370096
:1026e000510c980080047800090078004f04be0067
:1026f00000000600889fbe008a1f78000004780052
:1027000001027800824478000305780070c6b300a7
:10271000804f510021003c0000c0e900804f510073
:10272000de003d0072405000804f51004b013200ee
:102730000d003c006c405000804f51005e013c0099
:1027400000c0e900804f5100d4003d0050c2b300ea
:10275000804f5100550132007c404000804f5100b5
:1027600055013a00cd00370010c6b300804f51002c
:10277000ca00320004003c0069405000804f510004
:102780004d013a007200370030c6b300804f51004f
:10279000180032000040e8000900370000c7b3000d
:1027a000804f51001e01320008003c0000c0e900cb
:1027b000804f5100e400320065003c00654050004d
:1027c00080cf54003c013a000f00370050c7b300df
:1027d000804f51005e00320063404000804f510046
:1027e0005b00320065405000804f510032013a00da
:1027f0001a0137009180e900010a78007800900002
:102800009171780032013700a8609000c0c6b30013
:1028100080cf50000a003a00940078006480500095
:10282000000a78001000be004f89de00cf91de0064
:102830000002be0002037800820378001300370014
:1028400010c7b30080cf500003003200a0c6b30011
:1028500080cf500006003a00940078006880500055
:10286000000a78003002be002003be0007003700d7
:102870001480e900000a7800100078000002780057
:10288000cfa2de000503780086037800049cbe001a
:102890000694be00a860900080c6b30080cf5000b0
:1028a0000e00320020c6b30080cf500005003a0071
:1028b0000400fb00cf80de00010178008201780077
:1028c0000a00370040c7b30080cf50000300320039
:1028d0006640400080cf500006003a0004007800b7
:1028e000cf80de000101780082017800009cbe00ec
:1028f0000294be003800be002801be00e00f500068
:10290000e08f5800e00f5900e08f590003003d00b0
:1029100078009000d1c2b3000a0037000810900080
:102920000018a3000300320078009000b1c2b30089
:10293000040037000008a300530032007800900024
:1029400001c2b300017578000000e8004d003700b7
:10295000a8609000c0c6b30080cf500006003a00c7
:102960009400780064805000000a78001002be00d5
:102970006033b8001300370010c7b30080cf500099
:1029800003003200a0c6b30080cf500006003a001a
:102990009400780068805000000a78003002be0081
:1029a0002003be00070037001480e900000a780009
:1029b00010007800000278000500200006002000ca
:1029c00007002000049cbe000694be00a860900092
:1029d00080c6b30080cf50000e00320020c6b30086
:1029e00080cf500005003a000480fb000100200069
:1029f00002002000030020000a00370040c7b30097
:102a000080cf5000030032006640400080cf50006d
:102a100006003a00040078000100200002002000b7
:102a200003002000009cbe000294be00081090002d
:102a30000038a300140032003800be002801be0098
:102a4000e00f5000e08f5800e00f5900e08f590070
:102a50000d00320080c7b30080cf54000300320065
:102a600080c5b30080cf540007003a007800900082
:102a700001c3b300017578008000e80009f5780013
:102a80000080e80070049800780090000000450085
:102a900060049800894078006d003700a8609000bd
:102aa000c0c4b30080cf500006003a009400780004
:102ab00068805000000a78005001be004000be004f
:102ac000050037009400780064805000000a780008
:102ad0001000be00fb0f0700009cbe000294be0069
:102ae000380090000000e00003003d0078009000f6
:102af000d1c2b3000a003700081090000018a300ec
:102b00000300320078009000b1c2b3000400370027
:102b10000008a300050032007800900001c2b30055
:102b2000017578000000e8007004980078009000bb
:102b30000000450060049800894078000800780093
:102b4000de02070064003700a8609000c0c6b30032
:102b500080cf5000250032000a003c006440500045
:102b600080cf50002800320000c0e80080cf500025
:102b7000140032006840500080cf500022003a001c
:102b80000a00370040c7b30080cf50001e0032005b
:102b90006640400080cf50001b003200694050006a
:102ba00080cf500018003a00060037001480e9007a
:102bb000000a780010007800485c9000084878000f
:102bc000450037001480e900000a78001002780000
:102bd00068089000cf80de00010178008201780053
:102be000009abe000292be003b0037001480e9004c
:102bf000000a78001001780068089000cf80de009d
:102c00000089be00340037001480e900000a780013
:102c100010007800680c9000080878002e0037003b
:102c20001180e9008008780010007800cf80de0075
:102c30000101780082017800009cbe000294be0071
:102c400078009000000045006004980081c7b30040
:102c500008007800370107001f0037001480e900e2
:102c6000000a78001000780060049800580990006d
:102c70000200e00002003d002701070009003700c4
:102c80008000eb00c2f80700800078000000e00040
:102c900003003200680090000080500001003700ff
:102ca00058089000100c98000b0037007800900036
:102cb000027578000600370078009000800045001b
:102cc0000904e00001003a0059c2b30089487800c5
:102cd0000000e800700498000000eb004f05780049
:102ce0004f04be00000006000003b1000b003500d9
:102cf0009000b100080034008000b10007003500ea
:102d00009001b100040034007000b10003003500f0
:102d10009001b10001003c0010000500000005001a
:102d2000000278008081e80093007800000028000d
:102d30000083600001007800f007b200800978008d
:102d4000150020000e003a00940078000100e00019
:102d50001b00320081097800000a780015ff2f005f
:102d6000070037000180400094007800cf08de00a3
:102d70008109700014007800000a40008502e90013
:102d800093007800f0072000808f5000f5ff360098
:102d9000050037009400d1004f10dd00008a70005c
:102da0009309d1008502e80013017800f00f20009c
:102db000800f5100f7ff3e00f207b2008209780051
:102dc000930973000500780000000600889fbe008c
:102dd000800478000184e80000f8270018006000f3
:102de0004701de00f00f2000800f510008003a007c
:102df000800ceb00f00720001800600016003a007d
:102e0000100020001100e000140032001200370012
:102e10000200e00005003c0001007800c0ff070050
:102e2000000178000000e00008003c00f0072800e6
:102e30001800600001f02300010c700020f82f0042
:102e4000800c41000080eb0004003700800ceb0098
:102e50000000eb0001003700200020004f04be00fe
:102e6000000006008000780065006000030032006a
:102e700010022000004088000000060078806000fa
:102e800002003200200220000040880000000600fe
:102e9000881f7800000478000040eb000054980080
:102ea000380090009040780090c6b30080cf50006a
:102eb0002a00320013003c007140500080cf5000c7
:102ec0002600320005003c0050c2b30080cf500005
:102ed0006400320030c5b3001b00370030c6b300b9
:102ee00080cf50001b0032000040e80080cf50002f
:102ef0001a0032006940500080cf50006e003a0046
:102f00007300370000c7b30080cf500007003c00bb
:102f10000040e90080cf500010003d000040e90073
:102f200080cf500064003a000f00370050c7b30054
:102f300080cf5000090032006340400080cf500035
:102f4000060032006540500080cf50004300320040
:102f5000590037008000eb005e0037000800780061
:102f6000ff0307005f003700684890000004e0009e
:102f70005b003a00f8489000c0c6b30080cf500014
:102f8000270032000a003c006440500080cf50000f
:102f90002b00320000c0e80080cf50001500320046
:102fa0006840500080cf500025003a000a003700ea
:102fb00040c7b30080cf500021003200664040007f
:102fc00080cf50001e0032006940500080cf50007a
:102fd0001b003a0007003700280090000080e9003d
:102fe0002004980010007800084c900008487800f1
:102ff0003b003700280090000080e9002004980082
:103000001002780048009000cf80de0001017800b7
:1030100082017800009abe000292be0030003700a4
:10302000280090000080e90020049800100178003a
:1030300048009000cf80de000089be0028003700e5
:10304000280090000080e90020049800100078001b
:103050004804900008087800210037001100200083
:103060001c003700480090000000e8004004980071
:103070001800900098017800120020008000eb00fa
:10308000030001008000780050022000808f500073
:103090001300320048009000e18f40000800320029
:1030a0000000e900400498001800900098017800a2
:1030b0000001eb00030001000000eb0009003700f5
:1030c0000000e90040049800010078000500370086
:1030d0008080eb0008007800fa0407000100370048
:1030e000100020004f047800000006008001eb0073
:1030f00010417800814f510001003a0080017800b2
:103100000204e000020032000000e800f8ff37008f
:1031100003007800000006008000780001003700fe
:103120000000e8001004e000fdff3a00010050003c
:1031300000000600ef02b000889fbe008a9fbe001c
:103140008c9fbe008e1f78000006780010e72300d9
:10315000c0b79f0080c5b30080cf50000800320088
:1031600002e62300c2b79f007740400080cf5000a6
:1031700003003a0083002000b3b79f000a00370025
:1031800080c7b30080cf500005003200a4002000ab
:10319000b4b79f0080c5b30080cf500002003a0052
:1031a00000012000b0b79f003c04be002c05be000b
:1031b00040c6b30080cf500003003200654040009d
:1031c00080cf50000b003a00e00f5400e08f5c000d
:1031d000e00f5d00e08f5d0006003d006000b8007c
:1031e0006011b80008045000898458000a0559008d
:1031f0008b855900e00f5400e08f5c00e00f5d000c
:10320000e08f5d0004003a005c0890008d01200012
:103210000000e0000c003200bfb09700010278000f
:10322000cfa2de0005037800860378000800be0008
:103230000a01be00c30e07004fb297006440780039
:10324000d0df9f007d0120003fb097000002780092
:10325000cfa2de0005037800860378000800be00d8
:103260000a01be00b00e0700009ebe000296be001e
:103270000d00e90061fc2f008f80400000874000b6
:103280001e0037003fb1970002047800cfc4de0073
:10329000090578008a0578000802be000a03be000e
:1032a0007fa897008fb097001fb19700afb197002c
:1032b000a80e0700d0b79f00e1b79f00f2b79f00ac
:1032c00083bf9f008d06e9000802be000a03be000e
:1032d000260f07007faa970000005200cfb097008a
:1032e000615778005fb09700efb097007fb197000b
:1032f0008fb99700009ebe000296be003c00be0043
:103300002c01be00f0af9f0081b79f0092b79f00d5
:10331000a3b79f00e00f5000e08f5800e00f590066
:10332000e08f5900020034000d00e000d5ff3c00a2
:10333000bfb09700e88f500010003a000c109000ca
:103340000038a3000d003200f78f560006003e0043
:1033500062fc2f000f0141008d00410000c3b3004b
:10336000914f1000050032008d06e90000c3b30044
:1033700063fc2f008f81410080f17e007881160070
:10338000120e98006c00900063fc2f008f814100aa
:103390008d8041007af407001c0990005c089000c1
:1033a000800f510006003d0002005000000e980002
:1033b0000c1090000040a100001698000f0037008c
:1033c0000000e0000d003d000c1090007400600053
:1033d000f00f500009003a007c089000fc009000bb
:1033e000010050008c0890000100500002005000c5
:1033f0004240a90001003400000e98004f077800f9
:103400004f06be004f05be004f04be00ef02b100e4
:1034100000000600889fbe00e30440000900a100f0
:10342000808f54004a003600e38f540001003e00b4
:103430004900200072fa81000200e0000200320020
:10344000820078000c00370001f5230003003700ec
:10345000908f5400230036008080e800110078002f
:103460000000e000faff3a000f003700908f540090
:103470001c0036008080e800110078000000e000a9
:10348000faff3a001201780001f52300030037002b
:10349000908f5400130036008080e80011007800ff
:1034a000820f5000faff3a0068fa8100890f540039
:1034b000010031000904780008007800ee040700dc
:1034c0000000e00004003a00890f540020003200a0
:1034d0000804d100f5ff370008187800ed04070054
:1034e000d4ff370011017800920178006480510008
:1034f000890f50000300310012009000800878000e
:103500000700370009004100800878009201900010
:10351000130098001100780012881400090978003f
:10352000910078000100e0000500320011009000d9
:103530000000e000020032000180e80001003700d6
:103540000000eb0070fa89000280e80001003700fb
:103550000000eb004f04be0000000600881f78004a
:1035600048f623001804e00004003a0060b421008b
:10357000fc04070020c0b300004c78004f04780022
:1035800000000600889fbe00000478001cfc0700b5
:10359000800478000004200018006000020032005f
:1035a00028009000bb0407000000eb0020049800f6
:1035b000384090000004e000050035000000fb00ea
:1035c000b20807000000e000010032008084eb0038
:1035d000181090000000e00008003200b408070056
:1035e0000000e000010032008084eb001810900021
:1035f000a80407000000eb00101498000008200049
:1036000018006000100032000000eb00a1c423008d
:10361000910f1400070032000000e8008180e800ec
:10362000e80f5000faff3a000800780099040700fc
:103630001300370000004000a1c423000100400037
:103640000008eb00f8ff3700000c780000c0eb002a
:1036500030449800600220000800400020049800d8
:103660004004980050049800400c980060049800b2
:10367000500c98007004980076004400000c9800ec
:10368000090078004f04be0000000600881f780083
:1036900088c52300180078000000e0000100320017
:1036a000b8ff07000884e90080c42300800f54009d
:1036b000f8ff3a004f047800000006008f04b000c5
:1036c000889fbe008a9fbe008c9fbe008e1f780020
:1036d000f0b79f0081f79f005001be004000be0080
:1036e000f0979f00819f9f00929f9f00a39f9f0044
:1036f00010c6b3000ff19700804f51001600320042
:1037000010c4b300804f510013003200ffb1970086
:10371000530890000000e00003003d00600020001e
:10372000d00998000c0037000000e0000a003a00c1
:1037300070c6b3000ff29700804f520003003200b2
:1037400070c4b300804f520003003a001000200004
:10375000ffb29700d00a9800ffb09700c0fa2f0080
:103760000f0040008c04070080017800e20f500039
:1037700015003a0030002000ffb097009008980034
:1037800010c6b3000ff19700804f51000a003200bd
:1037900064404000804f5100070032000040e800c4
:1037a000804f510004003200a1fc27000040e800d7
:1037b000804f510001003a00e1fc2700ffb1970063
:1037c00063009000160037000000e000180034008d
:1037d000300020007fb29700100a980010c6b30096
:1037e0008ff2970080cf52000a0032006440400000
:1037f00080cf5200070032000040e80080cf520026
:103800000400320021fd27000040e80080cf520074
:1038100001003a0061fd27007fb19700620090002f
:10382000315878003158780011487800c6013700c7
:1038300014c6b3008ff2970084cf52000300320009
:1038400010c4b30080cf520013003a007fb097003d
:10385000600190008200780000c3b30080587800b7
:10386000ffb29700e102980080c7b3008ff2970083
:1038700084cf52000100320080c5b3008048780038
:103880000280e800ffb09700e0009800710090000f
:103890000080e800f00098000300e00005003a0016
:1038a000e3979f0064fb2f000f014200030778009d
:1038b000a0013700a5fd2700e5b79f0010c6b300a3
:1038c0008ff0970080cf50000500320010c4b30085
:1038d00080cf5000a7003a00b2fe2700e2b79f0059
:1038e000ffb19700530890001e0220000000e00086
:1038f000010035000007e8000e02e800d4b79f0081
:103900006022b8006033b8007f9097008f989700ce
:103910001f999700af999700c20d0700ffb097005d
:103920003102be002103be000000e00004003d00a3
:103930000400be000601be0003f0a2000200370032
:103940000400be000601be00f0979f00819f9f000b
:10395000929f9f00a39f9f006f9197006401510069
:10396000e2979f00c3fa2f008f8141006a804100d7
:103970000048eb006b824100c4b79f003100370064
:10398000c201200003002000e5fa2f000f80420052
:103990002d0407007f9497008f9c97001f9d970030
:1039a000af9d97000800be000a01be00a20d0700ef
:1039b0000006be005fb1970067015100d2b79f00bb
:1039c0004240a9000a003400c70d07000002be00f3
:1039d0000203be000800be000a01be00c50d0700bc
:1039e000f0979f00819f9f00929f9f00a39f9f0041
:1039f000cfb19700678041007100200005003700bb
:103a00006f6066004c6add004466de000c067200e2
:103a1000c4eede00e00f5600e08f5e0005003400cb
:103a20008100e900e18f4000f5ff3a000100370016
:103a30000060eb008100e900fdff3b0067004000f3
:103a4000c0b79f00dfb297000500e0000900340016
:103a50006022b8006033b8007f9097008f9897007d
:103a60001f999700af999700a40d07000000e00090
:103a7000c3ff3c0060fb2f008f0040004fb1970058
:103a8000010051000000e9008e0f500001003d00d0
:103a9000000778000e00e00003003d0073fb2f00dc
:103aa0000f8141002c003700800f570005003d00ba
:103ab0000e80400010409000f3c0b300e74f50006c
:103ac00001003c008041eb00c4fa2f000f024200cd
:103ad0000e0042006a0040008e00780001003700ae
:103ae0000000e9008100e90010417800834f510097
:103af000fbff32000107e800efcf510001003a0060
:103b00000248e8000100e0000300350075fb2f00cb
:103b10000f814200060037000e07e8006f90970003
:103b200064004000e0979f0061fb2f000f81400080
:103b30008e0041008e017800030037001100fb0069
:103b40006fb29700e44878008301e9008100e90042
:103b50000300e000f9ff3d00ffb297005508900018
:103b60000000e000f3003d000e00e900d00a9800dc
:103b7000f00037007f9497008f9c97001f9d97005f
:103b8000af9d97006022b8006033b8000800be0007
:103b90000a01be00230d07000000e00005003d0003
:103ba0000bf0a200f8979f00899f9f009a9f9f00ab
:103bb000ab9f9f006f909700725927000280b90059
:103bc000026a280013002000e8080700e400500003
:103bd000e1979f0015003b00e3801000c0ff2f001d
:103be000008460000800ea00e0979f007f90970043
:103bf0008f9897001f999700af999700c9d123001c
:103c0000070037000808a300030032003902be0095
:103c10002903be003e0d07000884d100e88444005b
:103c20000800e000f7ff3c001b0037000100e00047
:103c30001d003400c0ff2f0000806000e0979f004f
:103c4000000478006000b8000200200003ff230099
:103c5000c9d12300070037000808a3000300320081
:103c60003902be002903be00290d07000884d100d7
:103c7000e88444000800e000f7ff3c000002be00ba
:103c80000203be007f9097008f9897001f999700be
:103c9000af999700930d0700f0979f00819f9f00b9
:103ca000929f9f00a39f9f00ffb097005109900033
:103cb00060c6b3008ff1970080cf5100040032003e
:103cc0006100200060c4b30080cf510002003a00c0
:103cd0006f929700ea00420001074100f30f57007e
:103ce000010034003e01200000c3b300e0779f00d4
:103cf00075fb2f008f824200b5b79f00330037005d
:103d00000800be000a01be00cb0c07000006be0082
:103d1000680757004240a9000e003400f20c07006b
:103d20000002be000203be000800be000a01be0081
:103d3000f00c07006022b80046782d0077192400a7
:103d4000f30c0700f0979f00819f9f00929f9f00b8
:103d5000a39f9f003fb097006804400089002000a7
:103d60000d003700a4002000050020000c01be005b
:103d7000e0fd2f000f004000ac0307007fa8970074
:103d80008fb097001fb19700afb1970004c3b30085
:103d9000046441000006be00e00f5600e08f5e00a4
:103da000060034008904e900e18f4400edff3a0089
:103db0000200370000c3b300006478008904e90002
:103dc000fcff3b0068044400b8b79f000e00e00011
:103dd0000b0034007f9497008f9c97001f9d9700e5
:103de000af9d97006022b8006033b8000800be00a5
:103df0000a01be00c10c07000000e000c0ff3c004b
:103e0000c5fa2f008f8242006a804200bfb097003f
:103e1000008050008001e9006f919700e7004100a9
:103e20006b814200010037000201e80000c3b300cb
:103e3000924f1000fcff320074fb2f000f00420075
:103e400080804000828050000080410002025000cb
:103e5000e1979f00ffb29700d509900060c6b300bc
:103e60008ff2970080cf52000300320060c4b3008d
:103e700080cf520002003a008100e8000a003700bb
:103e800050c6b3008ff0970080cf5000050032007d
:103e90008000eb0050c4b3008ff2970080cf520037
:103ea00001003a0011002000018741008e0f5200ee
:103eb00001003d00040778000e00e0001d00350001
:103ec000840f570005003d00e2407f0095c3b3001a
:103ed00040c3b30080cf500001003c0005c3b300d5
:103ee0000e0041008000e9008e01780001003700db
:103ef0008100e9008301e90011427800854f5200fa
:103f0000fbff32000307e80090c3b30080cf5200ec
:103f100001003a008448e8000300e00005003d008d
:103f20000201e9000e07e8006f9097000000e8002a
:103f3000e0979f006f9297008e0178008ff09700b6
:103f40007fb09700560307004f0778004f06be006a
:103f50004f05be004f04be008f04b10000000600f4
:103f60002f02b000889fbe008a9fbe008c9fbe00bb
:103f70008e1f780080047800600090000000e00050
:103f800001003c00f0ff27000000e900d004980089
:103f9000c90090000c0033000100e800c004980044
:103fa0001900900099017800120020008000eb00b9
:103fb0000300010000057800b0022000800f5500ca
:103fc00006003a000b0037000100e800c00498002a
:103fd0002cfd2f000f0646001b003700d0022000ea
:103fe000800f5500030032002cfd2f000f06460005
:103ff0001600370030fd2f000f044000aad79f00a5
:10400000590090000000e900d0049800c900900019
:104010000a0033000100e800c00498001900900075
:1040200099017800120020008000eb0003000100dd
:104030000005780008067800040037000100e80059
:10404000c0049800080678000085eb0018e42300ff
:10405000390090009000fb000800780052f807003b
:1040600008005000a1e32300614478008805fb00ac
:1040700000032000800f550033003a0059009000e3
:104080000000e900d0049800c90090000c00330043
:104090000100e800c0049800190090009901780020
:1040a000120020008000eb000300010000057800f2
:1040b00080072000800f550005003a0007003700f8
:1040c0000100e800c00498000085eb001b003700e9
:1040d00080052000800f550018003a000804e00019
:1040e00002003200f04f54001d003a0059009000c9
:1040f0000000e900d0049800c900900009003300d6
:104100000100e800c00498001900900099017800af
:10411000120020008000eb00030001000005780081
:10412000030037000100e800c00498000085eb00a0
:104130000047eb000b012000110037000804e000ed
:10414000b8003200060037000047eb000804e0002a
:1041500004003a00ad002000084778001c0037003a
:104160001ec0b300ad002000ea4f5400180032001a
:10417000e88f550002003a008b06780014003700e3
:104180006d01200012003700590090000000e90086
:10419000d0049800c9009000090033000100e80035
:1041a000c0049800190090009901780012002000c6
:1041b0008000eb00030001000005780003003700d9
:1041c0000100e800c00498000085eb001ec0b300a9
:1041d00000032000800f5500ebff32000e04e000ca
:1041e00018003200005e7800160037006f8057001c
:1041f000800f5600010031000a5e780059009000df
:104200000000e900d0049800c900900009003300c4
:104210000100e800c004980019009000990178009e
:10422000120020008000eb00030001000005780070
:10423000030037000100e800c00498000085eb008f
:104240001ec0b300e10f4500070032000d017800e9
:104250008a00780090e423004df307000000e0009e
:10426000e2ff3a0066003700490090000000e900d4
:10427000c00498000e04e00008003a0020fd2f0062
:104280000f004000800f56005b003a00e10f450030
:1042900059003a008a00780065003700004eeb00b4
:1042a00069489000110020000004e00060003a001e
:1042b000390090009040780040c6b30080cf500095
:1042c000030032006540400080cf50000a003a00f1
:1042d0000b0178008000eb0020fd2f000f00400054
:1042e000a30307000203be000002be0010c0b3001b
:1042f000805498000d0037000b0178008000eb001f
:1043000020fd2f000f004000f30307000203be0052
:104310000002be0010c0b30080549800b9009000a5
:1043200000c7b300914f10002c003200f9489000f4
:10433000c0c6b30080cf5000220032000a003c000b
:104340006440500080cf50002400320000c0e800dc
:1043500080cf5000140032006840500080cf5000e1
:104360001e003a000a00370040c7b30080cf50005b
:104370001a0032006640400080cf50001700320023
:104380006940500080cf500014003a00060037000a
:10439000290090000080e900a00498001000780037
:1043a0000448780012003700290090000080e900de
:1043b000a0049800100078000498be000690be008b
:1043c0000b003700290090000080e900a00498004d
:1043d000100078000488be00050037002900900016
:1043e0000080e900a004980010007800040878001c
:1043f000110020000e0037008000eb000c00370099
:10440000490090000000e900c004980019009000e5
:10441000990178000001eb008a0078000300010098
:1044200094ff37001ec0b3008b00200052ff3700fe
:10443000010078004f0778004f06be004f05be0010
:104440004f04be002f02b10000000600800178007a
:10445000100037000302e800d0c2b300944f1000f0
:1044600008003a0093cf100003003e002340900064
:1044700080cf50001200360063824100630151007a
:104480000300370093cf10000d0032000201e90055
:1044900084017800e20f5100eeff3e000002eb00c5
:1044a0000400370064c079000402e800814f500026
:1044b00003003200820f5200faff3a0000000500ac
:1044c00010000500f0874700889fbe008a9fbe004d
:1044d0008c9fbe008e1f7800000478008106780053
:1044e0000000eb00c0b79f00f8489000c0c6b300c2
:1044f00080cf500002003a0011002000c1b79f0099
:104500000d00e00023003d00b80090000100e8002d
:1045100030049800e2c5b3008041eb0083f79f00b0
:10452000904f110003003a000180e8003004980029
:1045300082f79f00b8049000d0c5b300994f1000d7
:104540000200320009007800010037000900e8008d
:10455000d105200014f70700d0b79f008000eb00c2
:104560000000e000bd00320009065000e20f5600d6
:10457000080034000c81e9000900e800d1022000a5
:1045800083f2070011c0b300c1ef9f000000e000fc
:1045900002003a008041eb00c3ef9f0068009000ea
:1045a0000000e00004003c00f0ff27000d00e000e8
:1045b00001003a0010002000500498006848900064
:1045c0000004e0000d003a0028009000cfb09700f2
:1045d0000100e000050032000080e900200498009e
:1045e00010007800b0b79f00040037000080e90099
:1045f0002004980010007800f0b79f000045eb0001
:104600005e0037000d00e000030034000900780070
:1046100050f207001e0037000d00e0001e003200bf
:10462000cfe997000304e0000c003a003800900046
:104630008ff097000104e00004003a000c017800bc
:104640008900780052f207000b0037000c01780057
:10465000890078004ef207000d0037003800900006
:104660008ff197000304e00006003a000c01780087
:104670008900780075ff07000000e00006003a009e
:104680006d0037000c017800890078006fff07008b
:104690000000e00068003a004fb097000000e00022
:1046a00009003a00684890000004e00032003a0037
:1046b000ffb0970089587800f1b79f0010c0b30091
:1046c000005498002c003700c9e79f008905fb00c3
:1046d0000b00780001003200100020000005780077
:1046e0001e0020000000e00016003a000904e0006f
:1046f00004003a007c80570087fa07000005e800b4
:10470000100037000e07e900fc81570063407f006e
:104710008000fb0048019000e14f4000070032009c
:104720000200e90040049800180090009801780009
:104730000001eb0003000100020037000200e90065
:10474000400498008e0f5500eeff35006848900039
:104750000004e00005003a003fb097000b18780015
:10476000b0b79f0010c0b3000054980068009000dc
:104770000000e900600498002ac0b30058009000cf
:104780000000e90050049800480190000b0033003d
:104790000200e8004004980018009000980178009a
:1047a000120020008000eb0003000100800478006c
:1047b000e10f400093ff3a00020037000200e800da
:1047c00040049800480090000000e9004004980070
:1047d0000d00e00002003200e24f550004003200fc
:1047e0000a00fb008080eb001c0032001000370044
:1047f000684890000004e00009003a00cfb097003c
:104800000100e00003003200bfb197008009eb0017
:10481000030037008fe897007fb0970001487800c9
:104820000d00e00002003d00dfb197003304980066
:104830001100200009003700480090000000e90046
:104840004004980018009000980178000001eb00e7
:104850008900780003000100ddff370001007800c7
:104860004f0778004f06be004f05be004f04be0044
:104870000f01b100000006000000e000030034005a
:1048800014040700e10f400001003a000000eb00b3
:10489000000006000000e000310032008080e900e6
:1048a00091027800e38f52002d0036000508a30026
:1048b0002b003a0082fa81000200e0000200320080
:1048c000828f5000040031000208780081fa8900cc
:1048d0001600370003017800920190000300e00009
:1048e00002003200818f5100faff39001202780075
:1048f00004004100808f500019003900810f5000e2
:1049000003003a00050942008200780007003700e2
:104910000300e0000300320005804000808f51005a
:104920000f003900930098001101980011019000c8
:104930000200e0000a00320011804000820f5000a7
:1049400007003a00e0f423000008eb00110090009b
:10495000110178009008410010009000900098002c
:104960000000060000017800000020000000e000c8
:1049700008003200000080000000e0000500320066
:104980000000e900000088000000400001008000f5
:1049900002b0780000000600889fbe008004780006
:1049a0006684400000ff2700180060004401de001c
:1049b000f07f2000800f51000e003a00800ceb00c9
:1049c000180478006f0064001c003a002100900079
:1049d0000000e00019003a00110090000000e00023
:1049e00016003a00100020001100e0001400320010
:1049f000120037000200e00005003c0001007800d2
:104a000017030700000178000000e00008003c00e8
:104a1000f00028001800600001fe2300010c700067
:104a200020c02f00800c41000080eb000400370004
:104a3000800ceb000000eb0001003700200020009c
:104a40004f04be0000000600889fbe008a1f780049
:104a50008c9fbe00000478000206be00e604400001
:104a6000190178000200d0004505de008a007800b8
:104a7000f07f2000800f55000c003a006f006100ad
:104a800065003a00280090000000e00062003a0053
:104a9000180090000000e0005f003a0010002000c5
:104aa0001800e0005d0032005b0037000a00e00003
:104ab00007003a0008007800e9020700800078004b
:104ac0000000e000020034000a00780053003700c4
:104ad0006108b9000c0140008d814800e07f200092
:104ae000800f5100e08f59000d0034001900e000e4
:104af00004003d006000b8000200200003ff2f000a
:104b0000030037006000b8000200200003ff270008
:104b1000009cbe000294be00100020003f00370041
:104b2000e00f5100e08f590005003400f00028002c
:104b300019006000c410dd00810c700034003700e3
:104b40001900780001002800010360006f00600078
:104b50000040a000800c780061015100e081590004
:104b6000c0fc2f00f1ff2f00800f5100818f5900f2
:104b70000d003d00860c78000000eb00200498003a
:104b800010049800000c7800240037008880e800aa
:104b9000110c78006400440090087800190878002f
:104ba000800ceb0070014100f00f4100f7ff340072
:104bb0008202ea00150032008881e800708212004b
:104bc000980078008508de00130078000400dd00fe
:104bd000008c700064014400930078008508de00ba
:104be000120078000400dd008089700092007800d7
:104bf0008508de00190078000400dd0000897000df
:104c0000190078000500de00800c7800990c730014
:104c10000080eb0001003700200020004f06be009e
:104c20004f0578004f04be00000006000400fa00a3
:104c3000889fbe008a9fbe008c1f78000006780007
:104c400092bf9f00a3bf9f000404be000401be00ea
:104c50001fb89700afb89700c40407000005be0056
:104c60000001be000800be003f0307001fb9970007
:104c7000afb99700000051008180590020069800cc
:104c8000310698000a8ebe000c0078004f067800ae
:104c90004f05be004f04be000080fa000000060071
:104ca0000e00fa00889fbe008a9fbe008c9fbe0047
:104cb000000478000145780002067800830478003b
:104cc000840678000300e00002003c001900200088
:104cd0008cf6230060c6b300804f55000e003200f2
:104ce00060c4b300804f55000b00320070c6b300a3
:104cf000804f55000300320070c4b300804f550050
:104d00009c003a00e48f460080003500580890006f
:104d1000808f56007d003d008d05e80060c6b30021
:104d2000804f55001000320060c4b300804f550022
:104d30000d003200081090000038a30004003a0073
:104d400058089000808f540001003d00590c9800d5
:104d5000580890000b005000500c980002003b00d7
:104d60000000eb00500c98000b00e00027003c0016
:104d7000180990006800900001c3b3000170790029
:104d80008201e800130c9800580890000000e00031
:104d900003003c00081090000038a300050032001a
:104da00068009000e1c2b30001f079000280e800e1
:104db000100c9800d80890000b00ea00808f50007b
:104dc00001003d008105ea000b00ea00200c98007c
:104dd00001804500500c9800890f500001003d00f3
:104de00080047800390c98006800900098089000c2
:104df00001004000090178008c007800e0ed070018
:104e000058089000090050001a00370098089000d8
:104e1000680090008b8f540018003d000100400096
:104e2000090178008c007800d5ed07001808900083
:104e300000814400120c980009805500200c980055
:104e4000580890000000e00003003c0008109000ab
:104e50000038a30006003200e8009000e0c2b30072
:104e600080707900380890000000e800300c98004d
:104e700058089000400c9800a60037000100400040
:104e80000b0178008c007800bded07001808900039
:104e900000814500120c98008b8454005808900043
:104ea0000000e00003003c00081090000038a30060
:104eb0000500320068009000e1c2b3000170790083
:104ec0000200e800100c980058089000890f50006c
:104ed00001003d0080047800680090009808900070
:104ee000010040008b00460009017800a4ed070096
:104ef0001808900000804400100c9800580890009a
:104f000009005000200c98008200370070c6b300e2
:104f1000804f55000300320070c4b300804f55002d
:104f200014003a0058089000808f540004003d009f
:104f3000081090000038a30001003a00590c9800b6
:104f4000580890000000e900500c980002003b0057
:104f50000000eb00500c980070c6b300804f550065
:104f600002003a005ac6b3000b0037005ac4b3001f
:104f70000900370010c6b300804f550002003a0008
:104f80000ac7b3000400370010c4b300804f5500b7
:104f900001003a000ac5b3001809900068009000ab
:104fa0003c7079008201e800130c98000c02780034
:104fb000580890000000e00003003c00081090003a
:104fc0000038a30017003200e8009000e0c2b300f0
:104fd00080f079008280e800110c98005808900059
:104fe0000000e0000f0034008904e900890f500040
:104ff00001003d00800478006800900000804000bf
:1050000009017800840078005ded07001808900021
:1050100000804400100c98005808900009005000cf
:10502000200c980068009000980890000100400053
:105030000086e8000a587800800078000d00e00043
:1050400004003500b0c2b300804878008c047800ba
:1050500004003700d0c2b300804878008c04780088
:105060008d06ea008005eb000a003700a200200050
:105070008d00780070805700c50107000fb89700b9
:105080009fb897007a81550001f17f008b05e800f9
:10509000800678000d00e000f4ff3c00e18f550031
:1050a00009003c0050c6b300804f55000300320099
:1050b00050c4b300804f550003003a0000c3b30052
:1050c000005e78008c0478000b00e00004003200e1
:1050d0000b00e900fa80570000804000060037000e
:1050e00000c3b300805c7800050037008b05e90041
:1050f00002c3b300a05c41000b00e000fbff3c00da
:105100006800900098089000010040000080540062
:10511000300c98000810900074006000f00f5000f0
:105120000e003a00780090009808900001004000be
:10513000a808900001004000b8089000010040005d
:10514000c80890008100400078089000808f5000cf
:1051500002003d0001005000000c98004f06be0008
:105160004f05be004f04be000080fa00000006009c
:105170000200fa00889fbe008a9fbe008c1f780044
:105180008005780001057800020678000100e00043
:1051900001003a006c8557000b04780001003700cd
:1051a0000804e800984478000900fb0069ef070054
:1051b0000000e000faff3a00d0c2b30080cf5400f4
:1051c0000500320000c0e90080cf54000200320028
:1051d00080447800010037000804e8000c017800e2
:1051e0008a007800080078003b0007000203be0038
:1051f0000002be009a0f540001003a000b0d780027
:105200009a8f550005003a00e00f5200e08f5a00d7
:10521000e00f5b00e08f5b0014003a00b0c2b30007
:1052200080cf540006003a00e00f5200e08f5a0091
:10523000e00f5b00e08f5b0020003d000b003700bb
:10524000d0c2b30080cf54001c003a006000b80008
:1052500002002000030028000020e10001a8e10076
:1052600002b0e10003b8e1000e0036002002200089
:10527000004088006b40400080cf540004003a009a
:105280006000b80002002000030028000d00370075
:10529000f0ff2f00f1ff2f00f2ff2f00f3ff270098
:1052a000080037006000b8006011b8000402500028
:1052b0008582580006035900878359000400be0008
:1052c0000601be004f0678004f05be004f04be0029
:1052d0000080fa0000000600fc874700889fbe009f
:1052e0008a9fbe008c9fbe008e1f7800000778004a
:1052f00081067800820478000004780001003700fd
:105300000804e800184678000c00fb0011ef0700c5
:105310000000e000faff3a00d0c2b300804f560010
:105320000500320000c0e900804f56000200320044
:1053300000467800010037000804e8000900e0009a
:1053400005003500e18f54000300320040022000c8
:10535000808f5400040034000d00e000b0003200e3
:105360008e0e7800ae0037000900e0000e00340019
:10537000f08f54001a003a0000c3b300984f100099
:1053800016003a009840900080c7b30080cf5000cc
:105390000300320080c5b30080cf50000f003a00f8
:1053a0000884e8000e003700a900200000c3b30005
:1053b000984f10000a003a009840900080c7b30050
:1053c00080cf5000040032008900200080c5b30067
:1053d00080cf500002003a000884e8000901200054
:1053e00008057800010037000a05e80000c3b30093
:1053f0009a4f1000fcff32008a0578006022b80046
:105400006033b8002600370070cf230080c0500002
:1054100081ef9f0009027800cfa2de00050378002b
:10542000860378000fb097009fb097002fb19700c8
:10543000bfb19700cd060700d0b79f00e1b79f002e
:10544000f2b79f0083bf9f000fe897000002fb00a8
:10545000cfa2de0005037800860378008b05e80004
:105460000fb097009fb097002fb19700bfb1970082
:10547000c0af9f00d1af9f00e2af9f00f3af9f008e
:105480005fb09700efb097007fb197008fb997009a
:105490000002420081824a0002034b0083834b00da
:1054a00084b79f0095b79f00a6b79f00b7b79f002e
:1054b0001b00fb00afee07008000780009017800b8
:1054c00070cf2300b2ee0700800078000000e000fb
:1054d000cdff3a008b0f54000a003a000d00e000a7
:1054e0004f0032008e0e78006022b8006033b800a2
:1054f00084b79f0095b79f00a6b79f00b7b79f00de
:105500004d0037008a80550020cd230060c07c000c
:105510000000fb00008050002c0033004240a90036
:1055200020003c008fea97000500fb00cf80de00e2
:1055300001017800820178000fb297009fb29700b6
:105540002fb39700bfb397000000520081805a002c
:1055500002015b0083815b000020e10001a8e10003
:1055600002b0e10003b8e1000e0039000902780042
:10557000cfa2de000503780086037800ea05070065
:105580004faa9700dfaa97006fab9700ffab970079
:105590000400e1000588e1000690e1000798e100c1
:1055a0000a0032002002200000408800f0ff2f0097
:1055b000f1ff2f000001be0080b79f0091b79f0050
:1055c000a2b79f00b3b79f0011003700d0c2b3004d
:1055d000804f56000e003a006000b8006011b8001d
:1055e0000fb297009fb297002fb39700bfb39700f9
:1055f0000402500085825800060359008783590031
:1056000084b79f0095b79f00a6b79f00b7b79f00cc
:105610000d00e000080032008b0e78000600370015
:105620006000b8006011b80080b79f0091b79f007c
:10563000a2b79f00b3b79f000fb097009fb097002d
:105640002fb19700bfb197004f0778004f06be00fb
:105650004f05be004f04be00cf01b10000000600a0
:1056600000027800e60240001500780001002800e2
:10567000810360006f006000800a780012003a0029
:10568000240090000000e0000f003a001400900099
:105690000000e0000c003a00160020001400e000ba
:1056a0003800320008003700e4004200910a780018
:1056b0000480e8009008780014087800000aeb00e5
:1056c0007003530001003700160020001500e000b1
:1056d000f5ff3200130037006401420080004000f3
:1056e000120078004f00de00808a70008481e8009c
:1056f0009200780081804000130078004f00de00a7
:1057000000897000930078008180400014007800c8
:105710004f00de008089700014007800000a40000d
:105720000603e90015007800ef0f5000eaff36008d
:10573000100037000481e8009400d10012007800c6
:105740004f00dd00008a7000e40042009201d100a9
:10575000110078004f00dd00008971001101d100b7
:10576000150078004f00dd0080087100950ad10017
:105770000603e80015007800ff0f5000edff3e0023
:10578000ef0a6000958a73000600780000000600aa
:1057900002027800809fbe00110009008200d8003c
:1057a000000178004f00be0002a2b90084805000c2
:1057b0001100980002087800000006000a00fa00b4
:1057c00080017800e20f500025003e00104080006c
:1057d000e10f500008003200802320000000e000ac
:1057e000050032000423200025232000462320004a
:1057f00080017800040037000422200025222000c8
:105800004622200083222000144090000004e00083
:10581000030035008009eb0000002800140a700026
:10582000154090000028a30001003a0015a0a00038
:105830008001eb0007003700154090000008a3002e
:10584000fdff320063c078000000fb00000b780011
:105850008301e800828f5100f7ff3a00080037000b
:1058600030002000b0bf9f00c3bf9f00d1bf9f008a
:10587000e2bf9f006a80570000c0da006fb997004e
:10588000020078000080fa00000006000a00fa001a
:1058900011002000b1bf9f00c0bf9f006a80570069
:1058a00000c0da004fb897000080fa000000060040
:1058b0000a00fa0051002000b1bf9f00c0bf9f0046
:1058c0006a80570000c0da005fb897000080fa00d5
:1058d00000000600889fbe00800478000408e200f3
:1058e00004003a000000eb00100007000000e00098
:1058f0000a003500204080000900e00002003a0064
:105900000004780006003700000478000900400019
:10591000060007000000e00001003d000084eb00ed
:10592000080078004f04be000000060080007800e8
:105930000000e00004003a00c0f623002040880088
:1059400001017800060037000081eb00c0762600d8
:10595000808f500002003e00214088000001eb00d3
:105960000200780000000600020ab900001bb9001e
:105970000200b800810042008100430000000600e0
:10598000889fbe008a9fbe008c1f780079020700a6
:105990008002330003866c006450e1002400320072
:1059a0006420e100270032006150e1002200320053
:1059b0006120e100210032008b854200eb07b1003d
:1059c0000134b800003ab8000804420089844a0053
:1059d000013ab8000030b8008880400009014a0050
:1059e00004003300000040008180480002014900ab
:1059f0008b05e900c909dd00830170000100320058
:105a000013002000c814de004814dd004709de0042
:105a10001200b200c808de00088470006d020700a2
:105a200001f0a1000cf0a70001f0a0006202370015
:105a30006120e100640232000801be000200be00e5
:105a4000f7ff37006150e100fcff3a005e023700cb
:105a5000889fbe008a9fbe00010578000100e0001b
:105a60000400350008003c000000e0002000320087
:105a70000500370060001000e080180002003b00c5
:105a800001f02c001a0037000004be006011b800bd
:105a90006b0920000982cf00020039000882cf0084
:105aa0000441b000694252000e00320008003b0081
:105ab00082817100610164008904d1000884d300ef
:105ac0008b05e8000442e800f9ff3a0005003700c2
:105ad0000804440089844c008b05e9000442e90075
:105ae000fbff3a003b0207000af0a70001f0a0000c
:105af0004f05be004f04be000000060003f0a200e8
:105b0000889fbe008a9fbe008c1f78001902070084
:105b1000200233006450e1004f0032006420e100b5
:105b20005200320003826c0007003b000905d000e0
:105b30000306d000820f54000c065d0002003900fd
:105b40000200320089017800030678008582550042
:105b500004003d000003fd008103fd008502ea0012
:105b60008b854200840f720002003b006000100031
:105b7000e08018006011b8000005eb007a28e10011
:105b80000a00390006007800c75ddd00f707b200a3
:105b9000878075002d003700828171000a0178002e
:105ba000610560008180d1000080d3008502e9009a
:105bb000f9ff3b00060440008784480002003b00d8
:105bc00060041400e0841c000988a3000700320070
:105bd0008a81710082817100610164008904d100b1
:105be0000884d3008b05e800170037000978a3006c
:105bf00013003a000b00e000130034008b05e900ad
:105c00000804440089844c000a4474000978a30005
:105c10000d003a000b00e000070034008b05e9009e
:105c20000804440089844c0001003a000b00200065
:105c30000978a300f7ff32000001eb0002003700f3
:105c4000828171000a017800e20107000cf0a700d0
:105c500001f0a000d80137006420e10002003a0002
:105c6000838f6c00d80133000801be000200be0023
:105c7000d1013700889fbe008a9fbe008c1f78002c
:105c8000bc010700c301330003866c006450e100cf
:105c90002e0032006420e100330032006150e10048
:105ca0002f0032006120e10031003200858555006f
:105cb000eb07b000090020000804200005003700b1
:105cc0000804440089844c000a00310006034300a4
:105cd00087834b000001530081815b00f8ff330094
:105ce0000203be000800a0000804440089844c00a0
:105cf000f6ff3900c639dd00830173000100320070
:105d0000130020008904d1000884d3000998a3005f
:105d1000050032000800a7000300a0008904d1009c
:105d20000884d3008b05e8008904d1000884d300df
:105d30000001eb000281d200a601070001f0a100e2
:105d40000cf0a70001f0a0009b0137006420e100e7
:105d50009d0132000801be000200be00f7ff3700bf
:105d60006120e100980132006000b800f3ff3700c5
:105d70000000200001f82700f0ff37000400200099
:105d8000ba0137000001eb000702070004003200ef
:105d90000200200003f8230001f0a70057ff0700ce
:105da00000000600889fbe008a9fbe008c9fbe0038
:105db00024020700850478000005be006420e1008d
:105dc00049003e006220e100030032000900350076
:105dd0000bf8a300440032000bf8a30008003200c7
:105de0001002200000408800f0ff2f00f1ff270084
:105df0003d00370001f82f00000020003a00370076
:105e00003d0007003dff07000006be000a00be007f
:105e1000324f200053f323006300070006003400d4
:105e20000c00be003400070034ff07000006be006f
:105e30000a00be00020037008904e9000c00be0021
:105e40002d000700cefe07002b0007002cff0700e7
:105e50000001be000c00be0086ff07000005be006a
:105e60000001be00c6fe07000006be00a2f323002c
:105e7000430d2c0022ff0700809fbe000c00be00d7
:105e8000d2e32700d3f02b00bdfe07004f01be0078
:105e900078ff07000006be000a01be00b8fe07003a
:105ea0000a01be0016ff07000006be006148b900e7
:105eb000e7fe07000005be0032082800e3952b002e
:105ec000affe07000c01be000dff07000006be007c
