:020000040000fa
:080000000002040000000000f2
:020000040000fa
:10040000cfa2200000ff27000001880000000000ac
:100410000a00070011000700000020000000e000b3
:100420000200320000000200000000005c23020015
:10043000000000000040da000000fe004440a90077
:10044000002720000000e000030032000000200030
:10045000a00188004440a80000000600801222008d
:10046000010020001500370062004000e0804800d5
:10047000910188009001ba0062004000e0804800cd
:10048000910188009002ba0062004000e0804800bc
:100490000002eb006028e10004003a000059eb0084
:1004a0008301e900fdff3e00040037006128e10000
:1004b000010032000082eb00050007009101880076
:1004c0001001ba000200e000e7ff3a00000005005a
:1004d000910188008002780062004000e0804800be
:1004e0003559ba008301e900080032002559ba00e5
:1004f0008301e900050032000400e000f4ff32004f
:1005000015d9ba008301e900f1ff3a0000000600a6
:1005100094020400000000006e0b040000000000c4
:100520000000040000000000889fbe0080047800e6
:100530000100780002047800890178001100200091
:100540000e000700880f5000010032008004eb000d
:10055000090078004f04be00000006000000fa0009
:100560004fb99700e8815700819120004029200071
:10057000570007000080fa0000000600889fbe00b8
:100580008a9fbe008c9fbe008e1f78008106780077
:1005900083047800000678000288b900000778001c
:1005a0000000e00002003a0000017800420037003d
:1005b0000d00e0004000320000057800c900900006
:1005c00069009000808f5000040039000900780015
:1005d000f80007000000e00029003500004020007e
:1005e0001900600003003a000a04780080057800d2
:1005f0000b0037000a017800a10020000c007800f1
:100600002f010700800578000000e00002003a009a
:100610000a047800020037000c0050000004e800d3
:10062000c90190006900900003005000880f50003d
:1006300002003100000478008005eb00080178001a
:100640008c007800030078002701070008064600a8
:10065000080555004900900000004400c0049800bf
:100660000b00e000040032000900780025010700bb
:100670000000e00002003a000a00e000cfff3a006c
:10068000008020001900600002003200090078009c
:100690001c01070000c020001900600002003200a9
:1006a00049009000e00498000a005700110009007a
:1006b0000d80d80000017800020078004f07780014
:1006c0004f06be004f05be004f04be0000000600ee
:1006d0006200fa00889fbe008a9fbe000004be0030
:1006e000020578008300780060f92f000f004000b9
:1006f0004101070088979f0099979f000000eb0039
:10070000a09f9f009a4578000b80fb000000ea0044
:10071000cf04de0050c2b30080cf5500020032008b
:1007200009047800010037000904e9000800e0002e
:100730000b0034001f909700080178008a007800b1
:100740008f9197000300010090979f000000e00048
:10075000930032002f98970000004400a09f9f0054
:100760000905450050c2b30080cf55000400320097
:100770000b04e000e3ff3a002f9897008900370050
:100780000000eb00809f9f00f0979f00e0979f0084
:10079000d0979f00c0979f00b0979f00c09f9f0079
:1007a00009003700609920000080500000004000e0
:1007b000a1982000e10078004f9897000100700098
:1007c000c09f9f000a05e8001a4478008800fb00db
:1007d000609920000d010700800078000000e00013
:1007e000f0ff3a00a0c2b300804f54000e003a0060
:1007f000bf8897000180e900b08f9f00100078004b
:10080000b09f9f000000e00005003d000000ea00ee
:10081000b09f9f004f9897000020a000c09f9f00ae
:100820000a05e80010003700b19f9f00090037005b
:10083000bf989700f0ff2700808f5000040032001f
:100840006a08b9000000410003004000b09f9f000b
:100850000a05e8001a01fb0003fd2f000300410018
:10086000e90f5000f2ff3600e0c2b3009a4f1000cb
:10087000040032000080eb00909f9f008a04780003
:100880001c0037008a04e800a0c2b300994f100092
:1008900007003a00bf8897000180e900b08f9f00f1
:1008a00010007800909f9f008a84e80011003700b4
:1008b0000000eb00909f9f00090037009f98970071
:1008c000f0ff2700808f5000040032006a08b90052
:1008d0000000410003004000909f9f008904e80051
:1008e0001901fb0003fd2f0003004100e90f500038
:1008f000f2ff3600194478008800fb00c099200000
:10090000c20007000000e00002003a000044780046
:10091000010037008904e800a87f9f0080c6b3006b
:10092000804f540004003a00994f14000a003a0026
:100930006640500006003700c0c6b300804f540028
:1009400005003a00994f140003003a00654040004a
:10095000a07f9f008904e8000905e800cbfb2f0079
:100960008f8545001901fb0060f92f000f00400042
:100970000084e8008b01780080007800080078008f
:10098000ab0007000000e00005003a008b00780093
:1009900008007800e90107000000e00059ff3d0071
:1009a0000080eb004f05be004f04be000080fa003f
:1009b00000000600889fbe0000047800c00190007f
:1009c000600090008000eb00808f510039003900fa
:1009d000180178002000290000006100e20f50009b
:1009e00007003200002020000200e0000100350076
:1009f00000202400000c71008080eb002d003700e7
:100a00000100260001006100810f500008003a003b
:100a100038009000808f51000500390008007800f0
:100a2000380007008080eb000000e00021003a0061
:100a300000c020001800600017003a00a8049000d1
:100a40006002200008004000808f540012003a002d
:100a50000020200083020700800078002004980016
:100a60000000e00005003a002904980049049800bd
:100a70000900e80030049800060037001860a00064
:100a8000400498000020b00030049800410c980009
:100a9000510c9800c50207002800900050049800ef
:100aa000380090006004980000002600180c7000c8
:100ab0008000eb00010078004f04be00000006003b
:100ac0008001eb00040037008301e80090cf1000a4
:100ad000040032000000e800828f5100faff3a0063
:100ae0000000eb00000006008001eb000200370070
:100af00061f079008301e800828f5100fcff3a0029
:100b000000000600889fbe00000478000000e0009e
:100b10000e003a0080047800088e2000180078004b
:100b20000000e00004003200f6ff07000000e000d3
:100b300001003d008084eb000884e800008f200065
:100b4000800f540029003200f4ff3700000022001b
:100b50001800600024003200a8049000080037004c
:100b600009015000384090000000fb008900780027
:100b7000ed0307000000e00013003400808444000f
:100b800048009000808f5400f5ff39002800900045
:100b9000400498001801780000c0200000006100a7
:100ba00002003200a800900001003700b800900059
:100bb00000002400000061000a0032006104980077
:100bc0008004eb00090037002800900040049800e2
:100bd00060049800500c98001890a0008084eb00ee
:100be00002003700510c980080047800090078005a
:100bf0004f04be00000006000200fa00f1bf9f0093
:100c0000010878000080fa000000060004003700a8
:100c10000204e00001003a00000005000000e800c6
:100c200010417800814f5100f9ff3a0000000600a2
:100c3000889fbe008a1f78000004780001027800b7
:100c40008244780003057800e0c6b300804f51006d
:100c5000d200320015003c006b405000804f510024
:100c6000240032000a003c0070405000804f5100c8
:100c70000f01320065404000804f51007400320087
:100c800050c2b300804f510020013a001c013700d0
:100c900040c6b300804f51001b0032006540400049
:100ca000804f510019013a001700370030c7b300d8
:100cb000804f5100fe00320007003c0064405000ad
:100cc000804f5100620032000040e800804f510028
:100cd0000e013a00e700370050c7b300804f5100c3
:100ce0005b00320063404000804f510007013a0032
:100cf000570037009180e900010a780078009000e1
:100d00009171780007013700a8609000c0c6b30059
:100d100080cf50000a003a009400780064805000b0
:100d2000000a78001000be004f89de00cf91de007f
:100d30000002be000203780082037800130037002f
:100d400010c7b30080cf500003003200a0c6b3002c
:100d500080cf500006003a00940078006880500070
:100d6000000a78003002be002003be0007003700f2
:100d70001480e900000a7800100078000002780072
:100d8000cfa2de000503780086037800049cbe0035
:100d90000694be00a860900080c6b30080cf5000cb
:100da0000e00320020c6b30080cf500005003a008c
:100db0000400fb00cf80de00010178008201780092
:100dc0000a00370040c7b30080cf50000300320054
:100dd0006640400080cf500006003a0004007800d2
:100de000cf80de000101780082017800009cbe0007
:100df0000294be003800be002801be00e00f500083
:100e0000e08f5800e00f5900e08f590003003d00cb
:100e100078009000d1c2b3000a003700081090009b
:100e20000018a3000300320078009000b1c2b300a4
:100e3000040037000008a30053003200780090003f
:100e400001c2b300017578000000e8004d003700d2
:100e5000a8609000c0c6b30080cf500006003a00e2
:100e60009400780064805000000a78001002be00f0
:100e70006033b8001300370010c7b30080cf5000b4
:100e800003003200a0c6b30080cf500006003a0035
:100e90009400780068805000000a78003002be009c
:100ea0002003be00070037001480e900000a780024
:100eb00010007800000278000500200006002000e5
:100ec00007002000049cbe000694be00a8609000ad
:100ed00080c6b30080cf50000e00320020c6b300a1
:100ee00080cf500005003a000480fb000100200084
:100ef00002002000030020000a00370040c7b300b2
:100f000080cf5000030032006640400080cf500088
:100f100006003a00040078000100200002002000d2
:100f200003002000009cbe000294be000810900048
:100f30000038a300140032003800be002801be00b3
:100f4000e00f5000e08f5800e00f5900e08f59008b
:100f50000d00320080c7b30080cf54000300320080
:100f600080c5b30080cf540007003a00780090009d
:100f700001c3b300017578008000e80009f578002e
:100f80000080e800700498007800900000004500a0
:100f9000600498008940780042003700a860900003
:100fa000c0c6b30080cf5000250032000a003c00cc
:100fb0006440500080cf50002800320000c0e8009c
:100fc00080cf5000140032006840500080cf5000a5
:100fd00022003a000a00370040c7b30080cf50001b
:100fe0001e0032006640400080cf50001b003200df
:100ff0006940500080cf500018003a0006003700ca
:101000001480e900000a780010007800485c900025
:1010100008487800450037001480e900000a78008d
:101020001002780068089000cf80de00010178008f
:1010300082017800009abe000292be003b00370099
:101040001480e900000a7800100178006808900018
:10105000cf80de000089be00340037001480e90034
:10106000000a780010007800680c900008087800ea
:101070002e0037001180e900800878001000780009
:10108000cf80de000101780082017800009cbe0064
:101090000294be00780090000000450060049800b3
:1010a00081c7b30008007800980107001f003700cf
:1010b0001480e900000a78001000780060049800ad
:1010c000580990000200e00002003d0047020700be
:1010d000090037008000eb0079fe070080007800ef
:1010e0000000e00003003200680090000080500023
:1010f0000100370058089000100c98000b003700d2
:1011000078009000027578000600370078009000a3
:10111000800045000904e00001003a0059c2b30014
:10112000894878000000e800700498000000eb0097
:101130004f0578004f04be00000006000400fa00ce
:10114000889fbe008a9fbe008c1f78000004780034
:101150000106780070089000f8009000010050002f
:10116000880890000100500098089000010050008d
:10117000a808900001005000b8089000010050003d
:10118000c8089000810550000002220090bf9f0017
:1011900000032300a0bf9f00081090000028a300b8
:1011a00018003a000b00e000160034008b047800b1
:1011b00009057800e28f5400020036002a00200062
:1011c000020037000900e0000b00340058009000d6
:1011d000c80190000a017800ee805700030001006a
:1011e000500498000000e00096003200680890006b
:1011f00000004500600c98008a8454004240a90019
:10120000ebff3c00780190000200e0000b0034008e
:1012100058009000c80190008c0078000300010085
:10122000500498000000e00086003200680890003a
:10123000f800900001004000600c9800880c9000bd
:101240000900e0001500340009057800e28f540021
:10125000020036002a002000020037000900e000ea
:101260000b00340058009000c80190000a0178007b
:10127000ec80570003000100500498000000e000db
:10128000700032006808900000004500600c980073
:101290008a8454004240a900ebff3c0018099000ea
:1012a0000200e0000b003400e800900058009000bd
:1012b000c801900003000100500498000000e00005
:1012c000600032006808900098089000010040001b
:1012d000600c9800a80c90000900e0001500340094
:1012e00009057800e28f5400020036002a00200031
:1012f000020037000900e0000b00340058009000a5
:10130000c80190000a017800ec805700030001003a
:10131000500498000000e0004a0032006808900085
:1013200000004500600c98008a8454004240a900e7
:10133000ebff3c00380990000200e0000d00340093
:10134000e80090001808900080804000580090004d
:10135000c801900003000100500498000000e00064
:101360003800320068089000b80890000100400082
:10137000600c9800c80c90000900e00015003400d3
:1013800009057800e28f5400020036002a00200090
:10139000020037000900e0000b0034005800900004
:1013a000c80190000a017800ec805700030001009a
:1013b000500498000000e00022003200680890000d
:1013c00000004500600c98008a8454004240a90047
:1013d000ebff3c00081090000028a3001b00320027
:1013e0000b00e000190034008b0478000905780038
:1013f000e28f5400020036002a002000020037006d
:101400000900e0000b00340058009000c801900073
:101410000a017800ee805700030001005004980094
:101420000000e0000700320068089000000045005e
:10143000600c98008a8454004240a90003003400e4
:10144000eaff37000080eb00010037000000eb00ee
:101450004f0678004f05be004f04be000080fa0022
:1014600000000600889fbe00e30440000900a100c0
:10147000808f54004a003600e38f540001003e0084
:1014800049002000324d80000200e00002003200de
:10149000820078000c003700819a2000030037009a
:1014a000908f5400230036008080e80011007800ff
:1014b0000000e000faff3a000f003700908f540060
:1014c0001c0036008080e800110078000000e00079
:1014d000faff3a0012017800819a200003003700d9
:1014e000908f5400130036008080e80011007800cf
:1014f000820f5000faff3a00284d8000890f5400f7
:101500000100310009047800080078003e0107005e
:101510000000e00004003a00890f5400200032006f
:101520000804d100f5ff3700081878003d010700d6
:10153000d4ff3700110178009201780064805100d7
:10154000890f5000030031001200900080087800dd
:1015500007003700090041008008780092019000e0
:10156000130098001100780012881400090978000f
:10157000910078000100e0000500320011009000a9
:101580000000e000020032000180e80001003700a6
:101590000000eb00304d88000280e80001003700b9
:1015a0000000eb004f04be0000000600881f78001a
:1015b000a89a20001804e00004003a00e0b62000d9
:1015c0004c01070020c0b300004c78004f047800a5
:1015d00000000600889fbe000004780049fd070057
:1015e000800478000004200018006000020032002f
:1015f000280090000b0107000000eb002004980079
:10160000384090000004e000050035000000fb00b9
:10161000790107000000e000010032008084eb0047
:10162000181090000000e000080032007b01070065
:101630000000e000010032008084eb0018109000f0
:10164000f80007000000eb001014980000082000cc
:1016500018006000100032000000eb00018e200036
:10166000910f1400070032000000e8008180e800bc
:10167000e80f5000faff3a0008007800e900070080
:101680001300370000004000018e200001004000e0
:101690000008eb00f8ff3700000c780000c0eb00fa
:1016a00030449800600220000800400020049800a8
:1016b0004004980050049800400c98006004980082
:1016c000500c98007004980076004400000c9800bc
:1016d000090078004f04be0000000600881f780053
:1016e000e88e2000180078000000e00001003200c1
:1016f000b8ff07000884e900e08d2000800f540047
:10170000f8ff3a004f04780000000600ef02b00036
:10171000889fbe008a9fbe008c9fbe008e1f7800ef
:101720000006780090972000c0b79f0080c5b300e6
:1017300080cf50000800320082962000c2b79f0080
:101740007740400080cf500003003a008300200023
:10175000b3b79f000a00370080c7b30080cf5000a6
:1017600005003200a4002000b4b79f0080c5b3007c
:1017700080cf500002003a0000012000b0b79f0067
:101780003c04be002c05be0040c6b30080cf500014
:10179000030032006540400080cf50000b003a004b
:1017a000e00f5400e08f5c00e00f5d00e08f5d0013
:1017b00006003d006000b8006011b8000804500049
:1017c000898458000a0559008b855900e00f5400a0
:1017d000e08f5c00e00f5d00e08f5d0004003a00e8
:1017e0005c0890008d0120000000e0000c00320039
:1017f000bfb0970001027800cfa2de000503780099
:10180000860378000800be000a01be00a30307009b
:101810004fb2970064407800d0df9f007d01200028
:101820003fb0970000027800cfa2de0005037800e9
:10183000860378000800be000a01be00900307007e
:10184000009ebe000296be000d00e90061fc2f0064
:101850008f804000008740001e0037003fb1970096
:1018600002047800cfc4de00090578008a057800fc
:101870000802be000a03be007fa897008fb0970041
:101880001fb19700afb1970088030700d0b79f0042
:10189000e1b79f00f2b79f0083bf9f008d06e9006c
:1018a0000802be000a03be00060407007faa9700d4
:1018b00000005200cfb09700615778005fb09700ea
:1018c000efb097007fb197008fb99700009ebe00e0
:1018d0000296be003c00be002c01be00f0af9f008f
:1018e00081b79f0092b79f00a3b79f00e00f500001
:1018f000e08f5800e00f5900e08f590002003400db
:101900000d00e000d5ff3c00bfb09700e88f50000d
:1019100010003a000c1090000038a3000d003200b7
:10192000f78f560006003e0062fc2f000f014100b9
:101930008d00410000c3b300914f1000050032003c
:101940008d06e90000c3b30063fc2f008f814100c6
:1019500080f17e0078811600120e98006c009000d5
:1019600063fc2f008f8141008d8041005efc0700e9
:101970001c0990005c089000800f510006003d009b
:1019800002005000000e98000c1090000040a100d2
:10199000001698000f0037000000e0000d003d0029
:1019a0000c10900074006000f00f500009003a0025
:1019b0007c089000fc009000010050008c08900012
:1019c00001005000020050004240a9000100340014
:1019d000000e98004f0778004f06be004f05be006e
:1019e0004f04be00ef02b100000006008000780046
:1019f000010037000000e8001004e000fdff3a009d
:101a000001005000000006000000e0000300340068
:101a10008b000700e10f400001003a000000eb00de
:101a2000000006000000e000310032008080e90084
:101a300091027800e38f52002d0036000508a300c4
:101a40002b003a00424d80000200e000020032000c
:101a5000828f50000400310002087800414d880058
:101a60001600370003017800920190000300e000a7
:101a700002003200818f5100faff39001202780013
:101a800004004100808f500019003900810f500080
:101a900003003a0005094200820078000700370081
:101aa0000300e0000300320005804000808f5100f9
:101ab0000f00390093009800110198001101900067
:101ac0000200e0000a00320011804000820f500046
:101ad00007003a00609a20000008eb001100900017
:101ae00011017800900841001000900090009800cb
:101af0000000060000017800000020000000e00067
:101b000008003200000080000000e0000500320004
:101b10000000e90000008800000040000100800093
:101b200002b07800000006000a00fa008001780088
:101b3000e20f500025003e00e0468000e10f50001b
:101b400008003200802320000000e0000500320081
:101b50000423200025232000462320008001780054
:101b60000400370004222000252220004622200005
:101b700083222000144090000004e00003003500a0
:101b80008009eb0000002800140a70001540900046
:101b90000028a30001003a0015a0a0008001eb007e
:101ba00007003700154090000008a300fdff320039
:101bb00063c078000000fb00000b78008301e800a0
:101bc000828f5100f7ff3a000800370030002000f4
:101bd000b0bf9f00c3bf9f00d1bf9f00e2bf9f0067
:101be0006a80570000c0da006fb9970002007800e1
:101bf0000080fa00000006000a00fa001100200030
:101c0000b1bf9f00c0bf9f006a80570000c0da00cc
:101c10004fb897000080fa00000006000a00fa00a2
:101c200051002000b1bf9f00c0bf9f006a805700d5
:101c300000c0da005fb897000080fa0000000600dc
:101c4000889fbe0080047800de08e20004003a00ad
:101c50000000eb00100007000000e0000a00350063
:101c6000f04680000900e00002003a00000478001d
:101c70000600370000047800090040000600070055
:101c80000000e00001003d000084eb000800780047
:101c90004f04be0000000600800078000000e00055
:101ca00004003a00c09a2000f04688000101780044
:101cb000060037000081eb00c0a22000808f50009a
:101cc00002003e00f14688000001eb0002007800af
:101cd00000000600889fbe008a9fbe008c1f78000f
:101ce000140107001b01330003866c006450e100ff
:101cf000240032006420e100270032006150e1003e
:101d0000220032006120e100210032008b85420078
:101d1000eb07b1000134b800003ab80008044200f3
:101d200089844a00013ab8000030b8008880400039
:101d300009014a000400330000004000818048008f
:101d4000020149008b05e900c909dd00830170002b
:101d50000100320013002000c814de004814dd002a
:101d60004709de001200b200c808de0008847000d7
:101d70000801070001f0a1000cf0a70001f0a0008d
:101d8000fd0037006120e100ff0032000801be00c5
:101d90000200be00f7ff37006150e100fcff3a008f
:101da000f9003700889fbe008a9fbe0001057800b9
:101db0000100e0000400350008003c000000e000e5
:101dc000200032000500370060001000e08018009d
:101dd00002003b0001f02c001a0037000004be0096
:101de0006011b8006b0920000982cf0002003900a1
:101df0000882cf000441b000694252000e00320058
:101e000008003b0082817100610164008904d100f7
:101e10000884d3008b05e8000442e800f9ff3a008b
:101e2000050037000804440089844c008b05e90054
:101e30000442e900fbff3a00d60007000af0a700c1
:101e400001f0a0004f05be004f04be0000000600d8
:101e500003f0a200889fbe008a9fbe008c1f7800fe
:101e6000b4000700bb0033006450e1004f003200b3
:101e70006420e1005200320003826c0007003b0046
:101e80000905d0000306d000820f54000c065d0047
:101e90000200390002003200890178000306780050
:101ea0008582550004003d000003fd008103fd0014
:101eb0008502ea008b854200840f720002003b001d
:101ec00060001000e08018006011b8000005eb0011
:101ed0007a28e1000a00390006007800c75ddd00bd
:101ee000f707b200878075002d00370082817100ee
:101ef0000a017800610560008180d1000080d30074
:101f00008502e900f9ff3b00060440008784480091
:101f100002003b0060041400e0841c000988a30058
:101f2000070032008a8171008281710061016400c2
:101f30008904d1000884d3008b05e800170037001e
:101f40000978a30013003a000b00e00013003400ee
:101f50008b05e9000804440089844c000a4474009d
:101f60000978a3000d003a000b00e00007003400e0
:101f70008b05e9000804440089844c0001003a0004
:101f80000b0020000978a300f7ff32000001eb00ee
:101f900002003700828171000a0178007d0007008d
:101fa0000cf0a70001f0a000730037006420e100ee
:101fb00002003a00838f6c00730033000801be00fa
:101fc0000200be006c003700889fbe008a9fbe00e2
:101fd0008c1f7800570007005e00330003866c00fa
:101fe0006450e1002e0032006420e1003300320032
:101ff0006150e1002f0032006120e1003100320029
:1020000085855500eb07b00009002000080420007a
:10201000050037000804440089844c000a003100a0
:102020000603430087834b000001530081815b005e
:10203000f8ff33000203be000800a00008044400bb
:1020400089844c00f6ff3900c639dd008301730036
:1020500001003200130020008904d1000884d3005d
:102060000998a300050032000800a7000300a000a3
:102070008904d1000884d3008b05e8008904d100cd
:102080000884d3000001eb000281d2004100070068
:1020900001f0a1000cf0a70001f0a000360037000d
:1020a0006420e100380032000801be000200be00da
:1020b000f7ff37006120e100330032006000b80014
:1020c000f3ff37000000200001f82700f0ff370081
:1020d00004002000550037000001eb00a2000700bb
:1020e000040032000200200003f8230001f0a700e2
:1020f00057ff070000000600839f68000100e00012
:1021000002003d0060001000e08018000300e000c5
:1021100002003d0060011100e0811900b9000700d4
:102120004f00e00002003b0060001000e08018005b
:10213000000006000004be00c20007000003be004d
:102140000405be000200be00be000700844f7500fb
:10215000000006000200be006450e10005003600e9
:102160006420e100020036000968a30001003a0083
:102170000800be000160a0004f0678004f05be00b9
:102180004f04be0000000600f0ff2f00f1ff270003
:10219000f9ff370081002000618055000b003d00f1
:1021a0000b00200061fe2f000100e1001d00340043
:1021b00082817100610164008904d1000884d30028
:1021c0000000e800faff3a0071002000610064009e
:1021d0000300700002006000090032006104440046
:1021e000e0844c000988a500050032008b05e8005a
:1021f0006808e10002003a008904d1000884d30095
:10220000f20f20000258e10005003d00c75ddd002f
:10221000f907b20089807500080078000000060008
:102220000bf827008b00780000000500889fbe0097
:102230008a9fbe008c1f78004f26dd00bdff07007f
:10224000c4ff33006120e100430032006250e1002e
:1022500041003e003e0039006420e1003c003200b5
:10226000058255000f003b000402e80038003a00e8
:10227000800f5300818f5b00350034000800be00e2
:1022800003f0a10001f0a60003f0a0000cf0a700ed
:10229000f0fe0700b8ff37000603430087834b00ba
:1022a0000c4646000005530081855b0002003300a8
:1022b0000a03be000c00a0000402e900f6ff3b0088
:1022c000850578000602430087824b0004003a002f
:1022d0006000b80009f0a70001f0a000a6ff3700d9
:1022e0000002520081825a000704e000040033001b
:1022f0000603430087834b008b05e900faff370094
:10230000090578000604be000203be006011b80093
:10231000a0ff0700e00f5200e08f5a0007003500d1
:1023200002003c000c08a300040032000601be00bd
:1023300003f0a0000cf0a700c6fe07000a856800a5
:1023400001f0a1000af0a70001f0a0008aff370009
:102350000800be0088ff3700100220000cf0a60025
:10236000d046880088ff3700889fbe008a9fbe0045
:102370000003be003300070085057800828152000b
:10238000020020006220e10004003a00f307b100df
:10239000040035007718e100040035000600be0097
:1023a000140037006000b8000f003700f50f200060
:1023b000faff2f008502d1000a85d3008301e900ce
:1023c000fcff3b008184620000046500890f7400fb
:1023d000f2ff32008582ea000a85ea008184620009
:1023e000000465006bff070007f0a70001f0a000e4
:1023f0000081eb000200e0004f05be004f04be006c
:10240000000006006022b800060220000000d00094
:102410008180d2000482d2008582d2000000a00018
:102420000202520083825a0003003100020242007d
:1024300083824a000000a1000603e900f3ff3a008e
:1024400000000600c70ade00f107b200f50fb20077
:1024500008003200e1cf4200020032000170a0000b
:1024600024000500810f70000100320004080500ff
:1024700044000500810f700002003a0014000500be
:102480008502e9000000400081c04800fcff3b00dd
:102490000170a00024000500881f78000004780067
:1024a0005001be004000be0004004000858048008e
:1024b0000601490087814900009cbe000294be00cd
:1024c0000400e1000588e1000690e1000798e100c2
:1024d00002003100680044001008e8004f04780052
:1024e00000000600f4874700889fbe008a9fbe0058
:1024f0008c9fbe008e1f78000205be000004be0047
:10250000d4b79f00e5b79f00f6b79f0087bf9f0035
:102510000000eb00c0b79f00b0b79f00a0b79f00be
:1025200090b79f0080b79f000d042000bfb09700b8
:102530004fb09700000140000000e0000f003d0098
:102540004f08de0000007100c0b79f009e0007002a
:1025500001003d0012002000a100070001003d0025
:1025600012002000a6000700b1000700b600070017
:102570000f004000c8ff0700220037004f08de00b0
:1025800000067100ccb79f008f00070001003d00de
:10259000120020009200070001003d001200200000
:1025a00097000700a20007000fb297009fb29700a4
:1025b0002fb39700bfb39700a90007000000520097
:1025c00081805a0002015b0083815b0080b79f001d
:1025d00091b79f00a2b79f00b3b79f000007eb0021
:1025e0009f0007000020e10001a8e10002b0e10027
:1025f00003b8e100010031001e0020000e0056006b
:10260000c0b79f004fb297000400e00007003500fc
:1026100010002000010020006011b80008047000c4
:10262000898470000a0571008b8571008d06e900b0
:10263000beff3a000400e00003003d0082000700f6
:102640000f00400094ff07004fa897000000e00033
:1026500004003a000fb497009fb497002fb597007d
:10266000bfb59700940007004f0778004f06be00e3
:102670004f05be004f04be004f01b1000000060030
:10268000881f780018002000881f780095ff070039
:102690008f87e9004f04780000000600801feb00e0
:1026a00090ff07008f87e90000000600889fbe00aa
:1026b0008a9fbe008c1f78006e00070007003d0057
:1026c00073000700e00f5b00e08f5b0007003d0038
:1026d000320007000006eb0004003700340007005a
:1026e00002003d002a0007001c00200072000700c5
:1026f000e3ff07000203be000002be000c00e00082
:1027000001003200220007000400be000601be00e6
:102710004f0678004f05be004f04be0000000600c3
:10272000889fbe008a9fbe008c1f78005100070062
:1027300005003d0056000700e00f5b00e08f5b00e6
:1027400006003d00040037001900070003003d00ab
:102750006000b8006011b8001000070056000700c4
:10276000ceff07000203be000002be000c00e00026
:1027700001003200060007000400be000601be0092
:102780004f0678004f05be004f04be000000060053
:102790006000b8006011b80000003700040250006b
:1027a00085825800060359008783590000000600ff
:1027b0000006eb00e00f5200e08f5a00e00f5b00d4
:1027c000e08f5b00000006000180400090b79f0092
:1027d0000001eb008fb097000100e0000000060050
:1027e0000200700090b79f000180400080b79f00fa
:1027f0000001eb00ffa897000100e00000000600c8
:102800000200700080b79f00018040006faa97000f
:10281000cf20de0001007000f0af9f0004024200f4
:10282000250007004f18de000002720000000600bd
:10283000e4af9f000804440089844c000a054d0061
:102840008b854d00000006003fb29700cfb2970085
:102850005fb39700efb3970000fe2f000000060063
:102860003fb09700cfb097005fb19700efb19700ee
:10287000000006000205be000004be00e00f50008c
:10288000e08f5800e00f5900e08f5900000006006b
:102890006000b8006011b800080450008984580036
:1028a0000a0559008b8559001c002000e00f5200da
:1028b000e08f5a00000006000800be000a01be00ba
:1028c00000000600889fbe008a9fbe008c1f780013
:1028d0000205be000004be000006eb00e00f500041
:1028e000e08f5800e00f5900e08f590007003d00cd
:1028f0006000b8006011b8000804500089845800d6
:102900000a0559008b8559001c002000e00f520079
:10291000e08f5a00e00f5b00e08f5b0002003d009b
:102920000f0007000c00a2000800be000a01be0054
:10293000120007000203be000002be000c00e0000f
:1029400001003200060007000400be000601be00c0
:102950004f0678004f05be004f04be000000060081
:102960006000b8006011b800040250008582580071
:10297000060359008783590000000600889fbe00a7
:102980008a9fbe008c9fbe000404b8000506b800f4
:102990008904460060854e000606b8000a05460018
:1029a000e0854e000706b8008b054600040eb8000f
:1029b000890446000a854e00e0854d00050eb800ea
:1029c0000a0546008b854e00060eb8008b054600b2
:1029d0000416b8000a0546008b854e000516b8009f
:1029e0008b054600041eb8008b0546000800be009b
:1029f0000a01be004f06be004f05be004f04be00d8
:042a000000000600cc
:020000040000fa
:0200000401f009
:04000c00fbff0000f6
:020000040000fa
:0200000401f009
:04001000bdff000030
:020000040000fa
:10000800ae2300001c2000003c2000005e20000001
:1000180080200000ae230000ae230000ae230000c5
:10002800ae230000ae230000ae230000ae23000084
:10003800ae230000ae230000ae230000ae23000074
:10004800ae230000ae230000ae230000ae23000064
:10005800ae230000ae230000ae230000ae23000054
:10006800ae230000ae230000ae230000ae23000044
:10007800ae230000ae230000ae230000ae23000034
:10008800ae230000ae230000ae230000ae23000024
:10009800ae230000ae230000e81c0000ae230000e1
:1000a800ae230000ae230000ae230000ae23000004
:1000b800ae230000ae230000ae230000ae230000f4
:1000c800ae230000ae230000ae230000ae230000e4
:1000d800ae230000ae230000ae230000ae230000d4
:1000e800ae230000ae230000ae230000ae230000c4
:1000f800ae230000ae230000ae230000ae230000b4
:10010800ae230000ae230000ae230000ae230000a3
:10011800ae230000ae230000ae230000ae23000093
:10012800ae230000ae230000ae230000ae23000083
:10013800ae230000ae230000ae230000ae23000073
:10014800ae230000ae230000ae230000ae23000063
:10015800ae230000ae230000ae230000ae23000053
:10016800ae230000ae230000ae230000ae23000043
:10017800ae230000ae230000ae230000ae23000033
:10018800ae230000ae230000ae230000ae23000023
:10019800ae230000ae230000ae230000ae23000013
:1001a800ae230000ae230000ae230000ae23000003
:1001b800ae230000ae230000ae230000ae230000f3
:1001c800ae230000ae230000ae230000ae230000e3
:1001d800ae230000ae230000ae230000ae230000d3
:1001e800ae230000ae230000ae230000ae230000c3
:0801f800ae230000ae2300005d
:020000040000fa
:10020800ae230000a2200000c2200000e42000006d
:1002180006210000ae230000ae230000ae2300003c
:10022800ae230000ae230000ae230000ae23000082
:10023800ae230000ae230000ae230000ae23000072
:10024800ae230000ae230000ae230000ae23000062
:10025800ae230000ae230000ae230000ae23000052
:10026800ae230000ae230000ae230000ae23000042
:10027800ae230000ae230000ae230000ae23000032
:10028800ae230000ae230000ae230000ae23000022
:10029800ae230000ae230000e81c0000ae230000df
:1002a800ae230000ae230000ae230000ae23000002
:1002b800ae230000ae230000ae230000ae230000f2
:1002c800ae230000ae230000ae230000ae230000e2
:1002d800ae230000ae230000ae230000ae230000d2
:1002e800ae230000ae230000ae230000ae230000c2
:1002f800ae230000ae230000ae230000ae230000b2
:10030800ae230000ae230000ae230000ae230000a1
:10031800ae230000ae230000ae230000ae23000091
:10032800ae230000ae230000ae230000ae23000081
:10033800ae230000ae230000ae230000ae23000071
:10034800ae230000ae230000ae230000ae23000061
:10035800ae230000ae230000ae230000ae23000051
:10036800ae230000ae230000ae230000ae23000041
:10037800ae230000ae230000ae230000ae23000031
:10038800ae230000ae230000ae230000ae23000021
:10039800ae230000ae230000ae230000ae23000011
:1003a800ae230000ae230000ae230000ae23000001
:1003b800ae230000ae230000ae230000ae230000f1
:1003c800ae230000ae230000ae230000ae230000e1
:1003d800ae230000ae230000ae230000ae230000d1
:1003e800ae230000ae230000ae230000ae230000c1
:0803f800ae230000ae2300005b
:020000040000fa
:102a040041200000427200006f7700006e2d00002c
:102a14006f750000742000005265000073650000ab
:102a24007420000068610000732000006f630000e0
:102a34006375000072720000656400000d0a0000f6
:102a440000410000204d0000617300007465000027
:102a540072200000436c00006561000072200000d9
:102a640028700000696e00002920000052650000f3
:102a7400736500007420000068610000732000008a
:102a84006f630000637500007272000065640000eb
:102a94000d0a000000440000657600006963000030
:102aa400652000007761000073200000696e00005b
:102ab40020490000646c0000652000006d6f000078
:102ac400646500000d0a0000004100006e20000053
:102ad400696c00006c650000676100006c200000f8
:102ae4006f700000636f00006465000020640000e4
:102af4006574000065630000746900006f6e000077
:102b04002c200000616e0000206900006c6c000045
:102b140065670000616c00002061000064640000cf
:102b24007265000073730000206d00006f64000084
:102b3400652000006f720000207500006e690000bf
:102b44006e69000074690000616c0000697a00001d
:102b540065640000205700002072000065670000d3
:102b64006973000074650000722000007573000032
:102b7400656400002061000073200000616e0000a5
:102b8400204100006464000072650000737300005b
:102b9400205000006f6900006e7400006572000030
:102ba400206300006175000073650000642000006c
:102bb400612000005265000073650000740d000080
:102bc4000a00000041200000506f000077650000fb
:102bd400722d000075700000205200006573000023
:102be400657400002068000061730000206f00001d
:102bf400636300007572000072650000640d0000dc
:102c04000a00000044650000766900006365000066
:102c14002068000061730000206200006565000008
:102c24006e200000696e0000205300006c650000f7
:102c340065700000206d00006f640000650d0000e9
:102c44000a0000005744000054200000697300008b
:102c5400206500006e610000626c00006564000085
:102c64000d0a0000004100002052000045530000fe
:102c740045540000206900006e7300007472000067
:102c840075630000746900006f6e00002068000026
:102c94006173000020620000656500006e20000082
:102ca40065780000656300007574000065640000c9
:102cb4000d0a000000410000205400007261000071
:102cc40070200000436f00006e6600006c69000015
:102cd40063740000205200006573000065740000f6
:102ce4002068000061730000206f0000636300002f
:102cf4007572000072650000640d00000a00000097
:102d04005744000054200000746900006d65000001
:102d14002d6f0000757400002068000061730000ce
:102d2400206f00006363000075720000726500008c
:102d3400640d00000a0000004f7300006369000086
:102d44006c6c0000617400006f720000206500006c
:102d5400727200006f720000210a00000d00000072
:102d64004164000064720000657300007320000079
:102d740065720000726f0000722100000a0d0000ed
:102d84000053000074610000636b000020650000c4
:102d9400727200006f720000210a00000d00000032
:102da4004d6100007468000020650000727200002c
:102db4006f720000210a00000d0000007469000019
:102dc4006d6500006f750000742e00002e2e00004b
:102dd40000240000504d0000544b00003235000028
:102de400312c000031310000353200003030000059
:102df4002a310000460d00000a00000024500000a3
:102e04004d5400004b330000313400002c300000de
:102e14002c3100002c3000002c3100002c3000003c
:102e24002c3000002c3000002c3000002c3000002e
:102e34002c3000002c3000002c3000002c3000001e
:102e44002c3000002c3000002c3000002c3000000e
:102e54002c3000002c3000002a320000380d000015
:102e64000a000000245000004d5400004b320000c2
:102e7400323000002c320000303000002a320000d2
:102e8400430d00000a000000245000004d540000cf
:102e94004b310000303100002a33000032000000c2
:102ea4000d0a0000496e00006974000069610000a9
:102eb4006c6900007a6900006e670000204700001a
:102ec400505300002e2e00002e000000646f0000fe
:102ed4006e6500000a0d0000002e000000000000d6
:020000040000fa
:102ee4000200fa00000f78001e0078005d00070061
:102ef40040468000e10f400006003a006046800032
:102f04000000e00003003a00a000200001002000bf
:102f1400bb03070040468000e10f400006003a0072
:102f2400604680000000e00003003a002003200017
:102f340001002000b203070040468000e10f40007a
:102f440006003a00604680000000e00003003a00fa
:102f54004006200001002000a9030700404680002d
:102f6400e10f400006003a00604680000000e000e7
:102f740003003a00800c200001002000a003070099
:102f840040468000e10f400006003a0060468000a1
:102f94000000e00003003a000019200001002000b6
:102fa4009703070040468000e10f400006003a0006
:102fb400604680000000e00003003a000032200078
:102fc400010020008e03070040468000e10f40000e
:102fd40006003a00604680000000e00003003a006a
:102fe400803e200001002000850307004046800049
:102ff400e10f400009003a00604680000000e00054
:1030040006003a00006e29008d05070000202c0000
:1030140011002000fe040700010037001a00070019
:103024000080fa00000006000200fa00404680001a
:10303400e10f400003003a00604680000000e00019
:103044000300320010002000000f78000200370057
:103054000000eb00000f78001e0078000080fa00ea
:10306400000006000200fa00000f78001e0078003d
:103074001000be00e604070087c0a90097c0a8009e
:103084000080fa00000006000000fa00b06e29007b
:1030940015050700a00020000100200058030700c8
:1030a40000202c0011002000d90407000070290022
:1030b4000d050700a00020000100200050030700b8
:1030c400a0002000010020004d03070040732900e8
:1030d400050507000080fa00000006002400fa003d
:1030e400000037000e007800e00007000004e00054
:1030f400fcff32001e109000e10f5000010032006e
:10310400f8ff37000080fa00000006000400fa000f
:10311400004f7800f0c2b3009e4f10000800340046
:1031240090c3b3009e4f100005003c009e00fb00be
:1031340000fd2f0080804000110798001800370020
:1031440000c4b3009e4f10000800340060c4b300f4
:103154009e4f100005003c009e00fb0090fc2f00d9
:1031640080804000110798000d00370000c6b300ae
:103174009e4f10000800340060c6b3009e4f10003c
:1031840005003c009e00fb0090fa2f008080400068
:1031940011079800020037000000eb0010079800a8
:1031a4001e0090000080fa00000006000000fa00f3
:1031b40060742900cc040700d0c0b300e004070009
:1031c400a0c0b300de0407000080fa00000006007f
:1031d4000a00fa00400798000000eb00300798004e
:1031e4006000b80010079800210798003e00900086
:1031f400800078004e00900000804000104f78005e
:103204003e0090000000e80030079800f0c2b300d0
:103214009e4f10001700340090c3b3009e4f10005f
:1032240014003c009e009000a0002000000ab8009a
:103234001e0090006000b900050178000001410003
:103244002e0090006a00b90000014100820278005b
:103254009e00fb0000fd2f0000804000cf80de00b8
:10326400040040008580480010079800210798005a
:10327400deff37001e009000ae0090000080fa00d0
:10328400000006001200fa00889fbe00000f98009c
:103294000000eb00700798006000b8005007980029
:1032a400610798006000b800300798004107980053
:1032b4000000200001122400100798002107980044
:1032c4007e009000800078000e089000008040008e
:1032d400104f78007e0090000000e800700798000e
:1032e400f0c2b3009e4f10001400340090c3b3002a
:1032f4009e4f100011003c005e009000ee00900014
:10330400020020000312240071fa07000004be002a
:103314009e00fb0000fd2f0000804000cf80de00f7
:103324009ffa07000001be000800be00c8fa0700ab
:103334005007980061079800e1ff3700e0c2b3002e
:103344009e4f100024003a007e0090008000780018
:103354000e08900000804000104f78007e0090001e
:103364000000e80070079800f0c2b3009e4f100000
:103374001900340090c3b3009e4f100016003c00a7
:103384009e00fb0000fd2f0000804000cf80de0087
:1033940083fa07001e019000ae01900009fb0700ac
:1033a4000001be003e009000ce009000a8fa070085
:1033b40030079800410798001e009000ae0090006e
:1033c400020020000312240041fa070010079800ad
:1033d40021079800dcff37003e019000ce019000e9
:1033e4005e009000ee00900099fa07004f04be00c2
:1033f4000080fa00000006000c00fa004007980064
:103404005107980002002000832c24004e009000f5
:10341400de0090002dfb070002002000032724009b
:10342400e8fa070020079800310798004e00900042
:10343400de00900002002000832c2400e1fa070043
:1034440024fb0700008fbe002e019000be019000f7
:103454001e00be007efa070052a32f00e3c823001b
:103464001bfa07000080fa00000006001800fa00aa
:103474002007980051468000a0468000808f5000ad
:103484008900320040862000100798001e0090003a
:10349400904078000040eb0070579800c0c2b30021
:1034a40080cf50000200320010c0b3007057980063
:1034b4001e0090000000e800100798007e50900065
:1034c4000004e000f1ff3a001e00900090407800f4
:1034d4000040eb0060579800c0c2b30080cf50009a
:1034e4000200320010c0b300605798001e00900024
:1034f4000000e800100798006e5090000004e000ff
:10350400f1ff3a001e009000904078000040eb006c
:1035140050579800c0c2b30080cf50000200320060
:1035240010c0b300505798001e0090000000e8003f
:10353400100798005e5090000004e000f1ff3a008c
:103544001e009000904078000040eb004057980027
:10355400c0c2b30080cf50000200320010c0b300dc
:10356400405798001e0090000000e80010079800e3
:103574004e5090000004e000f1ff3a001e0090005d
:10358400904078000040eb0030579800c0c2b30070
:1035940080cf50000200320010c0b30030579800b2
:1035a4001e0090000000e800100798003e509000b4
:1035b4000004e000f1ff3a001e0090009040780003
:1035c4000040eb0020579800c0c2b30080cf5000e9
:1035d4000200320010c0b300205798001e00900073
:1035e4000000e800100798002e5090000004e0004e
:1035f400f1ff3a001e009000f5fe070080007800fd
:103604002e009000610098001e0090009040780009
:103614000040eb0010579800c0c2b30080cf5000a8
:103624000200320010c0b300105798001e00900032
:103634000000e800100798001e5090000004e0000d
:10364400f1ff3a001e009000904078000040eb002b
:1036540000579800c0c2b30080cf5000020032006f
:1036640010c0b300005798001e0090000000e8004e
:10367400100798000e5090000004e000f1ff3a009b
:103684001e009000d2fe0700800078002e009000fb
:103694007100980050468000a04688000000eb00ae
:1036a40070079800c600370041468000b04680008d
:1036b400808f5000c000320000802000000f78008e
:1036c4001e007800c2fe07002e0190000089be0093
:1036d4001e007800904078000040eb00504f9800a6
:1036e400c0c2b30080cf50000200320010c0b3004b
:1036f400504f98001e0fe8005e4890000004e00060
:10370400f3ff3a001e0078009040780010c4b30024
:1037140080cf50000c003a002e0090001000be0034
:103724002e0190004001980051019800414680000c
:103734002e00900001109800ae00900010002000b0
:103744009010980003003700ae0090000000eb00da
:10375400901098001e007800904078000040eb0024
:10376400404f9800c0c2b30080cf50000200320026
:1037740010c0b300404f98001e0fe8004e48900060
:103784000004e000f3ff3a001e007800bdfe0700cd
:1037940019ff07002e0190000009980011099800f4
:1037a4001e007800904078000040eb00304f9800f5
:1037b400c0c2b30080cf50000200320010c0b3007a
:1037c400304f98001e0fe8003e4890000004e000cf
:1037d400f3ff3a001e0078009040780030c5b30033
:1037e40080cf500007003a002e009000900890000f
:1037f4000008900001f0a2002e019000000998003a
:10380400110998001e007800904078000040eb00f9
:10381400204f9800c0c2b30080cf50000200320095
:1038240010c0b300204f98001e0fe8002e489000ef
:103834000004e000f3ff3a001e00780091fe070048
:10384400edfe07002e019000200998003109980030
:103854001e007800904078000040eb00104f980064
:10386400c0c2b30080cf50000200320010c0b300c9
:10387400104f98001e0fe8001e4890000004e0005e
:10388400f3ff3a001e0078009040780070c5b30042
:1038940080cf500007003a002e009000b00890003e
:1038a4002008900001f0a2002e0190002009980049
:1038b400310998001e007800904078000040eb0029
:1038c400004f9800c0c2b30080cf50000200320005
:1038d40010c0b300004f98001e0fe8000e4890007f
:1038e4000004e000f3ff3a001e00780065fe0700c4
:1038f40082fb2a0033f02300f5f807002e01900024
:1039040040099800510998001e0078009040780002
:103914000040eb0070479800c0c2b30080cf500055
:103924000200320010c0b300704798001e0fe80078
:103934007e4090000004e000f3ff3a001e0078008f
:1039440050fe070052a32f00e3c82300e0f807004d
:103954002e01900060099800710998001e007800fb
:10396400904078000040eb0060479800c0c2b3006c
:1039740080cf50000200320010c0b30060479800ae
:103984001e0fe8006e4090000004e000f3ff3a00d0
:103994001e0078000efe07002e0190002001980002
:1039a4003101980040468000b04688001000200095
:1039b40070079800020037000000eb0070079800c1
:1039c4007e0090000080fa000000060000a0fe00c7
:1039d4003600f800849fbe00869fbe00881f7800d2
:1039e4003400f80004c0b300a40188000600fa0003
:1039f400b0118000004f78001e40780022030700b9
:103a040040c2b3009e4f100005003a001000200091
:103a1400804688000000eb0090468800d8003700fc
:103a2400a0c2b3009e4f10000c003a0080468000f4
:103a3400e70f500003003a0020062000804688006b
:103a4400cf00370080468000eb0f5000cc003a00d6
:103a5400a005200080468800c90037008146800008
:103a6400a0052000808f500009003a00984680008d
:103a74001e407800a5fd07004400dd00000054004e
:103a840090468800b005200080468800bc003700be
:103a940081468000b0052000808f500015003a0058
:103aa4007246800040862000800041000040eb0008
:103ab400804878000200e80070468800984680003c
:103ac4001e40780091fd07000000540090468800d5
:103ad400904680000000e00003003a005046800059
:103ae4000000e80050468800c00520008046880099
:103af400a30037008146800020062000808f5000fc
:103b040009003a00984680001e4078007ffd0700b7
:103b14004400dd0000005400904688003006200078
:103b240080468800960037008146800030062000d9
:103b3400808f500015003a0062468000008020000b
:103b4400800041000040eb00804878000200e8005b
:103b540060468800984680001e4078006bfd070090
:103b64000000540090468800904680000000e00069
:103b740003003a00404680000000e8004046880008
:103b840040062000804688007d0037009e80fb00b0
:103b9400904680000080680090468800804680003f
:103ba4006101b8000080eb008080eb00020140005e
:103bb400838148001207980023079800a000200082
:103bc400010020001e019000ae019000800f510002
:103bd400818f590066003e001e009000ae009000e8
:103be400006001000a0037000f003700140037009e
:103bf4001f00370024003700290037003000370049
:103c04003b00370040003700450037004c003700c8
:103c140070c4b3009e4f100059003a0020002000e9
:103c2400804688005600370000c5b3009e4f100040
:103c340053003a00300020008046880050003700ce
:103c440020c5b3009e4f100003003a00400020003e
:103c5400804688004a00370070c4b3009e4f1000ad
:103c640047003a0080002000804688004400370066
:103c7400d0c4b3009e4f100041003a005000200011
:103c8400804688003e00370030c4b3009e4f1000c9
:103c94003b003a006000200080468800380037006e
:103ca400c0c2b3009e4f100035003a0070002000df
:103cb400804688000000eb00604688003000370032
:103cc4006146800030062000808f50002c003c00ac
:103cd400614680001e417800008020000080400082
:103ce400024878000100e80060468800240037009c
:103cf40070c4b3009e4f100021003a0090002000d1
:103d0400804688001e00370010c4b3009e4f100088
:103d14001b003a00a00020008046880018003700ed
:103d2400c0c2b3009e4f100002003a00b000200051
:103d3400804688000000eb007046880010003700c1
:103d44007146800030062000808f50000c003c003b
:103d5400714680001e4178004086200000804000ab
:103d6400024878000100e80070468800040037002b
:103d74000000eb00604688000000eb0070468800fd
:103d840087c0a9000080fa003400f9004f047800cd
:103d94004f03be004f02be003600f9000080fe0053
:103da400004006000000fa0083e0a90040a7a90033
:103db400417420009140780000ceb30000c0600040
:103dc40044e7b70044c7bf00f043b20044e7b7007c
:103dd400313a800000e02f0000806000e104200000
:103de40001007000303a8800003a8000c046880024
:103df4000000eb00003a88000080fa000000060092
:103e04000800fa002007980031079800ae009000df
:103e140050d020000009b8002e0090006000b900c6
:103e24000302780000024200be00900050d020003f
:103e34000088b9000002420084017800028fbe00ad
:103e4400050037000060fe000080eb008080eb007e
:103e54001e0f40005e9748001e00be00e00f500099
:103e6400e08f5800f7ff3a000080fa0000000600d7
:103e74000800fa002007980031079800ae0090006f
:103e840030002000000ab8002e0090006000b90045
:103e940005017800000141003e0090006300b90074
:103ea4000001410082027800048fbe000500370043
:103eb4000060fe000080eb008080eb001e0f4000dd
:103ec4005e9748001e00be00e00f5000e08f5800cf
:103ed400f7ff3c000080fa00000006000000fa0032
:103ee400c0468000620060000000e0000200320072
:103ef40020502900d2010700c0468000010820009c
:103f0400010060000000e00002003200305229008d
:103f1400cb010700c0468000640060000000e000a0
:103f240002003200d0542900c5010700c0468000b9
:103f340001002400010060000000e00002003200e3
:103f440070562900be010700c04680006100600071
:103f54000000e00002003200405e2900b8010700c2
:103f6400c0468000680060000000e00002003200eb
:103f740040602900b2010700c04680000102200011
:103f8400010060000000e0000200320040622900ed
:103f9400ab010700c046800001042000010060005e
:103fa4000000e0000200320050632900a401070071
:103fb400c046800001002800010060000000e0000d
:103fc40002003200d06529009d010700c046800030
:103fd400700060000000e000020032002068290048
:103fe400970107000080fa00000006000200fa00b2
:103ff400c046800001082000010060000000e000cd
:1040040007003a00c0468000610060000000e00044
:1040140003003a0010002000000f7800020037006f
:104024000000eb00000f78001e0078000080fa000a
:10403400000006003600f800809fbe00829fbe008c
:10404400849fbe00869fbe000000fa008020a90065
:10405400e06929007a0107000080fa004f03be00de
:104064004f02be004f01be004f00be003600f900f3
:10407400004006003600f800809fbe00829fbe000c
:10408400849fbe00869fbe000000fa008060a900e5
:10409400206b29006a0107000000fe000080fa007e
:1040a4004f03be004f02be004f01be004f00be00d2
:1040b4003600f900004006003600f800809fbe007c
:1040c400829fbe00849fbe00869fbe000000fa004f
:1040d4008040a900306c2900590107000000fe004f
:1040e4000080fa004f03be004f02be004f01be0025
:1040f4004f00be003600f900004006003600f8000c
:10410400809fbe00829fbe00849fbe00869fbe002b
:104114000000fa008080a900206d290048010700f2
:104124000000fe000080fa004f03be004f02be00f4
:104134004f01be004f00be003600f90000400600eb
:104144003600f800809fbe00829fbe00849fbe00a0
:10415400869fbe000000fa008020a900e0692900c3
:10416400370107000080fa004f03be004f02be0073
:104174004f01be004f00be003600f90000400600ab
:104184003600f800809fbe00829fbe00849fbe0060
:10419400869fbe000000fa008060a900206b290001
:1041a400270107000000fe000080fa004f03be0054
:1041b4004f02be004f01be004f00be003600f900a2
:1041c400004006003600f800809fbe00829fbe00bb
:1041d400849fbe00869fbe000000fa008040a900b4
:1041e400306c2900160107000000fe000080fa0070
:1041f4004f03be004f02be004f01be004f00be0081
:104204003600f900004006003600f800809fbe002a
:10421400829fbe00849fbe00869fbe000000fa00fd
:104224008080a900206d2900050107000000fe0020
:104234000080fa004f03be004f02be004f01be00d3
:0c4244004f00be003600f90000400600ec
:020000040000fa
:10425000c80800001000000002000000ffffff007f
:10426000ff0000000000000000000000ffffff0052
:10427000ff00000000080000c8000000000000006f
:10428000d80800000200000000000000da0800006a
:104290000200000000000000e008000088000000ac
:1042a000020000004009180009f0080000000000aa
:1042b00000000000000000000002080002021600da
:1042c0000917090016091600091609001609060043
:1042d00009000000000000000000000000000000d5
:1042e00000000000000000000000000000000200cc
:1042f000080101003e093f00093e09003e093e0059
:10430000093e09002e090000000000000000000026
:10431000000000000000000000000000000000009d
:104320000000000001000000006609006709660047
:1043300009660900660966000956090000000000c8
:10434000000000000000000000000000000000006d
:104350000000000000000000000000008a090000ca
:104360001200000002000000010002000004000032
:104370000800100000000000202b2d00233000005a
:104380009c0900000800000002000000686a6c0040
:10439000747a4c0000000000a40900000600000030
:1043a000020000000400000000000000aa09000054
:1043b0000200000000000000680900002200000068
:1043c0000200000030313200333435003637380017
:1043d0003961620063646500660030003132330089
:1043e00034353600373839004142430044454600f1
:1043f00000000000dc0800000200000002000000d5
:1044000001000000de0800000200000000000000c3
:0444100000000000a8
:020000040000fa
:104414000400fa00008fbe0031e2a90031a2a90015
:104424003182a9003162a800112320009140780054
:10443400c0cfb30000c0600031e2b70030e2a90091
:1044440030c2a90030a2a9003082a9003062a900bc
:10445400012320009140780090cfb30000c0600099
:1044640030e2b7003002a9001e00be004409dd009e
:10447400cc01de00830171004401dd0000a02500b1
:10448400212620001bf707000000e900c011880066
:1044940033e2a90033c2a90033a2a9003362a90000
:1044a4003342a80032c2bf00f043b20032e2b70088
:1044b40032a2a900004024009005880031e2a8003f
:1044c4003342a800dea2a9000080fa000000060022
:1044d4000000fa0032c2bf00614060000080fb00af
:1044e4000080fa00000006000200fa00000f7800c5
:1044f4000900370033c2bf00624060000004e000de
:10450400fcff3a001e007800104078000000fb0019
:10451400a01188001e0fe8001e00780010407800eb
:104524000004e000f3ff3a0033c2bf0062406000c1
:104534000004e000fcff3a000080fa0000000600de
:104544000200fa00004f78001e00fb00a011880052
:104554000080fa00000006000000fa00b01180009c
:104564000000fb000080fa00000006000400fa00ce
:10457400008fbe0021e2a90021a2a9002182a90086
:104584002162a8001122200091407800c0cfb3001e
:1045940000c0600021e2b70020e2a90020c2a90007
:1045a40020a2a9002082a9002062a90001222000e3
:1045b4009140780090cfb30000c0600020e2b700c3
:1045c4002002a9001e00be004409dd00cc01de006b
:1045d400830171004401dd0000a025002126200094
:1045e400c4f607000000e9004011880023e2a90096
:1045f40023c2a90023a2a9002362a9002342a80080
:1046040022c2bf00f043b20022e2b70022a2a900f6
:10461400004024009005880021e2a8002342a8005d
:104624000080fa00000006000000fa0022c2bf0069
:10463400614060000080fb000080fa00000006007a
:104644000200fa00000f78000900370023c2bf00ff
:10465400624060000004e000fcff3a001e007800a5
:10466400104078000000fb00201188001e0fe800b5
:104674001e007800104078000004e000f3ff3a00c8
:104684000080fa00000006000200fa00004f7800e3
:104694001e00fb00201188000080fa0000000600c4
:1046a4000000fa00301180000000fb000080fa00d6
:1046b400000006002e00fa0000602900010020001e
:1046c4003017980041179800b6fd070000202c0011
:1046d40011002000a5ff0700a00020000100200019
:1046e400c7fd070020752900801f78009aef070096
:1046f4008f87e9003e109000ce10900044ff070021
:1047040080762900801f780093ef07008f87e900e7
:1047140087c0a90097c0a8000000370022c2bf00cc
:10472400614060000004e000fcff320030118000b2
:10473400a0118800f0762900801f780086ef07001a
:104744008f87e90033c2bf00624060000004e000cc
:08475400fcff3a00f1ff370001
:020000040000fa
:04475c000000fe005b
:00000001FF
