:020000040000fa
:080000000002040000000000f2
:020000040000fa
:100400002f80200000ff270000018800000000006e
:100410000a00070011000700000020000000e000b3
:10042000020032000000020000000000c80a0200c2
:10043000000000000040da000000fe004440a90077
:10044000801f20000000e0000300320000002000b8
:10045000a00188004440a80000000600e0c1200080
:10046000010020001500370062004000e0804800d5
:10047000910188009001ba0062004000e0804800cd
:10048000910188009002ba0062004000e0804800bc
:100490000002eb006028e10004003a000059eb0084
:1004a0008301e900fdff3e00040037006128e10000
:1004b000010032000082eb00050007009101880076
:1004c0001001ba000200e000e7ff3a00000005005a
:1004d000910188008002780062004000e0804800be
:1004e0003559ba008301e900080032002559ba00e5
:1004f0008301e900050032000400e000f4ff32004f
:1005000015d9ba008301e900f1ff3a0000000600a6
:10051000889fbe008a9fbe00010578000100e000b0
:100520000400350008003c000000e000200032001c
:100530000500370060001000e080180002003b005a
:1005400001f02c001a0037000004be006011b80052
:100550006b0920000982cf00020039000882cf0019
:100560000441b000694252000e00320008003b0016
:1005700082817100610164008904d1000884d30084
:100580008b05e8000442e800f9ff3a000500370057
:100590000804440089844c008b05e9000442e9000a
:1005a000fbff3a00c10007000af0a70001f0a0001d
:1005b0004f05be004f04be000000060003f0a2007d
:1005c000889fbe008a9fbe008c1f7800dd00070058
:1005d000e40033006450e1004f0032006420e10089
:1005e0005200320003826c0007003b000905d00076
:1005f0000306d000820f54000c065d000200390093
:1006000002003200890178000306780085825500d7
:1006100004003d000003fd008103fd008502ea00a7
:100620008b854200840f720002003b0060001000c6
:10063000e08018006011b8000005eb007a28e100a6
:100640000a00390006007800c75ddd00f707b20038
:10065000878075002d003700828171000a017800c3
:10066000610560008180d1000080d3008502e9002f
:10067000f9ff3b00060440008784480002003b006d
:1006800060041400e0841c000988a3000700320005
:100690008a81710082817100610164008904d10046
:1006a0000884d3008b05e800170037000978a30001
:1006b00013003a000b00e000130034008b05e90042
:1006c0000804440089844c000a4474000978a3009b
:1006d0000d003a000b00e000070034008b05e90034
:1006e0000804440089844c0001003a000b002000fb
:1006f0000978a300f7ff32000001eb000200370089
:10070000828171000a017800680007000cf0a700e0
:1007100001f0a0009c0037006420e10002003a00d4
:10072000838f6c009c0033000801be000200be00f5
:1007300095003700889fbe008a9fbe008c1f7800fe
:10074000800007008700330003866c006450e100de
:10075000240032006420e100270032006150e100f3
:10076000220032006120e100210032008b8542002e
:10077000eb07b1000134b800003ab80008044200a9
:1007800089844a00013ab8000030b80088804000ef
:1007900009014a0004003300000040008180480045
:1007a000020149008b05e900c909dd0083017000e1
:1007b0000100320013002000c814de004814dd00e0
:1007c0004709de001200b200c808de00088470008d
:1007d0003600070001f0a1000cf0a70001f0a00016
:1007e000690037006120e1006b0032000801be00a3
:1007f0000200be00f7ff37006150e100fcff3a0045
:10080000650037000001be00660007000470a70005
:1008100003f0a10003f8a30013003a006509b1003a
:1008200010003200090035006928e100020035009f
:100830000100280000000500000040008180480001
:100840008502e900fcff3a0000000600f88f420034
:10085000050035008100d1000080d3008502e8004a
:10086000fcff3a00000006008000eb0000000500dd
:10087000839f68000100e00002003d00600010005e
:10088000e08018000300e00002003d00600111005c
:10089000e0811900580007004f00e00002003b0013
:1008a00060001000e08018000000060081002000b9
:1008b000618055000b003d000b00200061fe2f0001
:1008c0000100e1001d0034008281710061016400bb
:1008d0008904d1000884d3000000e800faff3a0040
:1008e00071002000610064000300700002006000dd
:1008f0000900320061044400e0844c000988a5002e
:10090000050032008b05e8006808e10002003a00ab
:100910008904d1000884d300f20f20000258e100be
:1009200005003d00c75ddd00f907b2008980750054
:1009300008007800000006000bf827008b00780004
:10094000000005000004be00160007000003be0002
:100950000405be000200be0012000700844f7500af
:10096000000006000200be006450e10005003600f1
:100970006420e100020036000968a30001003a008b
:100980000800be000160a0004f0678004f05be00c1
:100990004f04be0000000600f0ff2f00f1ff27000b
:1009a000f9ff3700c70ade00f107b200f50fb20009
:1009b00008003200e1cf4200020032000170a000c6
:1009c00024000500810f70000100320004080500ba
:1009d00044000500810f700002003a001400050079
:1009e0008502e9000000400081c04800fcff3b0098
:1009f0000170a000240005006022b800060220005b
:100a00000000d0008180d2000482d2008582d20012
:100a10000000a0000202520083825a00030031004d
:100a20000202420083824a000000a1000603e9009e
:080a3000f3ff3a00000006008c
:020000040000fa
:0200000401f009
:04000c00fbff0000f6
:020000040000fa
:0200000401f009
:04001000bdff000030
:020000040000fa
:10000800260c00005c0800007c0800009e08000028
:10001800c0080000260c0000260c0000260c00007a
:10002800260c0000260c0000260c0000260c000000
:10003800260c0000260c0000260c0000260c0000f0
:10004800260c0000260c0000260c0000260c0000e0
:10005800260c0000260c0000260c0000260c0000d0
:10006800260c0000260c0000260c0000260c0000c0
:10007800260c0000260c0000260c0000260c0000b0
:10008800260c0000260c0000260c0000260c0000a0
:10009800260c0000260c0000260c0000260c000090
:1000a800260c0000260c0000260c0000260c000080
:1000b800260c0000260c0000260c0000260c000070
:1000c800260c0000260c0000260c0000260c000060
:1000d800260c0000260c0000260c0000260c000050
:1000e800260c0000260c0000260c0000260c000040
:1000f800260c0000260c0000260c0000260c000030
:10010800260c0000260c0000260c0000260c00001f
:10011800260c0000260c0000260c0000260c00000f
:10012800260c0000260c0000260c0000260c0000ff
:10013800260c0000260c0000260c0000260c0000ef
:10014800260c0000260c0000260c0000260c0000df
:10015800260c0000260c0000260c0000260c0000cf
:10016800260c0000260c0000260c0000260c0000bf
:10017800260c0000260c0000260c0000260c0000af
:10018800260c0000260c0000260c0000260c00009f
:10019800260c0000260c0000260c0000260c00008f
:1001a800260c0000260c0000260c0000260c00007f
:1001b800260c0000260c0000260c0000260c00006f
:1001c800260c0000260c0000260c0000260c00005f
:1001d800260c0000260c0000260c0000260c00004f
:1001e800260c0000260c0000260c0000260c00003f
:0801f800260c0000260c00009b
:020000040000fa
:10020800260c0000e2080000020900002409000092
:1002180046090000260c0000260c0000260c0000f1
:10022800260c0000260c0000260c0000260c0000fe
:10023800260c0000260c0000260c0000260c0000ee
:10024800260c0000260c0000260c0000260c0000de
:10025800260c0000260c0000260c0000260c0000ce
:10026800260c0000260c0000260c0000260c0000be
:10027800260c0000260c0000260c0000260c0000ae
:10028800260c0000260c0000260c0000260c00009e
:10029800260c0000260c0000260c0000260c00008e
:1002a800260c0000260c0000260c0000260c00007e
:1002b800260c0000260c0000260c0000260c00006e
:1002c800260c0000260c0000260c0000260c00005e
:1002d800260c0000260c0000260c0000260c00004e
:1002e800260c0000260c0000260c0000260c00003e
:1002f800260c0000260c0000260c0000260c00002e
:10030800260c0000260c0000260c0000260c00001d
:10031800260c0000260c0000260c0000260c00000d
:10032800260c0000260c0000260c0000260c0000fd
:10033800260c0000260c0000260c0000260c0000ed
:10034800260c0000260c0000260c0000260c0000dd
:10035800260c0000260c0000260c0000260c0000cd
:10036800260c0000260c0000260c0000260c0000bd
:10037800260c0000260c0000260c0000260c0000ad
:10038800260c0000260c0000260c0000260c00009d
:10039800260c0000260c0000260c0000260c00008d
:1003a800260c0000260c0000260c0000260c00007d
:1003b800260c0000260c0000260c0000260c00006d
:1003c800260c0000260c0000260c0000260c00005d
:1003d800260c0000260c0000260c0000260c00004d
:1003e800260c0000260c0000260c0000260c00003d
:0803f800260c0000260c000099
:020000040000fa
:100a380041200000427200006f7700006e2d000018
:100a48006f75000074200000526500007365000097
:100a58007420000068610000732000006f630000cc
:100a68006375000072720000656400000d0a0000e2
:100a780000410000204d0000617300007465000013
:100a880072200000436c00006561000072200000c5
:100a980028700000696e00002920000052650000df
:100aa8007365000074200000686100007320000076
:100ab8006f630000637500007272000065640000d7
:100ac8000d0a00000044000065760000696300001c
:100ad800652000007761000073200000696e000047
:100ae80020490000646c0000652000006d6f000064
:100af800646500000d0a0000004100006e2000003f
:100b0800696c00006c650000676100006c200000e3
:100b18006f700000636f00006465000020640000cf
:100b28006574000065630000746900006f6e000062
:100b38002c200000616e0000206900006c6c000031
:100b480065670000616c00002061000064640000bb
:100b58007265000073730000206d00006f64000070
:100b6800652000006f720000207500006e690000ab
:100b78006e69000074690000616c0000697a000009
:100b880065640000205700002072000065670000bf
:100b9800697300007465000072200000757300001e
:100ba800656400002061000073200000616e000091
:100bb8002041000064640000726500007373000047
:100bc800205000006f6900006e740000657200001c
:100bd8002063000061750000736500006420000058
:100be800612000005265000073650000740d00006c
:100bf8000a00000041200000506f000077650000e7
:100c0800722d00007570000020520000657300000e
:100c1800657400002068000061730000206f000008
:100c2800636300007572000072650000640d0000c7
:100c38000a00000044650000766900006365000052
:100c480020680000617300002062000065650000f4
:100c58006e200000696e0000205300006c650000e3
:100c680065700000206d00006f640000650d0000d5
:100c78000a00000057440000542000006973000077
:100c8800206500006e610000626c00006564000071
:100c98000d0a0000004100002052000045530000ea
:100ca80045540000206900006e7300007472000053
:100cb80075630000746900006f6e00002068000012
:100cc8006173000020620000656500006e2000006e
:100cd80065780000656300007574000065640000b5
:100ce8000d0a00000041000020540000726100005d
:100cf80070200000436f00006e6600006c69000001
:100d080063740000205200006573000065740000e1
:100d18002068000061730000206f0000636300001a
:100d28007572000072650000640d00000a00000082
:100d38005744000054200000746900006d650000ed
:100d48002d6f0000757400002068000061730000ba
:100d5800206f000063630000757200007265000078
:100d6800640d00000a0000004f7300006369000072
:100d78006c6c0000617400006f7200002065000058
:100d8800727200006f720000210a00000d0000005e
:100d98004164000064720000657300007320000065
:100da80065720000726f0000722100000a0d0000d9
:100db8000053000074610000636b000020650000b0
:100dc800727200006f720000210a00000d0000001e
:100dd8004d61000074680000206500007272000018
:100de8006f720000210a00000d00000073740000fb
:100df80061720000746900006e6700000d0a00004f
:100e0800006e00006575000074720000616c0000df
:100e18000d0a0000002e00000a0d0000000000006e
:020000040000fa
:100e28000000fa0083e0a90040a7a900417420004f
:100e38009140780000ceb30000c0600044e7b700de
:100e480044c7bf00f043b20044e7b700313a80001e
:100e580000e02f0000806000e10420000100700025
:100e6800303a8800003a8000004088000000eb001b
:100e7800003a88000080fa00000006000800fa0026
:100e88002007980031079800ae00900050d020004d
:100e98000009b8002e0090006000b9000302780035
:100ea80000024200be00900050d020000088b90027
:100eb8000002420084017800028fbe00050037005e
:100ec8000060fe000080eb008080eb001e0f4000f9
:100ed8005e9748001e00be00e00f5000e08f5800eb
:100ee800f7ff3a000080fa00000006000800fa0048
:100ef8002007980031079800ae00900030002000cd
:100f0800000ab8002e0090006000b90005017800c2
:100f1800000141003e0090006300b900000141005b
:100f280082027800048fbe00050037000060fe00d2
:100f38000080eb008080eb001e0f40005e974800a9
:100f48001e00be00e00f5000e08f5800f7ff3c0085
:100f58000080fa00000006000000fa00004080004f
:100f6800620060000000e00002003200c05128006a
:100f78001302070000408000010820000100600003
:100f88000000e00002003200d05328000c020700e5
:100f980000408000640060000000e00002003200b1
:100fa8007056280006020700004080000100240057
:100fb800010060000000e000020032001058280024
:100fc800ff01070000408000610060000000e000b1
:100fd80002003200e05f2800f901070000408000ad
:100fe800680060000000e00002003200e0612800b4
:100ff800f3010700004080000102200001006000aa
:101008000000e00002003200e0632800ec01070065
:101018000040800001042000010060000000e000a2
:1010280002003200f0642800e5010700004080005b
:1010380001002800010060000000e000020032000a
:1010480070672800de010700004080007000600023
:101058000000e00002003200c0692800d801070043
:101068000080fa00000006000200fa00004080003c
:1010780001082000010060000000e00007003a00bd
:1010880000408000610060000000e00003003a00ba
:1010980010002000000f7800020037000000eb006d
:1010a800000f78001e0078000080fa00000006009b
:1010b8003600f800809fbe00829fbe00849fbe005d
:1010c800869fbe000000fa008020a900806b2800df
:1010d800bb0107000080fa004f03be004f02be00ac
:1010e8004f01be004f00be003600f9000040060068
:1010f8003600f800809fbe00829fbe00849fbe001d
:10110800869fbe000000fa008060a900c06c28001d
:10111800ab0107000000fe000080fa004f03be008c
:101128004f02be004f01be004f00be003600f9005e
:10113800004006003600f800809fbe00829fbe0077
:10114800849fbe00869fbe000000fa008040a90070
:10115800d06d28009a0107000000fe000080fa0008
:101168004f03be004f02be004f01be004f00be003d
:101178003600f900004006003600f800809fbe00e7
:10118800829fbe00849fbe00869fbe000000fa00ba
:101198008080a900c06e2800890107000000fe00b9
:1011a8000080fa004f03be004f02be004f01be0090
:1011b8004f00be003600f900004006003600f80077
:1011c800809fbe00829fbe00849fbe00869fbe0097
:1011d8000000fa008020a900806b28007801070031
:1011e8000080fa004f03be004f02be004f01be0050
:1011f8004f00be003600f900004006003600f80037
:10120800809fbe00829fbe00849fbe00869fbe0056
:101218000000fa008060a900c06c2800680107007f
:101228000000fe000080fa004f03be004f02be001f
:101238004f01be004f00be003600f9000040060016
:101248003600f800809fbe00829fbe00849fbe00cb
:10125800869fbe000000fa008040a900d06d2800db
:10126800570107000000fe000080fa004f03be008f
:101278004f02be004f01be004f00be003600f9000d
:10128800004006003600f800809fbe00829fbe0026
:10129800849fbe00869fbe000000fa008080a900df
:1012a800c06e2800460107000000fe000080fa001a
:1012b8004f03be004f02be004f01be004f00be00ec
:1012c8003600f900004006000000fa00006a280015
:1012d800600888000080fa00000006000000fa009c
:1012e8001021a9000111200091407800f0ccb30032
:1012f80000c0600001c2b3000140700010e1b700f7
:1013080011e1a800400d2300600888000000eb00f0
:10131800100c88008461a9004118200091407800d1
:1013280080cfb30000c060006040b30084e1b70024
:101338000000eb00400c88008a61a900a118200079
:101348009140780080cfb30000c060006040b300d7
:101358008ae1b7000000eb00700c88009061a900da
:10136800011920009140780080cfb30000c06000d0
:101378006040b30090e1b7000000eb00a00c8800cb
:101388009661a900611920009140780080cfb300d0
:1013980000c060006040b30096e1b7000000eb00b9
:1013a800d00c88009c61a900c119200091407800e8
:1013b80080cfb30000c060006040b3009ce1b7007c
:1013c8000000eb00000d8800a261a900211a20008e
:1013d8009140780080cfb30000c060006040b30047
:1013e800a2e1b7000080fa00000006000000fa0041
:1013f800c15d20001000200022000700c15d200010
:10140800200020001f000700c15d200030002000e0
:101418001c000700c15d20004000200019000700e3
:10142800c15d20005000200016000700c15d2000ab
:1014380060002000130007000080fa00000006008a
:101448000200fa00000f78001e0078004200dd005c
:10145800000f78001e0078006500b900000f7800c2
:101468001e0078004300de00000f78001e007800a0
:101478004200de00000f78001e0078000080fa00ad
:10148800000006000800fa001007980021079800dd
:101498002e009000eaff0700000f78001e00900061
:1014a800300798003e009000e20f50001a0032000a
:1014b8003e009000e20f500007003c003e00900004
:1014c8000000e0000e0032003e009000e10f5000e6
:1014d8000e0032001b0037003e009000e40f500061
:1014e800130032003e009000e40f50000d0035005c
:1014f8003e009000e50f5000100032001100370048
:101508001e007800000c88000e0037001e007800ce
:10151800300c88000b0037001e007800600c880033
:10152800080037001e007800900c8800050037007e
:101538001e007800c00c8800020037001e007800ea
:10154800f00c88000080fa00000006000600fa008f
:10155800000f780012079800230798001e009000db
:10156800ae00900002002000a34724006ffc070093
:10157800a2fc0700800078001e007800c1ff070069
:101588000080fa00000006000600fa0024fe0700aa
:1015980000202c001100200054000700a06f280034
:1015a800870007004dff070090ff070050702800d4
:1015b80083000700803e2000000f780018003700e5
:1015c800f07028007e0007009e0078000000eb0005
:1015d800acff07009e00780010002000a9ff07005c
:1015e8009e00780020002000a6ff07009e007800db
:1015f80030002000a3ff07009e0078004000200074
:10160800a0ff07009e007800500020009dff070003
:10161800100020000100200018fe07001e0fe8003f
:10162800f07c20009e0f1000e5ff3600007d2000b2
:10163800000f7800290037009e0078000000eb00ba
:1016480090ff07009e007800100020008dff070023
:101658001e007800cf80de00abfb07001007980063
:10166800210798001e00e00007003d00020020004e
:10167800037824001e009000ae009000cefb070007
:101688001007980021079800f226210033a82300ac
:101698001e009000ae00900024fc07000001be0070
:1016a80020002000a9ff07009e00780030002000dd
:1016b80074ff07009e0078004000200071ff0700bb
:1016c8009e007800500020006eff070010002000e8
:1016d80001002000e9fd07001e0fe900803e200000
:1016e8009e0f1000d4ff3e00b2ff37000400fa003e
:1016f800008fbe0021e2a90021a2a9002182a90031
:101708002162a8001122200091407800c0cfb300c8
:1017180000c0600021e2b70020e2a90020c2a900b1
:1017280020a2a9002082a9002062a900012220008d
:101738009140780090cfb30000c0600020e2b7006d
:101748002002a9001e00be004409dd00cc01de0015
:10175800830171004401dd0000a02500212620003e
:1017680041fc07000000e9004011880023e2a900bd
:1017780023c2a90023a2a9002362a9002342a8002a
:1017880022c2bf00f043b20022e2b70022a2a900a1
:10179800004024009005880021e2a8002342a80008
:1017a8000080fa00000006000000fa0022c2bf0014
:1017b800614060000080fb000080fa000000060025
:1017c8000200fa00000f78000900370023c2bf00aa
:1017d800624060000004e000fcff3a001e00780050
:1017e800104078000000fb00201188001e0fe80060
:1017f8001e007800104078000004e000f3ff3a0073
:101808000080fa00000006000200fa00004f78008d
:101818001e00fb00201188000080fa00000006006e
:101828000000fa00301180000000fb000080fa0080
:0418380000000600a6
:020000040000fa
:10183c000008000002000000000000000000000092
:020000040000fa
:04184c000000fe009a
:00000001FF
