:020000040000fa
:0800000000a80400020000004a
:020000040000fa
:0200000401f009
:04000000ffff0000fe
:020000040000fa
:0200000401f009
:04000400ffff0000fa
:020000040000fa
:0200000401f009
:04000800ffff0000f6
:020000040000fa
:0200000401f009
:04000c00fbff0000f6
:020000040000fa
:0200000401f009
:04001000bdff000030
:020000040000fa
:0200000401f009
:040014007fff00006a
:020000040000fa
:0200000401f009
:04001800f8ff0000ed
:020000040000fa
:10000800faa80200faa80200faa80200faa8020058
:10001800faa80200faa80200faa80200faa8020048
:10002800faa80200faa80200faa80200faa8020038
:10003800faa80200faa80200faa80200faa8020028
:020000040000fa
:020000040000fa
:020000040005f5
:105000002f8c20008000eb000000eb00203a88008d
:10501000313a800000e02f0000806000e1042000b1
:1050200001007000303a88005001200040118800d3
:1050300021e2a8002342a80057000700100cb1008d
:1050400062003a00700c200020118800100020003f
:10505000201188002000200020118800b0042000ca
:10506000201188000007eb004b000700900188002a
:105070004900070003e1b7004700070002e1b7005d
:105080000281bf0080027800000278004200070021
:105090008006780040000700800178000280200030
:1050a0003d000700005978008301e900fcff3a0049
:1050b0000e04e00003003200e0042000201188000c
:1050c000e8ff3700028020000d10a7000400370021
:1050d0000d30a70021003700f1ff2f00dfff370060
:1050e0000100a60004003700850abb00200424004c
:1050f0001e0007008000eb0003042000b2cabb00c2
:10510000b25abb00b25abb008301e900fbff3a0070
:105110001000240015000700030420000280200076
:1051200014c0ba003204e10009003a003440ba0069
:105130003204e10006003a003440ba003204e100d3
:1051400003003a008301e900f5ff3a00c3ff37008e
:105150006005200020118800c2ff3700924abb0082
:105160000000240001000700bcff3700003b88005e
:1051700050052000303b8800a00a2000303b88000a
:1051800061e7a800000000000000000061e7af0038
:10519000feff370000000600ba0220008005eb0089
:1051a0000060fe002202ae000300370030118000d4
:1051b00000074700000006008b05e900f8ff3a00f1
:1051c0000a05e900f5ff3a002f8c20008560a90050
:1051d0008580a9002342a90021e2a9000221ef0055
:0451e00085ff370010
:020000040000fa
:020000040005f5
:084ff8000000ff000000ff00b3
:020000040000fa
:020000040005f5
:1051e40000080000c20000000000000000000000f1
:020000040000fa
:020000040005f5
:0451f4000000fe00b9
:00000001FF
