:020000040000fa
:080000000002040000000000f2
:020000040000fa
:100400000fc9200000df2700000188000000000065
:100410000a00070011000700000020000000e000b3
:100420000200320000000200000000000816020076
:10043000000000000040da000000fe004440a90077
:10044000600620000000e0000300320000002000f1
:10045000a00188004440a80000000600c048210018
:10046000010020001500370062004000e0804800d5
:10047000910188009001ba0062004000e0804800cd
:10048000910188009002ba0062004000e0804800bc
:100490000002eb006028e10004003a000059eb0084
:1004a0008301e900fdff3e00040037006128e10000
:1004b000010032000082eb00050007009101880076
:1004c0001001ba000200e000e7ff3a00000005005a
:1004d000910188008002780062004000e0804800be
:1004e0003559ba008301e900080032002559ba00e5
:1004f0008301e900050032000400e000f4ff32004f
:1005000015d9ba008301e900f1ff3a0000000600a6
:1005100094020400000000006e0b040000000000c4
:100520000000040000000000889fbe0080047800e6
:100530000100780002047800890178001100200091
:100540000e000700880f5000010032008004eb000d
:10055000090078004f04be00000006000000fa0009
:100560004fb99700e88157000184200040292000fe
:10057000570007000080fa0000000600889fbe00b8
:100580008a9fbe008c9fbe008e1f78008106780077
:1005900083047800000678000288b900000778001c
:1005a0000000e00002003a0000017800420037003d
:1005b0000d00e0004000320000057800c900900006
:1005c00069009000808f5000040039000900780015
:1005d000f80007000000e00029003500004020007e
:1005e0001900600003003a000a04780080057800d2
:1005f0000b0037000a017800a10020000c007800f1
:100600002f010700800578000000e00002003a009a
:100610000a047800020037000c0050000004e800d3
:10062000c90190006900900003005000880f50003d
:1006300002003100000478008005eb00080178001a
:100640008c007800030078002701070008064600a8
:10065000080555004900900000004400c0049800bf
:100660000b00e000040032000900780025010700bb
:100670000000e00002003a000a00e000cfff3a006c
:10068000008020001900600002003200090078009c
:100690001c01070000c020001900600002003200a9
:1006a00049009000e00498000a005700110009007a
:1006b0000d80d80000017800020078004f07780014
:1006c0004f06be004f05be004f04be0000000600ee
:1006d0006200fa00889fbe008a9fbe000004be0030
:1006e000020578008300780060f92f000f004000b9
:1006f0004101070088979f0099979f000000eb0039
:10070000a09f9f009a4578000b80fb000000ea0044
:10071000cf04de0050c2b30080cf5500020032008b
:1007200009047800010037000904e9000800e0002e
:100730000b0034001f909700080178008a007800b1
:100740008f9197000300010090979f000000e00048
:10075000930032002f98970000004400a09f9f0054
:100760000905450050c2b30080cf55000400320097
:100770000b04e000e3ff3a002f9897008900370050
:100780000000eb00809f9f00f0979f00e0979f0084
:10079000d0979f00c0979f00b0979f00c09f9f0079
:1007a00009003700e0ee2700008050000000400004
:1007b00021ee2700e10078004f98970001007000bb
:1007c000c09f9f000a05e8001a4478008800fb00db
:1007d000e0ee27000d010700800078000000e00037
:1007e000f0ff3a00a0c2b300804f54000e003a0060
:1007f000bf8897000180e900b08f9f00100078004b
:10080000b09f9f000000e00005003d000000ea00ee
:10081000b09f9f004f9897000020a000c09f9f00ae
:100820000a05e80010003700b19f9f00090037005b
:10083000bf989700f0ff2700808f5000040032001f
:100840006a08b9000000410003004000b09f9f000b
:100850000a05e8001a01fb0003fd2f000300410018
:10086000e90f5000f2ff3600e0c2b3009a4f1000cb
:10087000040032000080eb00909f9f008a04780003
:100880001c0037008a04e800a0c2b300994f100092
:1008900007003a00bf8897000180e900b08f9f00f1
:1008a00010007800909f9f008a84e80011003700b4
:1008b0000000eb00909f9f00090037009f98970071
:1008c000f0ff2700808f5000040032006a08b90052
:1008d0000000410003004000909f9f008904e80051
:1008e0001901fb0003fd2f0003004100e90f500038
:1008f000f2ff3600194478008800fb0040ef270023
:10090000c20007000000e00002003a000044780046
:10091000010037008904e800a87f9f0080c6b3006b
:10092000804f540004003a00994f14000a003a0026
:100930006640500006003700c0c6b300804f540028
:1009400005003a00994f140003003a00654040004a
:10095000a07f9f008904e8000905e800cbfb2f0079
:100960008f8545001901fb0060f92f000f00400042
:100970000084e8008b01780080007800080078008f
:10098000ab0007000000e00005003a008b00780093
:1009900008007800e90107000000e00059ff3d0071
:1009a0000080eb004f05be004f04be000080fa003f
:1009b00000000600889fbe0000047800c00190007f
:1009c000600090008000eb00808f510039003900fa
:1009d000180178002000290000006100e20f50009b
:1009e00007003200002020000200e0000100350076
:1009f00000202400000c71008080eb002d003700e7
:100a00000100260001006100810f500008003a003b
:100a100038009000808f51000500390008007800f0
:100a2000380007008080eb000000e00021003a0061
:100a300000c020001800600017003a00a8049000d1
:100a40006002200008004000808f540012003a002d
:100a50000020200083020700800078002004980016
:100a60000000e00005003a002904980049049800bd
:100a70000900e80030049800060037001860a00064
:100a8000400498000020b00030049800410c980009
:100a9000510c9800c50207002800900050049800ef
:100aa000380090006004980000002600180c7000c8
:100ab0008000eb00010078004f04be00000006003b
:100ac0008001eb00040037008301e80090cf1000a4
:100ad000040032000000e800828f5100faff3a0063
:100ae0000000eb00000006008001eb000200370070
:100af00061f079008301e800828f5100fcff3a0029
:100b000000000600889fbe00000478000000e0009e
:100b10000e003a00800478008880200018007800d9
:100b20000000e00004003200f6ff07000000e000d3
:100b300001003d008084eb000884e80080812000f3
:100b4000800f540029003200f4ff3700000022001b
:100b50001800600024003200a8049000080037004c
:100b600009015000384090000000fb008900780027
:100b7000ed0307000000e00013003400808444000f
:100b800048009000808f5400f5ff39002800900045
:100b9000400498001801780000c0200000006100a7
:100ba00002003200a800900001003700b800900059
:100bb00000002400000061000a0032006104980077
:100bc0008004eb00090037002800900040049800e2
:100bd00060049800500c98001890a0008084eb00ee
:100be00002003700510c980080047800090078005a
:100bf0004f04be00000006000200fa00f1bf9f0093
:100c0000010878000080fa000000060004003700a8
:100c10000204e00001003a00000005000000e800c6
:100c200010417800814f5100f9ff3a0000000600a2
:100c3000889fbe008a1f78000004780001027800b7
:100c40008244780003057800e0c6b300804f51006d
:100c5000d200320015003c006b405000804f510024
:100c6000240032000a003c0070405000804f5100c8
:100c70000f01320065404000804f51007400320087
:100c800050c2b300804f510020013a001c013700d0
:100c900040c6b300804f51001b0032006540400049
:100ca000804f510019013a001700370030c7b300d8
:100cb000804f5100fe00320007003c0064405000ad
:100cc000804f5100620032000040e800804f510028
:100cd0000e013a00e700370050c7b300804f5100c3
:100ce0005b00320063404000804f510007013a0032
:100cf000570037009180e900010a780078009000e1
:100d00009171780007013700a8609000c0c6b30059
:100d100080cf50000a003a009400780064805000b0
:100d2000000a78001000be004f89de00cf91de007f
:100d30000002be000203780082037800130037002f
:100d400010c7b30080cf500003003200a0c6b3002c
:100d500080cf500006003a00940078006880500070
:100d6000000a78003002be002003be0007003700f2
:100d70001480e900000a7800100078000002780072
:100d8000cfa2de000503780086037800049cbe0035
:100d90000694be00a860900080c6b30080cf5000cb
:100da0000e00320020c6b30080cf500005003a008c
:100db0000400fb00cf80de00010178008201780092
:100dc0000a00370040c7b30080cf50000300320054
:100dd0006640400080cf500006003a0004007800d2
:100de000cf80de000101780082017800009cbe0007
:100df0000294be003800be002801be00e00f500083
:100e0000e08f5800e00f5900e08f590003003d00cb
:100e100078009000d1c2b3000a003700081090009b
:100e20000018a3000300320078009000b1c2b300a4
:100e3000040037000008a30053003200780090003f
:100e400001c2b300017578000000e8004d003700d2
:100e5000a8609000c0c6b30080cf500006003a00e2
:100e60009400780064805000000a78001002be00f0
:100e70006033b8001300370010c7b30080cf5000b4
:100e800003003200a0c6b30080cf500006003a0035
:100e90009400780068805000000a78003002be009c
:100ea0002003be00070037001480e900000a780024
:100eb00010007800000278000500200006002000e5
:100ec00007002000049cbe000694be00a8609000ad
:100ed00080c6b30080cf50000e00320020c6b300a1
:100ee00080cf500005003a000480fb000100200084
:100ef00002002000030020000a00370040c7b300b2
:100f000080cf5000030032006640400080cf500088
:100f100006003a00040078000100200002002000d2
:100f200003002000009cbe000294be000810900048
:100f30000038a300140032003800be002801be00b3
:100f4000e00f5000e08f5800e00f5900e08f59008b
:100f50000d00320080c7b30080cf54000300320080
:100f600080c5b30080cf540007003a00780090009d
:100f700001c3b300017578008000e80009f578002e
:100f80000080e800700498007800900000004500a0
:100f9000600498008940780042003700a860900003
:100fa000c0c6b30080cf5000250032000a003c00cc
:100fb0006440500080cf50002800320000c0e8009c
:100fc00080cf5000140032006840500080cf5000a5
:100fd00022003a000a00370040c7b30080cf50001b
:100fe0001e0032006640400080cf50001b003200df
:100ff0006940500080cf500018003a0006003700ca
:101000001480e900000a780010007800485c900025
:1010100008487800450037001480e900000a78008d
:101020001002780068089000cf80de00010178008f
:1010300082017800009abe000292be003b00370099
:101040001480e900000a7800100178006808900018
:10105000cf80de000089be00340037001480e90034
:10106000000a780010007800680c900008087800ea
:101070002e0037001180e900800878001000780009
:10108000cf80de000101780082017800009cbe0064
:101090000294be00780090000000450060049800b3
:1010a00081c7b30008007800980107001f003700cf
:1010b0001480e900000a78001000780060049800ad
:1010c000580990000200e00002003d0047020700be
:1010d000090037008000eb0079fe070080007800ef
:1010e0000000e00003003200680090000080500023
:1010f0000100370058089000100c98000b003700d2
:1011000078009000027578000600370078009000a3
:10111000800045000904e00001003a0059c2b30014
:10112000894878000000e800700498000000eb0097
:101130004f0578004f04be00000006000400fa00ce
:10114000889fbe008a9fbe008c1f78000004780034
:101150000106780070089000f8009000010050002f
:10116000880890000100500098089000010050008d
:10117000a808900001005000b8089000010050003d
:10118000c8089000810550000002220090bf9f0017
:1011900000032300a0bf9f00081090000028a300b8
:1011a00018003a000b00e000160034008b047800b1
:1011b00009057800e28f5400020036002a00200062
:1011c000020037000900e0000b00340058009000d6
:1011d000c80190000a017800ee805700030001006a
:1011e000500498000000e00096003200680890006b
:1011f00000004500600c98008a8454004240a90019
:10120000ebff3c00780190000200e0000b0034008e
:1012100058009000c80190008c0078000300010085
:10122000500498000000e00086003200680890003a
:10123000f800900001004000600c9800880c9000bd
:101240000900e0001500340009057800e28f540021
:10125000020036002a002000020037000900e000ea
:101260000b00340058009000c80190000a0178007b
:10127000ec80570003000100500498000000e000db
:10128000700032006808900000004500600c980073
:101290008a8454004240a900ebff3c0018099000ea
:1012a0000200e0000b003400e800900058009000bd
:1012b000c801900003000100500498000000e00005
:1012c000600032006808900098089000010040001b
:1012d000600c9800a80c90000900e0001500340094
:1012e00009057800e28f5400020036002a00200031
:1012f000020037000900e0000b00340058009000a5
:10130000c80190000a017800ec805700030001003a
:10131000500498000000e0004a0032006808900085
:1013200000004500600c98008a8454004240a900e7
:10133000ebff3c00380990000200e0000d00340093
:10134000e80090001808900080804000580090004d
:10135000c801900003000100500498000000e00064
:101360003800320068089000b80890000100400082
:10137000600c9800c80c90000900e00015003400d3
:1013800009057800e28f5400020036002a00200090
:10139000020037000900e0000b0034005800900004
:1013a000c80190000a017800ec805700030001009a
:1013b000500498000000e00022003200680890000d
:1013c00000004500600c98008a8454004240a90047
:1013d000ebff3c00081090000028a3001b00320027
:1013e0000b00e000190034008b0478000905780038
:1013f000e28f5400020036002a002000020037006d
:101400000900e0000b00340058009000c801900073
:101410000a017800ee805700030001005004980094
:101420000000e0000700320068089000000045005e
:10143000600c98008a8454004240a90003003400e4
:10144000eaff37000080eb00010037000000eb00ee
:101450004f0678004f05be004f04be000080fa0022
:1014600000000600889fbe00e30440000900a100c0
:10147000808f54004a003600e38f540001003e0084
:101480004900200012fe83000200e000020032004a
:10149000820078000c00370041fc27000300370071
:1014a000908f5400230036008080e80011007800ff
:1014b0000000e000faff3a000f003700908f540060
:1014c0001c0036008080e800110078000000e00079
:1014d000faff3a001201780041fc270003003700b0
:1014e000908f5400130036008080e80011007800cf
:1014f000820f5000faff3a0008fe8300890f540063
:101500000100310009047800080078003e0107005e
:101510000000e00004003a00890f5400200032006f
:101520000804d100f5ff3700081878003d010700d6
:10153000d4ff3700110178009201780064805100d7
:10154000890f5000030031001200900080087800dd
:1015500007003700090041008008780092019000e0
:10156000130098001100780012881400090978000f
:10157000910078000100e0000500320011009000a9
:101580000000e000020032000180e80001003700a6
:101590000000eb0010fe8b000280e8000100370025
:1015a0000000eb004f04be0000000600881f78001a
:1015b000c8ef27001804e00004003a00e0b620005d
:1015c0004c01070020c0b300004c78004f047800a5
:1015d00000000600889fbe000004780049fd070057
:1015e000800478000004200018006000020032002f
:1015f000280090000b0107000000eb002004980079
:10160000384090000004e000050035000000fb00b9
:10161000790107000000e000010032008084eb0047
:10162000181090000000e000080032007b01070065
:101630000000e000010032008084eb0018109000f0
:10164000f80007000000eb001014980000082000cc
:1016500018006000100032000000eb0081802000c4
:10166000910f1400070032000000e8008180e800bc
:10167000e80f5000faff3a0008007800e900070080
:10168000130037000000400081802000010040006e
:101690000008eb00f8ff3700000c780000c0eb00fa
:1016a00030449800600220000800400020049800a8
:1016b0004004980050049800400c98006004980082
:1016c000500c98007004980076004400000c9800bc
:1016d000090078004f04be0000000600881f780053
:1016e00068812000180078000000e000010032004e
:1016f000b8ff07000884e90060802000800f5400d4
:10170000f8ff3a004f04780000000600ef02b00036
:10171000889fbe008a9fbe008c9fbe008e1f7800ef
:101720000006780010ed2700c0b79f0080c5b30009
:1017300080cf50000800320002ec2700c2b79f00a3
:101740007740400080cf500003003a008300200023
:10175000b3b79f000a00370080c7b30080cf5000a6
:1017600005003200a4002000b4b79f0080c5b3007c
:1017700080cf500002003a0000012000b0b79f0067
:101780003c04be002c05be0040c6b30080cf500014
:10179000030032006540400080cf50000b003a004b
:1017a000e00f5400e08f5c00e00f5d00e08f5d0013
:1017b00006003d006000b8006011b8000804500049
:1017c000898458000a0559008b855900e00f5400a0
:1017d000e08f5c00e00f5d00e08f5d0004003a00e8
:1017e0005c0890008d0120000000e0000c00320039
:1017f000bfb0970001027800cfa2de000503780099
:10180000860378000800be000a01be00d10107006f
:101810004fb2970064407800d0df9f007d01200028
:101820003fb0970000027800cfa2de0005037800e9
:10183000860378000800be000a01be00be01070052
:10184000009ebe000296be000d00e90061fc2f0064
:101850008f804000008740001e0037003fb1970096
:1018600002047800cfc4de00090578008a057800fc
:101870000802be000a03be007fa897008fb0970041
:101880001fb19700afb19700b6010700d0b79f0016
:10189000e1b79f00f2b79f0083bf9f008d06e9006c
:1018a0000802be000a03be00340207007faa9700a8
:1018b00000005200cfb09700615778005fb09700ea
:1018c000efb097007fb197008fb99700009ebe00e0
:1018d0000296be003c00be002c01be00f0af9f008f
:1018e00081b79f0092b79f00a3b79f00e00f500001
:1018f000e08f5800e00f5900e08f590002003400db
:101900000d00e000d5ff3c00bfb09700e88f50000d
:1019100010003a000c1090000038a3000d003200b7
:10192000f78f560006003e0062fc2f000f014100b9
:101930008d00410000c3b300914f1000050032003c
:101940008d06e90000c3b30063fc2f008f814100c6
:1019500080f17e0078811600120e98006c009000d5
:1019600063fc2f008f8141008d8041005efc0700e9
:101970001c0990005c089000800f510006003d009b
:1019800002005000000e98000c1090000040a100d2
:10199000001698000f0037000000e0000d003d0029
:1019a0000c10900074006000f00f500009003a0025
:1019b0007c089000fc009000010050008c08900012
:1019c00001005000020050004240a9000100340014
:1019d000000e98004f0778004f06be004f05be006e
:1019e0004f04be00ef02b100000006008000780046
:1019f000010037000000e8001004e000fdff3a009d
:101a000001005000000006000000e0000300340068
:101a10008b000700e10f400001003a000000eb00de
:101a2000000006000000e000310032008080e90084
:101a300091027800e38f52002d0036000508a300c4
:101a40002b003a0022fe83000200e0000200320078
:101a5000828f5000040031000208780021fe8b00c4
:101a60001600370003017800920190000300e000a7
:101a700002003200818f5100faff39001202780013
:101a800004004100808f500019003900810f500080
:101a900003003a0005094200820078000700370081
:101aa0000300e0000300320005804000808f5100f9
:101ab0000f00390093009800110198001101900067
:101ac0000200e0000a00320011804000820f500046
:101ad00007003a0020fc27000008eb0011009000ee
:101ae00011017800900841001000900090009800cb
:101af0000000060000017800000020000000e00067
:101b000008003200000080000000e0000500320004
:101b10000000e90000008800000040000100800093
:101b200002b07800000006000a00fa008001780088
:101b3000e20f500025003e0020408000e10f5000e1
:101b400008003200802320000000e0000500320081
:101b50000423200025232000462320008001780054
:101b60000400370004222000252220004622200005
:101b700083222000144090000004e00003003500a0
:101b80008009eb0000002800140a70001540900046
:101b90000028a30001003a0015a0a0008001eb007e
:101ba00007003700154090000008a300fdff320039
:101bb00063c078000000fb00000b78008301e800a0
:101bc000828f5100f7ff3a000800370030002000f4
:101bd000b0bf9f00c3bf9f00d1bf9f00e2bf9f0067
:101be0006a80570000c0da006fb9970002007800e1
:101bf0000080fa00000006000a00fa001100200030
:101c0000b1bf9f00c0bf9f006a80570000c0da00cc
:101c10004fb897000080fa00000006000a00fa00a2
:101c200051002000b1bf9f00c0bf9f006a805700d5
:101c300000c0da005fb897000080fa0000000600dc
:101c4000889fbe00800478000608e20004003a0085
:101c50000000eb00100007000000e0000a00350063
:101c6000304080000900e00002003a0000047800e3
:101c70000600370000047800090040000600070055
:101c80000000e00001003d000084eb000800780047
:101c90004f04be0000000600800078000000e00055
:101ca00004003a00008920003040880001017800db
:101cb000060037000081eb0000c92000808f500033
:101cc00002003e00314088000001eb000200780075
:101cd00000000600839f68000100e00002003d0054
:101ce00060001000e08018000300e00002003d00ea
:101cf00060011100e0811900050007004f00e000bd
:101d000002003b0060001000e080180000000600a8
:101d10006022b800060220000000d0008180d200be
:101d20000482d2008582d2000000a000020252008c
:101d300083825a00030031000202420083824a007b
:101d40000000a1000603e900f3ff3a0000000600ce
:101d5000881f7800000478005001be004000be00db
:101d60000400400085804800060149008781490041
:101d7000009cbe000294be000400e1000588e10062
:101d80000690e1000798e10002003100680044007d
:101d90001008e8004f04780000000600f4874700b0
:101da000889fbe008a9fbe008c9fbe008e1f780059
:101db0000205be000004be00d4b79f00e5b79f0037
:101dc000f6b79f0087bf9f000000eb00c0b79f00e1
:101dd000b0b79f00a0b79f0090b79f0080b79f004b
:101de0000d042000bfb097004fb0970000014000e5
:101df0000000e0000f003d004f08de000000710011
:101e0000c0b79f009e00070001003d0012002000a7
:101e1000a100070001003d0012002000a6000700fd
:101e2000b1000700b60007000f004000c8ff070020
:101e3000220037004f08de0000067100ccb79f007b
:101e40008f00070001003d001200200092000700f3
:101e500001003d001200200097000700a2000700cb
:101e60000fb297009fb297002fb39700bfb39700b0
:101e7000a90007000000520081805a0002015b00a7
:101e800083815b0080b79f0091b79f00a2b79f003e
:101e9000b3b79f000007eb009f0007000020e100a0
:101ea00001a8e10002b0e10003b8e1000100310047
:101eb0001e0020000e005600c0b79f004fb29700d2
:101ec0000400e000070035001000200001002000a1
:101ed0006011b80008047000898470000a05710060
:101ee0008b8571008d06e900beff3a000400e0001a
:101ef00003003d00820007000f00400094ff070030
:101f00004fa897000000e00004003a000fb49700cb
:101f10009fb497002fb59700bfb5970094000700b6
:101f20004f0778004f06be004f05be004f04be00ad
:101f30004f01b10000000600881f78001800200043
:101f4000881f780095ff07008f87e9004f0478000d
:101f500000000600801feb0090ff07008f87e9005c
:101f600000000600889fbe008a9fbe008c1f78007c
:101f70006e00070007003d0073000700e00f5b00e4
:101f8000e08f5b0007003d00320007000006eb0019
:101f9000040037003400070002003d002a0007005b
:101fa0001c00200072000700e3ff07000203be00d0
:101fb0000002be000c00e000010032002200070019
:101fc0000400be000601be004f0678004f05be00ab
:101fd0004f04be0000000600889fbe008a9fbe001e
:101fe0008c1f78005100070005003d0056000700d7
:101ff000e00f5b00e08f5b0006003d00040037004f
:102000001900070003003d006000b8006011b8002f
:102010001000070056000700ceff07000203be00b5
:102020000002be000c00e0000100320006000700c4
:102030000400be000601be004f0678004f05be003a
:102040004f04be00000006006000b8006011b80038
:102050000000370004025000858258000603590032
:1020600087835900000006000006eb00e00f5200d5
:10207000e08f5a00e00f5b00e08f5b00000006007d
:102080000180400090b79f000001eb008fb09700e7
:102090000100e000000006000200700090b79f0001
:1020a0000180400080b79f000001eb00ffa897006f
:1020b0000100e000000006000200700080b79f00f1
:1020c000018040006faa9700cf20de000100700061
:1020d000f0af9f0004024200250007004f18de0009
:1020e0000002720000000600e4af9f0008044400f4
:1020f00089844c000a054d008b854d0000000600c8
:102100003fb29700cfb297005fb39700efb397004d
:1021100000fe2f00000006003fb09700cfb09700f0
:102120005fb19700efb19700000006000205be0006
:102130000004be00e00f5000e08f5800e00f59008f
:10214000e08f5900000006006000b8006011b80080
:1021500008045000898458000a0559008b855900ed
:102160001c002000e00f5200e08f5a000000060023
:102170000800be000a01be0000000600889fbe00e5
:102180008a9fbe008c1f78000205be000004be00be
:102190000006eb00e00f5000e08f5800e00f590000
:1021a000e08f590007003d006000b8006011b800e2
:1021b00008045000898458000a0559008b8559008d
:1021c0001c002000e00f5200e08f5a00e00f5b007f
:1021d000e08f5b0002003d000f0007000c00a20032
:1021e0000800be000a01be00120007000203be0084
:1021f0000002be000c00e0000100320006000700f3
:102200000400be000601be004f0678004f05be0068
:102210004f04be00000006006000b8006011b80066
:102220000402500085825800060359008783590034
:1022300000000600889fbe008a9fbe008c9fbe00e3
:102240000404b8000506b8008904460060854e0005
:102250000606b8000a054600e0854e000706b800ed
:102260008b054600040eb800890446000a854e001e
:10227000e0854d00050eb8000a0546008b854e002e
:10228000060eb8008b0546000416b8000a05460085
:102290008b854e000516b8008b054600041eb8005d
:1022a0008b0546000800be000a01be004f06be00b6
:0c22b0004f05be004f04be0000000600f9
:020000040000fa
:0200000401f009
:04000c00fbff0000f6
:020000040000fa
:0200000401f009
:04001000bdff000030
:020000040000fa
:100008007a1600006a140000721400007c140000c4
:10001800841400007a1600007a1600007a16000090
:100028007a1600007a1600007a1600007a16000088
:10003800261300007a1600007a1600007a160000cf
:100048007a1600007a1600007a1600007a16000068
:100058007a1600007a1600007a1600007a16000058
:100068007a1600007a1600007a1600007a16000048
:100078007a1600007a1600007a1600007a16000038
:100088007a1600007a1600007a1600007a16000028
:100098007a1600007a1600007a1600007a16000018
:1000a8007a1600007a1600007a1600007a16000008
:1000b8007a1600007a1600007a1600007a160000f8
:1000c8007a1600007a1600007a1600007a160000e8
:1000d8007a1600007a1600007a1600007a160000d8
:1000e8007a1600007a1600007a1600007a160000c8
:1000f8007a1600007a1600007a1600007a160000b8
:100108007a1600007a1600007a1600007a160000a7
:100118007a1600007a1600007a1600007a16000097
:100128007a1600007a1600007a1600007a16000087
:100138007a1600007a1600007a1600007a16000077
:100148007a1600007a1600007a1600007a16000067
:100158007a1600007a1600007a1600007a16000057
:100168007a1600007a1600007a1600007a16000047
:100178007a1600007a1600007a1600007a16000037
:100188007a1600007a1600007a1600007a16000027
:100198007a1600007a1600007a1600007a16000017
:1001a8007a1600007a1600007a1600007a16000007
:1001b8007a1600007a1600007a1600007a160000f7
:1001c8007a1600007a1600007a1600007a160000e7
:1001d8007a1600007a1600007a1600007a160000d7
:1001e8007a1600007a1600007a1600007a160000c7
:0801f8007a1600007a160000df
:020000040000fa
:100208007a1600006a140000721400007c140000c2
:10021800841400007a1600007a1600007a1600008e
:100228007a1600007a1600007a1600007a16000086
:10023800261300007a1600007a1600007a160000cd
:100248007a1600007a1600007a1600007a16000066
:100258007a1600007a1600007a1600007a16000056
:100268007a1600007a1600007a1600007a16000046
:100278007a1600007a1600007a1600007a16000036
:100288007a1600007a1600007a1600007a16000026
:100298007a1600007a1600007a1600007a16000016
:1002a8007a1600007a1600007a1600007a16000006
:1002b8007a1600007a1600007a1600007a160000f6
:1002c8007a1600007a1600007a1600007a160000e6
:1002d8007a1600007a1600007a1600007a160000d6
:1002e8007a1600007a1600007a1600007a160000c6
:1002f8007a1600007a1600007a1600007a160000b6
:100308007a1600007a1600007a1600007a160000a5
:100318007a1600007a1600007a1600007a16000095
:100328007a1600007a1600007a1600007a16000085
:100338007a1600007a1600007a1600007a16000075
:100348007a1600007a1600007a1600007a16000065
:100358007a1600007a1600007a1600007a16000055
:100368007a1600007a1600007a1600007a16000045
:100378007a1600007a1600007a1600007a16000035
:100388007a1600007a1600007a1600007a16000025
:100398007a1600007a1600007a1600007a16000015
:1003a8007a1600007a1600007a1600007a16000005
:1003b8007a1600007a1600007a1600007a160000f5
:1003c8007a1600007a1600007a1600007a160000e5
:1003d8007a1600007a1600007a1600007a160000d5
:1003e8007a1600007a1600007a1600007a160000c5
:0803f8007a1600007a160000dd
:020000040000fa
:1022bc000a0d00004144000043200000646500004a
:1022cc006d6f00000a0d0000007800005f610000d7
:1022dc006363000020090000207900005f610000aa
:1022ec006363000020090000207a00005f61000099
:1022fc006363000020090000207800005f7200007a
:10230c00617400006520000009200000795f000066
:10231c00726100007465000020090000207a000042
:10232c005f7200006174000065200000092000004d
:10233c006964000067350000303000005f760000f3
:10234c0072650000660a00000d0000002575000093
:10235c0020250000752000002575000020250000b8
:10236c007520000025750000202500007520000058
:0c237c00257500000d0a000000000000a4
:020000040000fa
:102388000000fa001132200091407800c0cfb3005d
:1023980000c060000014a00021e3b7000132200053
:1023a8009140780000ceb30000c0700020e3b70071
:1023b8002043a8002143a8002343a800313220006d
:1023c80091407800c0cfb30000c0600023e3b7009d
:1023d80023c3bf007f40600023e3b70025e3a900c3
:1023e800f0c3b30024e3b7002183a9002132200001
:1023f8009140780030ccb30000c060008041b30049
:1024080022e3b700213320009140780080cfb30049
:1024180000c060003040b30032e3b7000000eb00ba
:10242800701988000000eb00801988003003a800ac
:102438003023a8003063a8003083a80030a3a80088
:1024480030c3a80030e3a8000080eb0060198800c2
:102458000080eb00501988002c03a9002c23a90048
:102468002c83a9002ca3a9002cc3a9002ce3a90044
:1024780085a0a90095a0a9000b000700020007008d
:102488000080fa00000006000000fa0021e3a8001e
:102498000080fa00000006000000fa0021e3a9000d
:1024a8000080fa00000006000000fa000138200051
:1024b80091407800f0ccb30000c0600001c2b300c6
:1024c8000140700080e3b700013820009140780097
:1024d800c0cfb30000c060000014a00080e3b700c4
:1024e80000302000401c880070032000501c880029
:1024f800d0002000101c880000602000201c8800ec
:1025080000702000301c88008480a9009480a800f6
:1025180081e3a8000080fa00000006000800fa0025
:10252800000f780011079800220798001e009000fd
:102538009e0f1000100036002e0090009e0f5000d5
:10254800030036001e007800300798001900370095
:10255800ae0090001e009000808f500003003600ef
:102568002e00900030079800120037001e009000df
:10257800300798000f0037002e0090009e0f500083
:10258800030031001e00780030079800090037006a
:10259800ae0090001e009000808f500003003100b4
:1025a8002e00900030079800020037001e009000af
:1025b800300798003e0090000080fa0000000600f6
:1025c8000800fa00300798006000b800008fbe00cd
:1025d8000000eb00200798000c0037002e00900048
:1025e80000004000800078003e009000008040001d
:1025f80010007800010020001e0f40005e97480080
:102608002e0090000000e800200798002e0090009f
:10261800e70f5000f1ff34001e00be004d09dd0039
:102628004300de0000007100c308de00008fbe001a
:102638009e0078003e009000010878000080fa00b3
:10264800000006003600f800809fbe00829fbe0092
:10265800849fbe00869fbe000000fa0010408000e4
:102668000000e0000f003a0000e02700d4ff070058
:1026780000e12700d2ff070000e32700d0ff070092
:1026880000e42700ceff070000e52700ccff070085
:1026980000e62700caff070000e72700c8ff070079
:1026a8000f00370000f02700c5ff070000f12700e2
:1026b800c3ff070000f32700c1ff070000f427004d
:1026c800bfff070000f52700bdff070000f6270041
:1026d800bbff070000f72700b9ff07006eff0700e0
:1026e800104080000000a200104088008480a900eb
:1026f8000080fa004f03be004f02be004f01be002b
:102708004f00be003600f900004006000200fa0043
:10271800000f78001e00780001f027004400dd005b
:1027280001004000100078000001d1001e00780070
:1027380001e027004400dd0001004000100078009f
:102748000000d100000041000080fa0000000600ef
:102758000000fa0040a7a9004174200091407800c9
:1027680000ceb30000c0600044e7b70044c7bf0014
:10277800f043b20044e7b700313a800000e02f0090
:1027880000806000e104200001007000303a8800f9
:10279800003a8000004088000000eb00003a880002
:1027a8000080fa00000006000800fa0020079800e0
:1027b80031079800ae00900050d020000009b80002
:1027c8002e0090006000b900030278000002420069
:1027d800be00900050d020000088b90000024200de
:1027e80084017800028fbe00050037000060fe00fb
:1027f8000080eb008080eb001e0f40005e974800d1
:102808001e00be00e00f5000e08f5800f7ff3a00ae
:102818000080fa00000006000800fa00200798006f
:1028280031079800ae00900030002000000ab80080
:102838002e0090006000b9000501780000014100f9
:102848003e0090006300b900000141008202780058
:10285800048fbe00050037000060fe000080eb001a
:102868008080eb001e0f40005e9748001e00be00ef
:10287800e00f5000e08f5800f7ff3c000080fa009e
:10288800000006000200fa00004080000108200055
:10289800010060000000e00007003a0000408000ee
:1028a800610060000000e00003003a001000200012
:1028b800000f7800020037000000eb00000f7800de
:1028c8001e0078000080fa00000006000000fa00f0
:1028d8008020a9000080fa00004006000000fa00ed
:1028e8008060a9000000fe000080fa000040060099
:1028f8000000fa008040a9000080fa0000400600ad
:102908000000fa008080a9000080fa00004006005c
:020000040000fa
:10291800000800000200000000000000020800009b
:10292800020000000200000000000000007e00001d
:10293800c000000000000000007f0000c000000090
:1029480000000000080800008800000002000000e5
:102958006808400008180800000000000000000097
:10296800000000000002080002023e00083f0800c4
:102978003e083e00083e08003e082e000800000001
:10298800000000000000000000000000000000003f
:102998000000000000000000000002000801010023
:1029a800660867000866080066086600086608008a
:1029b80056080000000000000000000000000000b1
:1029c80000000000000000000000000000000000ff
:1029d80001000000008e08008f088e00088e080095
:1029e8008e088e00087e080000000000000000002d
:1029f80000000000000000000000000000000000cf
:102a08000000000000000000e27e0000120000004c
:102a1800020000000100020000040000080010008d
:102a280000000000202b2d0023300000f47e000061
:102a38000800000002000000686a6c00747a4c000c
:102a480000000000c07f0000060000000200000037
:102a58000400000000000000fc7e000002000000ee
:102a680000000000c07e00002200000002000000fc
:102a7800303132003334350036373800396162007e
:102a88006364650066003000313233003435360047
:102a980037383900414243004445460000000000f1
:102aa800040800000200000002000000010000000d
:102ab80006080000020000000000000000000000fe
:020000040000fa
:102ac8000400fa00008fbe0021e2a90021a2a9009b
:102ad8002182a9002162a8001122200091407800db
:102ae800c0cfb30000c0600021e2b70020e2a90017
:102af80020c2a90020a2a9002082a9002062a90062
:102b0800012220009140780090cfb30000c06000ff
:102b180020e2b7002002a9001e00be004409dd0023
:102b2800cc01de00830171004401dd0000a0250016
:102b38002126200065fc07000000e90040118800fc
:102b480023e2a90023c2a90023a2a9002362a900a5
:102b58002342a80022c2bf00f043b20022e2b7001d
:102b680022a2a900004024009005880021e2a800c4
:102b78002342a8000080fa00000006000000fa00c6
:102b880022c2bf00614060000080fb000080fa00a4
:102b9800000006000200fa00000f78000900370064
:102ba80023c2bf00624060000004e000fcff3a005e
:102bb8001e007800104078000000fb0020118800fb
:102bc8001e0fe8001e007800104078000004e000a6
:102bd800f3ff3a000080fa00000006000200fa0045
:102be800004f78001e00fb00201188000080fa00ca
:102bf800000006000000fa00301180000000fb0011
:102c08000080fa00000006000000fa00889fbe005d
:102c18008a9fbe008c9fbe00cdfe070000202c00be
:102c280011002000a6ff0700d5fd0700e0152900c8
:102c3800801f780047f607008f87e900b016290043
:102c4800801f780043f607008f87e9000efe070013
:102c580030002000adfe07008004780050002000fe
:102c6800aafe07000005780040002000a7fe070024
:102c78008005780070002000a4fe07000006780098
:102c880010002000a1fe07008006780060002000e8
:102c98009efe0700000478000000eb009bfe070082
:102ca800891f78008a1f78008b1f78008c1f780096
:102cb8008d1f7800881f7800801f7800c01a2900af
:102cc800801f780023f60700f087570010002000c7
:102cd80001002000b4fe0700ebfd070010002000f3
:0c2ce80001002000b0fe0700d9ff3700fb
:020000040000fa
:042cf4000000fe00de
:00000001FF
