:020000040000fa
:080000000002040000000000f2
:020000040000fa
:10000800d8020000aa0a0100c80a0100e80a010093
:10001800080b0100d8020000d8020000d802000036
:10002800d8020000a8f90000d8020000ba1a01009e
:10003800e21501003cf90000d8020000d8020000d7
:10004800d8020000d8020000d8020000a61701005c
:10005800d8020000d8020000d8020000d802000030
:10006800d8020000d8020000d8020000d802000020
:10007800d8020000d8020000d8020000d802000010
:10008800d8020000d8020000d8020000d802000000
:10009800d8020000d802000092d90000d80200005f
:1000a800d8020000d8020000d8020000d8020000e0
:1000b800d8020000ccf800005cf80000ecf7000063
:1000c8007cf70000d8020000d8020000d802000027
:1000d800d8020000d8020000d8020000d8020000b0
:1000e800d8020000d8020000d8020000d8020000a0
:1000f800d8020000d8020000d8020000d802000090
:10010800d8020000d8020000d8020000d80200007f
:10011800d8020000d8020000d8020000d80200006f
:10012800d8020000d8020000d8020000d80200005f
:10013800d8020000d8020000d8020000d80200004f
:10014800d8020000d8020000d8020000d80200003f
:10015800d8020000d8020000d8020000d80200002f
:10016800d8020000d8020000d8020000d80200001f
:10017800d8020000d8020000d8020000d80200000f
:10018800d8020000d8020000d8020000d8020000ff
:10019800d8020000d8020000d8020000d8020000ef
:1001a800d8020000d8020000d8020000d8020000df
:1001b800d8020000d8020000d8020000d8020000cf
:1001c800d8020000d8020000d8020000d8020000bf
:1001d800d8020000d8020000d8020000d8020000af
:1001e800d8020000d8020000d8020000d80200009f
:0801f800d8020000d80200004b
:020000040000fa
:10020800d8020000260b0100440b0100640b01001a
:10021800820b0100d8020000d8020000d8020000ba
:10022800d8020000a8f90000d8020000ba1a01009c
:10023800e21501003cf90000d8020000d8020000d5
:10024800d8020000d8020000d8020000a61701005a
:10025800d8020000d8020000d8020000d80200002e
:10026800d8020000d8020000d8020000d80200001e
:10027800d8020000d8020000d8020000d80200000e
:10028800d8020000d8020000d8020000d8020000fe
:10029800d8020000d802000092d90000d80200005d
:1002a800d8020000d8020000d8020000d8020000de
:1002b800d8020000ccf8000090020100ecf7000022
:1002c8007cf70000d8020000d8020000d802000025
:1002d800d8020000d8020000d8020000d8020000ae
:1002e800d8020000d8020000d8020000d80200009e
:1002f800d8020000d8020000d8020000d80200008e
:10030800d8020000d8020000d8020000d80200007d
:10031800d8020000d8020000d8020000d80200006d
:10032800d8020000d8020000d8020000d80200005d
:10033800d8020000d8020000d8020000d80200004d
:10034800d8020000d8020000d8020000d80200003d
:10035800d8020000d8020000d8020000d80200002d
:10036800d8020000d8020000d8020000d80200001d
:10037800d8020000d8020000d8020000d80200000d
:10038800d8020000d8020000d8020000d8020000fd
:10039800d8020000d8020000d8020000d8020000ed
:1003a800d8020000d8020000d8020000d8020000dd
:1003b800d8020000d8020000d8020000d8020000cd
:1003c800d8020000d8020000d8020000d8020000bd
:1003d800d8020000d8020000d8020000d8020000ad
:1003e800d8020000d8020000d8020000d80200009d
:0803f800d8020000d802000049
:020000040000fa
:10040000ef9027000edf27000e018800000000009b
:100410000c000700c0db2c000100200011000700c9
:10042000000020000000e000020032000000020096
:1004300000000000c2050200010000000040da00d8
:100440000000fe004440a900800824000000e000f5
:100450000300320000002000a00188004440a800f2
:100460000000060091018800800078000000eb0089
:1004700015003700e280400032a0b4009101ba00bc
:10048000e280400032a0b4009102ba00e280400055
:1004900032a0b4000002eb00472bde00f507b200eb
:1004a000602ce10004003a000059eb008301e900f0
:1004b000fdff3e00040037006128e100010032002a
:1004c0000082eb00040007001101ba000200e00006
:1004d000e8ff3a00000006003159ba008301e90044
:1004e0000c0032002159ba008301e90008003200f3
:1004f0000400e00003003a00e280400032a0b400b3
:10050000f5ff370011d9ba008301e900faff3a007c
:100510008100e800e180400032a0b4000000060045
:100520003ccb0400000000003af204000000000090
:1005300048f304000000000066f204000000000020
:10054000f0f304000000000080f40400000000004c
:10055000c2f5040000000000acf40400000000003c
:100560006af6040000000000ec170400010000001f
:10057000728704000000000062c404000000000054
:1005800006c50400000000004eff0400000000004b
:100590002416040001000000e68d040000000000a5
:1005a0002ee6040000000000768804000000000031
:1005b0000040da000000fe001004b1000700350022
:1005c0009001b100040034007000b1000300350058
:1005d0009001b10001003c00100005000000050082
:1005e0006900e100040035006d00e1000300340003
:1005f0000002b100010032000000050010000500fb
:100600001004b100030035009001b10001003c006e
:100610001000050000000500800078001104b10002
:10062000030035009101b10001003c000050a00022
:1006300000000600101388002113880002138800b0
:100640000000060003f0a200889fbe008a9fbe0043
:100650008c1f780032020700390233006450e10039
:100660004f0032006420e1005200320003826c002f
:1006700007003b000905d0000306d000820f54009c
:100680000c065d000200390002003200890178008a
:10069000030678008582550004003d000003fd003c
:1006a0008103fd008502ea008b854200840f720001
:1006b00002003b0060001000e08018006011b800ec
:1006c0000005eb007a28e1000a00390006007800f6
:1006d000c75ddd00f707b200878075002d00370089
:1006e000828171000a017800610560008180d1007b
:1006f0000080d3008502e900f9ff3b0006044000ba
:100700008784480002003b0060041400e0841c0061
:100710000988a300070032008a817100828171007c
:10072000610164008904d1000884d3008b05e800ce
:10073000170037000978a30013003a000b00e0000f
:10074000130034008b05e9000804440089844c0040
:100750000a4474000978a3000d003a000b00e00081
:10076000070034008b05e9000804440089844c002c
:1007700001003a000b0020000978a300f7ff3200c7
:100780000001eb0002003700828171000a0178004d
:10079000a80107000cf0a70001f0a000f10137004c
:1007a0006420e10002003a00838f6c00f101330005
:1007b0000801be000200be00ea0137000001eb00a4
:1007c000a6033700889fbe008a9fbe008c1f78005a
:1007d000d30107001002200002003b000040880007
:1007e000d70137008a0062006408e10002003a0085
:1007f00000408800df0137006108e100fcff3200a3
:100800000800be00030478007200070001f0a10098
:100810000900070008f0a600040037000001be0030
:1008200091042400b0fd200086ff070009f0a70016
:1008300001f0a200cb013700889fbe008a9fbe0056
:100840008c9fbe000004be00a00107000800be008f
:10085000890678006420e1000800390004003200b5
:100860000160a000120220000240880053003700ff
:1008700091fc2300b0fd20004e0037000006eb0085
:1008800009f0a10003f82300020020000800be00c8
:10089000a10007000600340001f82300000020003a
:1008a0000801be004b0007000004be002c00200021
:1008b0000800be0093e82300320a230096000700d8
:1008c000120034000801be00d1fd2300703d2b0052
:1008d0005dff07000005be00b3f32300f27a260097
:1008e0000800be000c02070003f8230002002000ed
:1008f00054ff07000801be0053ff07000a01be00b5
:10090000340007000004be000c06e8000800be002a
:1009100001f0a10002002000039823007e000700e0
:100920000800be00160035000801be00fa010700ed
:100930000005be0032cd2c0043fb230042ff070020
:10094000809fbe001269280003d52b000a00be005c
:10095000f1010700620f210013ef2b003aff07009f
:100960000a01be00ec0107004f01be00190007009c
:100970000801be00e80107000801be0032ff0700c1
:100980000c00e0000b0032000c10a70001f0a200e8
:10099000b2fd200093fc23006260e10004003200fd
:1009a00022a9200063f023000c10a70063f82300a5
:1009b00025ff07000df0a70001f0a2004f06be00c2
:1009c0004f05be004f04be00000006000081eb0092
:1009d00005023700889fbe008a9fbe008c1f7800ea
:1009e0004f0107005601330003866c006450e1009c
:1009f0002e0032006420e100330032006150e1003b
:100a00002f0032006120e100310032008585550061
:100a1000eb07b000090020000804200005003700a3
:100a20000804440089844c000a0031000603430096
:100a300087834b000001530081815b00f8ff330086
:100a40000203be000800a0000804440089844c0092
:100a5000f6ff3900c639dd00830173000100320062
:100a6000130020008904d1000884d3000998a30052
:100a7000050032000800a7000300a0008904d1008f
:100a80000884d3008b05e8008904d1000884d300d2
:100a90000001eb000281d200e600070001f0a10096
:100aa0000cf0a70001f0a0002e0137006420e10047
:100ab000300132000801be000200be00f7ff37001f
:100ac0006120e1002b0132006000b800f3ff370025
:100ad0000000200001f82700f0ff3700839f680026
:100ae0000100e00002003d0060001000e0801800fe
:100af0000300e00002003d0060011100e0811900e8
:100b0000b60207004f00e00002003b00600010004a
:100b1000e080180000000600140020005d0337008c
:100b2000f4ff2f005b0337000001be00e700070061
:100b30000470a70003f0a1006509b100160032009f
:100b40000d0035006828e10006003500f0ff2f0099
:100b5000f1ff27000300e00013003b000100280024
:100b60000000050000004000818048008502e90087
:100b7000fcff3a0008003700f88f420002003c00fa
:100b80008000eb00000005008100d1000080d30050
:100b90008502e800fcff3a000300e00002003b0091
:100ba00060001000e0801800000006000001be0098
:100bb000c60007000470a70003f0a10003f8a3001b
:100bc00013003a006509b100100032000900350039
:100bd0006928e1000200350001002800000005003e
:100be00000004000818048008502e900fcff3a00d7
:100bf00000000600f88f4200050035008100d1009a
:100c00000080d3008502e800fcff3a0000000600e7
:100c10008000eb0000000500881f780001047800c8
:100c20000100e00005003d0060001000e0801800b9
:100c300002003b0001f02c00030037000400070015
:100c400008f0a70001f0a0004f04780000000600a3
:100c5000889fbe008a9fbe00010578000000e0006a
:100c6000180032000004be006011b8006b092000bb
:100c70000982cf00020039000882cf000441b00091
:100c8000694252000e00320008003b008281710070
:100c9000610164008904d1000884d3008b05e80059
:100ca0000442e800f9ff3a00050037000804440058
:100cb00089844c008b05e9000442e900fbff3a00ff
:100cc0005c0007004f05be004f04be000000060098
:100cd0000001eb00c80207000400320002002000ff
:100ce00003f8230001f0a70056fe070000000600ed
:100cf0000400200000003700889fbe008a9fbe00cd
:100d00008c1f78004f26dd00850007008c00330023
:100d10006120e100430032006250e10041003e00ea
:100d20003e0039006420e1003c003200058255009d
:100d30000f003b000402e80038003a00800f530027
:100d4000818f5b00350034000800be0003f0a10075
:100d500001f0a60003f0a0000cf0a7003afe070087
:100d6000800037000603430087834b000c46460093
:100d70000005530081855b00020033000a03be00ba
:100d80000c00a0000402e900f6ff3b008505780096
:100d90000602430087824b0004003a006000b8005e
:100da00009f0a70001f0a0006e0037000002520019
:100db00081825a000704e000040033000603430068
:100dc00087834b008b05e900faff3700090578009f
:100dd0000604be000203be006011b8001500070043
:100de000e00f5200e08f5a000700350002003c007f
:100df0000c08a300040032000601be0003f0a000ae
:100e00000cf0a70010fe07000a85680001f0a100a1
:100e10000af0a70001f0a000520037000800be0051
:100e200050003700100220000cf0a600004088009f
:100e30005000370081002000618055000b003d000c
:100e40000b00200061fe2f000100e1001d003400b6
:100e500082817100610164008904d1000884d3009b
:100e60000000e800faff3a00710020006100640011
:100e700003007000020060000900320061044400b9
:100e8000e0844c000988a500050032008b05e800cd
:100e90006808e10002003a008904d1000884d30008
:100ea000f20f20000258e10005003d00c75ddd00a3
:100eb000f907b2008980750008007800000006007c
:100ec0000bf827008b00780000000500c70ade0041
:100ed000f107b200f50fb20008003200e1cf420086
:100ee000020032000170a00024000500810f700094
:100ef000010032000408050044000500810f700065
:100f000002003a00140005008502e90000004000dc
:100f100081c04800fcff3b000170a00024000500d8
:100f20000004be00e9ff07000003be000405be0088
:100f30000200be00e5ff0700844f750000000600b8
:100f40000200be006450e100050036006420e100ac
:100f5000020036000968a30001003a000800be0044
:100f60000160a0004f0678004f05be004f04be0090
:100f700000000600f0ff2f00f1ff2700f9ff370007
:100f8000889fbe008a9fbe008c9fbe00a6010700fe
:100f9000850478000005be006420e10049003e00a1
:100fa0006220e10003003200090035000bf8a300c5
:100fb000440032000bf8a3000800320010022000a9
:100fc00000408800f0ff2f00f1ff27003d003700b0
:100fd00001f82f00000020003a0037003d00070014
:100fe00098fd07000006be000a00be00324f200038
:100ff00053f32300cafe0700060034000c00be00b5
:10100000340007008ffd07000006be000a00be0086
:10101000020037008904e9000c00be002d00070023
:101020003d0007002b00070087fd07000001be0000
:101030000c00be0067fe07000005be000001be00f8
:10104000350007000006be00a2f32300430d2c006c
:101050007dfd0700809fbe000c00be00d2e327008c
:10106000d3f02b002c0007004f01be0059fe0700f3
:101070000006be000a01be00270007000a01be00ec
:1010800071fd07000006be006148b900e2fe0700de
:101090000005be0032082800e3952b001e00070063
:1010a0000c01be0068fd07000006be000a00be007d
:1010b0000200280013f32300170007000c01be00f4
:1010c00061fd07004f06be004f05be004f04be0085
:1010d0000000060003f0230002000500811f7800d5
:1010e0000100e00002003d0060001000e0801800f8
:1010f0000300e00002003d0060011100e0811900e2
:10110000460107004f00e00002003b0060001000b5
:10111000e080180000000600889fbe008a9fbe0085
:101120008c1f78007eff070085ff330003866c006c
:101130006450e100240032006420e1002700320006
:101140006150e100220032006120e1002100320004
:101150008b854200eb07b1000134b800003ab800bb
:101160000804420089844a00013ab8000030b800ff
:101170008880400009014a0004003300000040005c
:1011800081804800020149008b05e900c909dd00a2
:10119000830170000100320013002000c814de003b
:1011a0004814dd004709de001200b200c808de0066
:1011b000088470001fff070001f0a1000cf0a700d9
:1011c00001f0a00067ff37006120e10069ff3200f5
:1011d0000801be000200be00f7ff37006150e100c9
:1011e000fcff3a0063ff3700889fbe008a9fbe0065
:1011f0008c9fbe00820578000004be0033ff07000c
:101200000800be006420e1000700390002003a0037
:10121000f1ff2700f0ff2f000160a0001202200064
:1012200002408800550037006120e10003003a00c9
:101230000b00a70001f823005000370001f0a100c7
:10124000020021009364240033fe07000800be0062
:1012500004003500b2fd2000930c2400a4fe07001a
:101260000004be000005eb000b00a6004f0dde00e1
:1012700001f0a1000004be0032982f0023ea2300f1
:10128000a5ff07000001eb0003f023000b00a700ff
:1012900003f82300ecfc070023fe07000000a70072
:1012a0000a00a2005cfe07000b00e0000300320011
:1012b0000200200003f02300e2fc070001f0a2007e
:1012c0000006be00020020009304240092ff0700e5
:1012d0000801be00dcfc0700809fbe000c00be00c1
:1012e00022a22a00d3a723008bff07004f01be00d4
:1012f000d5fc07000004be0001f0a10002002000a0
:101300000398230004fe07000800be001900350002
:101310000001be0080ff07000006be00b2c5290024
:10132000e36223007cff070022222b00f3942b00b2
:10133000c5fc07000c01be0077ff0700e273280020
:1013400083c02300c0fc07000c01be0072ff070031
:1013500042aa2a00a3e22b00bbfc07000c01be003e
:101360006dff07000801be006bff07000801be000b
:10137000b5fc07000a00a70001f0a2004f06be005e
:101380004f05be004f04be00000006000001eb0048
:1013900095ff3700889fbe008a9fbe008c1f780093
:1013a0000004be00c9fe07000478a30026003a002e
:1013b0006120e1002500320009f8a30025003a0071
:1013c0006420e10021003200f507b1000508a30008
:1013d0000200320000004000818048006044b800f4
:1013e000031020000200200000004000818048001f
:1013f0000805440089854c000a0541008b85490099
:101400000a0550008b855800030033000a00be0017
:1014100002047400838474008301d1000281d3002c
:10142000830f7100f0ff3a008904d1000884d300d3
:101430006001490082017800c1adde00fb07b00009
:101440007cfe0700c7fe37000960a0000800be0050
:10145000c4fe37001202200002408800f0ff2f0077
:10146000f1ff2700bffe3700889fbe008a9fbe00a5
:101470000004be0095fe07000800be006420e100e5
:101480000700390002003a00f1ff2700f0ff2f00ab
:101490000160a00012022000024088004c003700ca
:1014a00001f0a10002802000935c24009afd070057
:1014b0000800be0004003500b2fd200093042400a3
:1014c0000bfe07000004be0032982f0023f2230019
:1014d00011ff07000200200003f0230001f0a70025
:1014e00003f0a00058fc07008ffd0700801f780064
:1014f000c9fd070001f0a2000005be0002002000a7
:1015000093fc230004ff07000801be004efc070007
:10151000809fbe000a00be0022a22a00d39f2300a3
:10152000fdfe07004f01be0047fc07000004be009f
:1015300001f0a100020020000398230078fd0700bd
:1015400003003d000000200001f8230018003700d0
:101550000800be000001be00effe07000005be004f
:10156000823b230043dc2b00ebfe07000801be009a
:10157000e9fe07000801be0033fc07000004be00be
:101580000a00be0052372300f3c12300e2fe070029
:10159000f27a2b00b3ed2b002bfc07000a01be00f2
:1015a000ddfe07000200200003f8230026fc0700f0
:1015b0004f00a600030037000801be0003f0a200a0
:1015c000020037000001be000800be0001fd070058
:1015d0004f05be004f04be00000006006022b800a8
:1015e000060220000000d0008180d2000482d200d8
:1015f0008582d2000000a0000202520083825a00bd
:10160000030031000202420083824a000000a10070
:101610000603e900f3ff3a0000000600efff0700b1
:101620000400be00000006000003be0027fe070005
:101630006220e100020032000600be000500050045
:10164000e507b100f107b20004f0230084807000c8
:1016500007f0a70001f0a00024000500889fbe004d
:101660008a9fbe008c9fbe000206780001f0a70092
:101670000cf0a0000004be0014fe07000800be002d
:101680006420e1000700390002003a00f1ff270062
:10169000f0ff2f000160a00012022000024088002d
:1016a0005100370009f0a1000800be000200200030
:1016b00003f823001afd0700f4ff3c000800be00f9
:1016c000020020000398230013fd07000800be005d
:1016d000300035000200200003f0230010fd070059
:1016e00005003c000800be000801be008afe07009d
:1016f0000005be000e0037000c10a2000000200004
:1017000001f823000801be00cefb07000200200004
:1017100003f0230080fe07000005be001dff070048
:101720000200200003002c007bfe07000004be0026
:101730000a00be00b2d02800130b2c00c2fb070029
:101740000a01be0074fe0700020f2500330b2400bf
:10175000bdfb0700809fbe000a00be0052062200ab
:1017600013f02b006cfe0700b2662100f3f6230095
:10177000b5fb07000a01be0067fe07004f01be006f
:1017800094fc07000801be0063fe07000801be00cc
:10179000adfb07000c00a70007003700b2fd2000da
:1017a00093fc23000c10a700a7fb07000cf0a70078
:1017b00001f0a2000c0037000cf0a7000200370077
:1017c00001f0a20004003700b2fd200093042400c1
:1017d0000c10a60003003700b2fd200093fc23008c
:1017e0000c10a70098fb07004f06be004f05be0077
:1017f0004f04be0000000600889fbe008a9fbe0006
:101800000003be00b1fd070085057800828152000b
:10181000020020006220e10004003a00f307b1005a
:10182000040035007718e100040035000600be0012
:10183000140037006000b8000f003700f50f2000db
:10184000faff2f008502d1000a85d3008301e90049
:10185000fcff3b008184620000046500890f740076
:10186000f2ff32008582ea000a85ea008184620084
:10187000000465006ffd070007f0a70001f0a0005d
:101880000081eb000200e0004f05be004f04be00e7
:1018900000000600889fbe008a9fbe00841f78005b
:1018a0009ffd07004f00780011003300f0ff2f006c
:1018b000838f6c0006003b00040565000a00a7004a
:1018c0000800370009f0a6001000200008003700cb
:1018d000820f5400838f5c00030039001000200049
:1018e00001003e000000200009f0a7000000ea000f
:1018f0004f05be004f04be000000e00000000600df
:10190000e4874700889fbe008a9fbe008c9fbe0070
:101910008e1f78000004780081067800e08f560062
:1019200003003200880e7800010037000804e80048
:101930009804fb000900780029fb0700e00f500025
:10194000faff3a00d1022000818f540008003a00cb
:101950000804e8001ac0b3006000b8008005eb007e
:101960000b067800e4c2b3000ecdb30006003700ca
:1019700000457800b0022000808f5400f6ff3a0046
:101980000804e800f4ff37007001650004003a0025
:10199000984f120002003a000a44a0001b003700d2
:1019a000984478000901fb000203b100e90f5100df
:1019b00018003e000a14a0000a01fb00e98f550040
:1019c0000f00320070016100010032000c06e900d6
:1019d0008b05e800a20020000300200084bf9f00c8
:1019e000430e07000ec144000281fb0003002000eb
:1019f00002004000838048000fba970003003700c0
:101a00007001610001003a000c06e8000804e800db
:101a1000ddff370052c6b30082cf5400040032000d
:101a20008005eb0052c4b30082cf54002e003a0070
:101a300058417800d3c2b300834f510002003a00ee
:101a40000a34a00003003700b3c2b300834f510033
:101a500004003a000804e800020037000804e80027
:101a60000100370004c3b3009841780002c3b300fb
:101a700084cf5100f9ff32000302fb000403b100e0
:101a80008005eb00e90f520014003e0082c55100b2
:101a90008b85fb00d84178000302fb000403b100f2
:101aa000e90f52000d003e006a5ab90082c1510090
:101ab0008385fb0084854500d84178000302fb0044
:101ac0000403b100e90f520004003e006a5ab90055
:101ad00002c151008285fb008485450068016500d4
:101ae000010032008b05ea00e08f5600030032004f
:101af0006201650001003200880e780046fc070094
:101b00000004be006011b80003fc0700000178006b
:101b10006000b800e00f5100560032008c8545008f
:101b200032f82f00828f550003003d002202200072
:101b3000024088004f00370000082000808f5500c9
:101b40000700340020022000004088006105650085
:101b500043003a000000200001f82700450037004c
:101b6000e08f55001a003d008b05ea0006003700a3
:101b7000922f2000530125000800be0095fb0700ae
:101b80000004be00ea855500e98f5500f8ff3c00cf
:101b90000600370002002000031224000800be00e7
:101ba0008cfb07000004be008b05e900e08f5500a8
:101bb000f8ff3a0002002000030820000800be00e1
:101bc000d5fb0700e00f500020003d001a00370051
:101bd000e08f550007003a001c003700922f2000cc
:101be000530125000800be004bfd07000004be00a5
:101bf000ea855500e9cf5500f8ff3e0006003700a2
:101c000002002000031224000800be0042fd07006d
:101c10000004be008b05e900e08f5500f8ff3a0094
:101c2000f2ff2f00f3f727000800be00bcfb0700ff
:101c3000e00f500005003400610565000b003a001c
:101c400000002000010820000a003700610565003f
:101c50000100320009f0a2000800be0005003700b4
:101c60000000200001f82f000200370000002000d3
:101c7000010828004f0778004f06be004f05be0040
:101c80004f04be004f00b100000006008000eb00d2
:101c90001bff07000000060002c2b300010037006e
:101ca0000000e8009040780082cf5000fcff320036
:101cb000e9cf5000faff3200d2c2b30082cf500009
:101cc00003003a000000e80012c0b300050037002e
:101cd0000041eb00b3c2b30083cf500001003a00d3
:101ce0000000e8008000eb00050037006a0ab90038
:101cf00001fd2f0084804000838040000000e80048
:101d00009001fb0004fd2f0003024200e90f520086
:101d1000f6ff3600e04f5100010032008100ea007a
:101d20000100780000000600889fbe008a9fbe0068
:101d30008004780000c2b30039447800804f54001a
:101d4000fdff3200e94f5400fbff3200d0c2b30068
:101d5000804f540003003a00394478001ac0b300a1
:101d6000050037000045eb00b0c2b300804f5400bf
:101d700001003a00394478006000b8000bcdb30090
:101d800009003700a200200003002000580d0700c2
:101d90000b4144000281fb000300200002004000d0
:101da00083804800394478000881fb000203b100b9
:101db000e90f5100f3ff3600e04f550002003200fa
:101dc00060001000e08018004f05be004f04be0008
:101dd000000006008001780002003700b159780049
:101de000040178000202e900e00f5100fbff3a0015
:101df0000000060080017800020037008159780059
:101e0000040178000202e900e00f5100fbff3a00f4
:101e100000000600889fbe000004be0006003700d8
:101e20000000fb00890078007c020700e10f400001
:101e3000050032000804e80018407800e04f500028
:101e4000f7ff3a000000eb004f04be000000060060
:101e5000881f780041ba2400eeff070000047800d4
:101e600041ba2400a00020006c020700080078009e
:101e70004f0478000000060080017800060037005b
:101e80000201e9001142780084597800e04f5200c5
:101e9000060032008100e800e00f5100f8ff3a0030
:101ea000020037008059eb00010178008200e90050
:101eb000e00f5100fbff3a00000006000c00fa00a2
:101ec000a0bf9f00c0bf9f0099020700b0bf9f0046
:101ed000f0bf9f00100c2000d0bf9f0074815700fe
:101ee000efb097006c805700340007000080fa00c4
:101ef00000000600881f780030678200c6010700d6
:101f00000004780008007800b5f90700e00f5000e1
:101f1000f9ff3a00e10f440003003200316782000c
:101f200008007800890207004f04780000000600ce
:101f3000889fbe008a1f78000004780081447800e2
:101f40000205780000fd2f0008004000e90f500056
:101f500002003e00000478001000370008007800fe
:101f6000a7f90700e00f500005003200e00f550010
:101f70000300320008007800a7f907000004780089
:101f8000080078008cf907008000780000c0eb00a2
:101f9000e08f5000060032007805b1008984fb0014
:101fa00000c0eb00890f540001003d00084078009c
:101fb0004f0578004f04be0000000600f28747007e
:101fc000889fbe008a9fbe008c9fbe008e1f780037
:101fd00080017800e1b79f00d2b79f0033678a0085
:101fe0000000eb00b0b79f0080407800e1ef9f0059
:101ff0005b0137006fb097000000e800e0b79f007a
:102000000885fb000a00780075f90700e00f500012
:1020100002003200b7ff07005101370051c2b30080
:10202000814f54003f013a0021c0b30000477800bf
:102030006fb29700014578008406780004003700ed
:102040002ac0b300010037004ac0b3000d02780077
:102050003d44780081c6b300814f5400f8ff320040
:1020600015003e00f0c05000814f54002f00320098
:102070000a003e00ecc05000814f5400270032009f
:1020800086003e00e04f5400bb003200a1c2b30006
:10209000814f540081003a001e00370031c6b30062
:1020a000814f5400600032008140e800814f5400ad
:1020b0007a003a008d00370031c7b300814f5400d9
:1020c0002100320007003e00e7c05000814f54005d
:1020d00012003200e3c04000814f54006f003a000c
:1020e0008700370051c7b300814f54007f00320092
:1020f000e3c04000814f540068003a00cae79f00e7
:1021000000467800edb79f000000eb00b0b79f00dd
:102110000b0037000e47e800ccff3700e24f5500b8
:10212000c9ff32008ac0b300c8ff3700cae79f006a
:1021300000467800edb79f0011002000b1b79f0066
:102140000dc1b3007200370000467800edb79f0064
:1021500068ff0700e04f570004003a005fb09700a7
:10216000c0007800d0b79f00c1b79f0030678200e1
:102170002901070000047800e10f440014003a0030
:1021800008007800f2003700efb097001100fb0064
:10219000800f540005003a000a007800c0b79f0085
:1021a0008100e800e1b79f0017003700e04f5700bb
:1021b00001003a00085d78000c46e9000d0032008d
:1021c0003067820014010700000478000100370026
:1021d0004fb597000800e800e10f500008003600f6
:1021e00008007800fef80700e00f5000e6ff32001c
:1021f000030037000a007800c0b79f0002003700d4
:102200008a007800c1b79f00e04f5700d4003a0021
:102210006fe897000040e800e0ef9f00cfb0970024
:102220008e487800ce00370000467800edb79f005a
:10223000e04f570008003a006fe897000040e800c0
:10224000e0ef9f00dfb0970041007800d1b79f001a
:1022500000047800010037004fb497003067820017
:10226000ed00070080007800e18f400002003a0096
:1022700001007800b6003700e04f570001003a0037
:10228000015c78000c46e9004240a900f3ff3c00e5
:1022900008007800c0b79f00b10037000884fb0039
:1022a00000fd2f0008004000e90f500009003e002b
:1022b0000400780078fe0700010037008d06e80072
:1022c0009d00fb000103b100e98f5000fbff3600c9
:1022d0005eff3700edb79f0030678200ce00070039
:1022e000800f540095003a009d003700cae79f0018
:1022f00000467800edb79f00adc0b3000400370082
:10230000cae79f0000467800edb79f008dc0b3007c
:10231000f8fe070030678200bf0007000002780067
:102320000040eb00b0e79f00d3022000830f520073
:1023300005003a0030678200b7000700000278000d
:1023400011c0b300b1e79f003fb197008d40780006
:102350000400780084bf9f00f5fe070080417800ec
:102360000fba9700e1cf41000e003a0031678200ba
:1023700004007800750107006fe89700e04f5000f7
:1023800002003200804078007a0037003067820017
:102390003000900070006000770032000080eb0099
:1023a0007500370003032000830f520019003a0024
:1023b0003067820098000700000278008307200041
:1023c000830f520004003a003fb09700e00f500026
:1023d000070032000a00370083052000830f5200f7
:1023e00007003a00bfb09700e08f500004003200b1
:1023f000306782008800070000027800050037007f
:10240000316782000400780084bf9f004f010700fd
:102410000fba97006044b8000d85fb000b00200048
:102420000e407800a0e79f00040778000a01be0074
:102430000800be00ae0b07000004be003fb19700cd
:102440008d4078000e007800b9fe07000043780048
:102450000683fb00070020000604440087844c002c
:102460000c46e9000a003200306782006a0007006b
:10247000000778003fb197008d4078000e0078008b
:10248000abfe070080417800e1cf4100e7ff3a0052
:102490000e0278002fe797003fb197008d4078003b
:1024a0000400780084bf9f00a1fe070080407800f0
:1024b0000fba9700e1cf400003003a003167820075
:1024c0000400780021010700bfe09700e0cf500032
:1024d0000200320060041400e0841c00e04f57004a
:1024e0001f003a006fe897000040e800e0ef9f000f
:1024f000dfb097000180e900cfe09700e4cf500003
:1025000004003a00d0b79f00900078008888be0091
:1025100013003700d0b79f0090007800880878003b
:102520000f003700306782003b0007008000780012
:10253000810f55000a00320001007800e10f4000d1
:1025400003003200316782000001070008003700f5
:10255000efe89700e0cf500006003a000600370091
:102560006fb0970010447800e04f5400a1fe3a008d
:10257000efe897000180fb004f0778004f06be0090
:102580004f05be004f04be002f01b1000000060041
:102590000000fa00e88157004fb9970002000700d9
:1025a0000080fa00000006000c00fa00000278002b
:1025b000820278000000eb00e18f50000d00360031
:1025c0008100e900f1bf9f00b0bf9f00a4bf9f0042
:1025d000c4bf9f00200c2000d0bf9f0003017800e3
:1025e000850078006c80570098010700afb897000d
:1025f0008048eb000080fa00000006000000fa00ae
:1026000068815700cfb8970040ba24008f010700b7
:102610000080fa0000000600881f7800000478009f
:1026200038009000f1006000e18f500006003a0091
:10263000800078000120b20008003200980090006d
:10264000e08f500005003200380090000040a000ec
:10265000300498000080eb00200037000090a100bb
:102660003004980018009000e00f5000070034007c
:102670000000e900100498009800780011417800eb
:102680000280fb00010ce8000500370038009000d4
:102690000004b200ecff3a000800780011000700c7
:1026a000b80090000108b2000c003a00fa0f500088
:1026b00008003a0028009000e00f5000e2ff3200ce
:1026c000180090000000e80010049800180ce900c1
:1026d000ddff3700ed0f5000e2ff32004f047800bd
:1026e000000006000200fa00889fbe008a9fbe001c
:1026f000000478000000eb0010049800b80090007f
:10270000e18060000080eb0040003200a0cc24009b
:102710008040eb0090cf10000f00320089b92400f8
:102720002b1020004a0220000905450039009000c6
:102730002010b2008b0f500002003a000900780010
:10274000d1070700ec8444008a8f5400f7ff3a0059
:10275000a0cc24000048eb0058019000e00f51008d
:102760000e003a001204980012002000ea80570080
:102770004800900030080700e10f500003003a00c5
:102780006ff197000280fb002000370038009000b6
:102790000040a0003004980013003700a80090000b
:1027a000480090002408070010049800e00f500033
:1027b00003003200e10f40000d003a000300370033
:1027c000380090000040a000020037003800900060
:1027d0000003b3003004980028009000000c78003b
:1027e0000000eb00100498000080eb0007003700a9
:1027f000a8009000010c78000000e9001004980087
:10280000114178000280fb00010ce8004f05be007a
:102810004f04be000080fa0000000600889fbe0042
:1028200001047800b8009000628160008084eb00b1
:102830003c003200810178000320b20018019000b2
:1028400002003a00e00f510036003a000190a0006b
:102850003104980080047800f90fb200e00f5100b5
:1028600002003a0028009000000c7800ea8f540023
:1028700006003a00010078000008b20003003a00a8
:1028800088007800d0002000e4ff070018009000c6
:10289000d8009000810f50000b0032000000e800cb
:1028a000100498001800780009487800000ce8002f
:1028b00010c0b300a1cc240080487800ea8f5400f7
:1028c00018003a00050037008800780009407800b9
:1028d0009707070080047800120037003800900046
:1028e0000010b2000f00320018019000a800900004
:1028f000480090000508070098009000810f5000e4
:1029000004003200380090000003b3003004980047
:102910008084eb000000eb00100498002800900079
:10292000000c7800090078004f04be00000006008b
:10293000800078000041eb00b14f1100fdff3a002c
:102940000080ea000080400000000600e10f400027
:1029500019003200310190001220b200e10f510045
:1029600012003a0021029000e00f52000f003200e6
:1029700011019000d1019000830f51000d00320031
:1029800091017800848f510002003a008308e8002a
:10299000020037000201e800920098001101e900ee
:1029a0008208780000497800000006000080eb00f3
:1029b000000006000080eb0000000600889fbe00bb
:1029c0008a9fbe000084fb00d1c6b300814f500037
:1029d000210036004b062000110009000b84d800ae
:1029e00081057800720040004300dd00e9522400b8
:1029f000008044006022b8000600200007fe23008b
:102a00005001be004000be0097090700aa00200048
:102a100000027800811f7800110009008a85d80023
:102a20000002fd00cf007800690242004322dd0071
:102a3000048244005403be004402be008a09070019
:102a4000809fbe00110009000a84d80001047800ac
:102a50004f00be0010003700ea4f50001300360050
:102a6000a9002000110009000984d80001047800a1
:102a7000690040004300dd00e9522400008044006a
:102a80006022b8000600200007fe23005001be00af
:102a90004000be00740907004344dd008884440000
:102aa0003902be002903be00080037004344dd00a0
:102ab000e0522400080440006022b8000600200014
:102ac00007fe23003800be002801be00660907008b
:102ad0004f05be004f04be0000000600889fbe00e8
:102ae0008a9fbe00d1c6b300e04f500025003d00d4
:102af0000040ea000004fb00814f50000b0034004e
:102b000042062000110009000204d80001007800ec
:102b1000a9002000110009000900d8006900400048
:102b20004300dd00ea52240023003700ea4f500042
:102b300011003400a2002000110009000204d80096
:102b40000104780080007800e9804000c308dd00bf
:102b5000e0522400810040004344dd0008004000b2
:102b60003002be002003be005101be004100be0085
:102b70003d090700320037004344dd00e0522400e5
:102b80002c0037000004fb00814f50001c00340073
:102b900042062000110009000204d800010078005c
:102ba000a9002000110009000900d80069004000b8
:102bb0004300dd00ea472400000045003002be006b
:102bc0002003be008b0920008a8545003b00be0023
:102bd0002b01be0024090700809fbe0011000900e0
:102be0000904d800010478004f00be004344dd0012
:102bf000080545003a02be002a03be00dcff37008c
:102c0000ea4f500009003400a20020001100090022
:102c10000204d8000104780080007800e9804000b8
:102c2000c308dd00e0472400caff37004344dd004d
:102c3000e0472400080440003800be002801be0020
:102c40004f05be004f04be00000006002f05b00077
:102c5000889fbe008a9fbe008c9fbe008e1f78009a
:102c600000037800f1a79f0082af9f000000eb00f7
:102c7000f0b79f000607780077063700ffa097009f
:102c80008100e800f1a79f0052c2b30082cf52003a
:102c900006003a000004eb0006c3b30003c2b30011
:102ca000b1c2b3007fa09700120037003e01900030
:102cb0000204b200040032009e01780085497800c9
:102cc000030fe800070037000501fb008e007800c5
:102cd00002007800d1fe070000017800e10f4100fa
:102ce0005d0632007fb197000201e800f2b79f0055
:102cf0005906370090427800d4c2b30084cf520006
:102d00000b0032000001e80084cf520005003c00b7
:102d100083cf52000900320081cf52000e003a00ea
:102d20000800370086cf52000b003a00070037003a
:102d30000830a0000000e800eeff37000800a00007
:102d4000030037000810a000010037000820a00091
:102d500002007800e7ff3700f0a79f00e20164005f
:102d6000010032000800a100e80164000100320007
:102d70000820a1008501fb000303b100e98f510089
:102d80000d003e00000020007fa197006a00b900fe
:102d90000003b1009200fb0001004000d200fb00e4
:102da0000103b100e98f5000f8ff360090b79f0093
:102db000f2a79f000c0037000003eb0096b79f00be
:102dc000a3c2b30083cf520007003a008fab970035
:102dd000c704780087af9f0099b79f007fa5970031
:102de0000a05e800faa79f00e3c2b300ffa5970019
:102df0009bcf11001f003a0008e0a000e8b79f0039
:102e0000e4c151008b05e800fba79f001b40780040
:102e1000834f500003003200000020008b01780037
:102e20000c0037000fa99700c201780082af9f0005
:102e300093af9f007fa297000402e800f4a79f00d1
:102e4000100037006a00b9000003b1000200400022
:102e50008301e8001301fb0001fd2f008280400088
:102e6000e98f5000f7ff360090af9f00f3a79f0057
:102e70000400370008c0a000e8b79f008002eb0004
:102e800095af9f00ccc6b3006fb19700ffa197002c
:102e900033447800a8679f008c4f54002b00320009
:102ea000e2b79f00f3a79f00c3c6b300834f54004f
:102eb00014003c004cc6b3008c4f5400e6003200b6
:102ec00009003c00f4c15100834f54002d00320032
:102ed000ebc14100834f5400b1003200e04f540079
:102ee000e2053200d300370063c6b300834f5400bd
:102ef0001c003200e3c14100834f5400cd003a0072
:102f0000d50037003cc7b3008c4f5400240032007a
:102f100007003c00f3c6b300834f54001500320095
:102f20008341e800834f5400c2003a001500370087
:102f300053c7b300834f5400c4003200e3c14100c3
:102f4000834f5400bb003a0011003700700061004d
:102f50000100280001003a00010120000101710078
:102f6000cbff37006fb3970006a0a000e6b79f0025
:102f7000b9003700efb397000760a000e7b79f00e4
:102f8000b50037006fb497000850a000e8b79f0065
:102f9000efb497000970a000e9b79f00ae003700ba
:102fa0000fad97004a0478008aaf9f00a8b79f0032
:102fb000e00f540002003a0060ff2700a0b79f0016
:102fc0008000eb00b1b79f002fb09700bfb0970013
:102fd0004fb19700dfb19700010037008500e8008e
:102fe0008102780061427800e04f5200fbff3a0016
:102ff000a0b79f00b1b79f00c2b79f00d3b79f0093
:103000009faa9700e08f5200050032003fb397005f
:10301000868f52000200310085037800b7b79f0009
:10302000bfb297000006eb001fb49700850f540055
:103030000100360005065400efb497006884640070
:103040002e003a008c0178000dc2b300100037004a
:103050003e0090000004b200040032001e00780020
:103060000d487800000fe800050037008e0078005a
:1030700000022000e9fd0700e10f400003003200dc
:103080007fb597000a05e800fab79f008c01780029
:103090000c06e900e08f5100edff3a001700370001
:1030a0003e0090000004b200090032009e0178004a
:1030b000080178003240780080497800030fe8006a
:1030c00002047800e04f50000a003a001100370077
:1030d000080178003200fb00020478008e007800be
:1030e00086bf9f00cdfd07000fbb9700e10f40009a
:1030f000080032008d06e80006003700ffb6970092
:10310000080378002fb49700bfb497004fb597001d
:10311000dfb59700090078008004e900e00f500057
:10312000dfff3a00fdb79f00a8b79f00b9b79f0027
:10313000cab79f00dbb79f0006047800e00f540079
:1031400045053200110037003e0090000004b20037
:10315000040032001e0078000d487800000fe800df
:10316000050037008e00780000022000abfd07004c
:10317000e10f400003003200ffb097008100e8003b
:10318000f1b79f0008067800010037000dc2b300b8
:103190000c04e900e00f5600ebff3a002e05370063
:1031a0000fa997004204780082af9f0008027800c0
:1031b000cfa2de000503780086037800d4af9f001d
:1031c000e5af9f00f6af9f0087b79f000605be00e2
:1031d0000404be004844de00c84add0008847200d2
:1031e000a8679f006fb39700700663000900320064
:1031f000e04f540007003200e14f44000500320068
:10320000b8679f00c4679f0027002000b7b79f00e2
:10321000040037002fdc9700b8679f0019002000da
:10322000b9b79f003afa2f000a854700aab79f0056
:1032300073ff37002bfa2f008b854700abb79f0039
:1032400010002000b0b79f006dff3700efb097006f
:10325000010cb300e1b79f00087020006fb1970028
:10326000080661009602320008002100080461008f
:10327000020032006300200093af9f006fb29700fe
:1032800070046200090032000fa897004005be00dc
:103290004004be0080af9f00d8af9f00e9af9f0001
:1032a000faaf9f008bb79f000a0037000fa9970065
:1032b0004200be0082af9f00ee0607000002be0083
:1032c0000203be00d4af9f00e5af9f00f6af9f00a2
:1032d00087b79f006022b8006033b8005fa89700ee
:1032e000efa897007fa997008fb1970033060700da
:1032f00080027800e08f52000c003d005fac970028
:10330000efac97007fad97008fb597000bf0a20050
:10331000d8af9f00e9af9f00faaf9f008bb79f0027
:10332000efb497003900b300e9b79f000004eb0049
:10333000b8979f006022b8006033b8005fa897007c
:10334000efa897007fa997008fb197007f0607002d
:1033500080027800888f52003b0032005fa89700ff
:10336000efa897007fa997008fb19700b5070700d6
:1033700062fa2f000f014100380707003f939700c2
:103380000603e9006333b900a8002000809fbe0057
:10339000110009000803d800000378004f00be00a8
:1033a000b6979f00e00f530002003d000603e900be
:1033b000b6979f003f9697008c41ea000340780043
:1033c000c6fd07005faa9700efaa97007fab9700a2
:1033d0008fb39700240707000002be000203be005f
:1033e000a4a79f00b5a79f00c6a79f00d7a79f00cf
:1033f0006022b8000600200007ff2300ef05070049
:1034000080027800e08f520002003d000c04e900c9
:103410000c0037006022b80006002000470224009c
:103420002fa09700bfa097004fa19700dfa19700a2
:10343000e705070080027800e08f520002003500a7
:103440000c04e800b8979f009faa9700f88f5200dd
:103450000f003c000540780058fd07000002be0048
:103460000203be005fa89700efa897007fa997000e
:103470008fb19700540507000004be000205be008e
:10348000d8af9f00e9af9f00faaf9f008bb79f00b6
:103490003f969700e90f560016003c006022b800e6
:1034a0006033b8005fa89700efa897007fa9970046
:1034b0008fb197002506070080027800e08f520048
:1034c000350032005fa89700efa897007fa997000a
:1034d0008fb1970086060700e00f5000e08f58007c
:1034e000e00f5900e08f59002b003a00e10f560021
:1034f000290034000400200005002e00b6e0220060
:10350000170124002fa09700bfa097004fa197009c
:10351000dfa19700a905070080027800e08f520024
:1035200002003d007304560001003700720456008b
:10353000b8979f006f60970068fd07000002be000b
:103540000203be00a4a79f00b5a79f00c6a79f00c7
:10355000d7a79f005fa89700efa897007fa99700c3
:103560008fb197009f05070061060700a0b79f0075
:10357000b1b79f00c2b79f00d3b79f006000b800eb
:103580006011b800d0af9f00e1af9f00f2af9f0085
:1035900083b79f00190037005fa89700efa8970036
:1035a0007fa997008fb1970051060700a0b79f0031
:1035b000b1b79f00c2b79f00d3b79f007d06070039
:1035c0000002be000203be005fa89700efa89700ac
:1035d0007fa997008fb19700180707000004be006d
:1035e0000205be00d8af9f00e9af9f00faaf9f0071
:1035f0008bb79f000004eb00b8979f0013c0b30087
:10360000a3679f00c1902400100037000200fb0058
:103610004300dd00008040003002be002003be00f9
:103620002fb49700bfb497004fb59700dfb5970050
:103630000440e10005c8e10006d0e10007d8e10040
:10364000050039000241e800a2679f002f61970042
:10365000f44f5100edff3a0002437800bf9397000a
:103660009fb49700878354001fad97008a8353004f
:103670000603fb000683530096b79f00e00f55003a
:10368000020032000603e90096b79f00efb59700ed
:1036900063836500030032001fb097000000e9005b
:1036a00090b79f00efb0970064836000480032003d
:1036b0006284600061866000e00f540019003200ef
:1036c0003e0390000604b200080032009e06780017
:1036d000b8c2b300e00f56000100320008c4e80091
:1036e000884e78000d0fe8000a003700d80220004d
:1036f000e00f560001003a000884e9008e007800cf
:103700000800780045fc070080027800e18f420045
:10371000270032007fb197000201e800f2b79f0056
:1037200023003700e00f5600210032003e039000d6
:103730000604b200050032001e04780003c2b30084
:10374000034c7800080fe800060037008e00780070
:103750000002200031fc070080027800e18f420067
:1037600013003200ffb197008301e800f3b79f0018
:103770000f0037003e0090000004b2000400320049
:103780001e0078000c487800000fe80005003700a4
:103790008e0078000003200020fc0700e10f4000ad
:1037a000010032008d06e8000804e900030037003c
:1037b0000cc3b3001fb49700ffb69700e00f54008e
:1037c000ecff3c0098b79f00fdb79f007a003700e0
:1037d0006fb297006803620017003a000f003700cd
:1037e0003e0090000004b200040032001e00780089
:1037f0000c487800000fe800050037008e007800c4
:103800000002200005fc0700e10f4000010032002b
:103810008d06e8000804e900030037000cc2b3007d
:103820001fb49700ffb69700e00f5400ecff3c0078
:1038300098b79f00fdb79f00efb2970062846200c7
:1038400061866200e00f5400190032003e039000d0
:103850000604b200080032009e067800b8c2b30029
:10386000e00f56000100320008c4e800884e7800de
:103870000d0fe8000a003700d8022000e00f5600c4
:1038800001003a000884e9008e0078000800780002
:10389000e2fb070080027800e18f42004600320020
:1038a0007fb397000603e800f6b79f004200370099
:1038b000e00f5600400032003e0390000604b200c4
:1038c000050032001e04780003c2b300034c7800e8
:1038d000080fe800060037008e0078000002200084
:1038e000cefb070080027800e18f420032003200f8
:1038f000ffb397008703e800f7b79f002e0037005b
:103900003e0190000204b2000300fb00e00f5100f2
:10391000120032001e0678004300dd0000804600e1
:103920003002be002003be000800be000a01be0037
:1039300003070700a4002000050020006033b80042
:10394000060707000203be000002be0000c3b3006a
:10395000004e42000c0fe800130037004300dd006a
:10396000008046003002be002003be000800be00fa
:103970000a01be00f2060700a40020000500200096
:103980006033b800f50607000203be000002be0067
:103990000403b0008e007800040078009ffb07004d
:1039a000e10f400009003200ffb097008100e800fd
:1039b000f1b79f0005003700cd9024002fb4970089
:1039c000bfb497004fb59700dfb597002f60970001
:1039d0008041e900a3679f00e04f5000c8ff3a0014
:1039e000110037003e0090000004b20004003200d5
:1039f0001e0078000c487800000fe8000500370032
:103a00008e0078000003200084fb0700e10f4000d7
:103a1000010032000804e8003f9097000000e90030
:103a2000b0979f00020037000cc3b3007fb497002b
:103a30003f909700e00f5000eaff3c00f8b79f006e
:103a40001fa9970023c1b300f20f510001003c00f1
:103a5000afd19700a3679f002f6497008802fb00f7
:103a60001faa97008502520095af9f00e04f5400b7
:103a700011003200be0290000504b20005003200c1
:103a80001e047800e3c2b300034c7800080fe8007e
:103a9000060037008e007800e00220005ffb070080
:103aa00080027800e18f420003003200ffb29700ed
:103ab0008502e800f5b79f002f60970007fc07001c
:103ac0000002be000203be005fa89700efa89700a7
:103ad0007fa997008fb197006305070004050700d1
:103ae000a0b79f00b1b79f00c2b79f00d3b79f0098
:103af000cd9024003f003700be0190000304b200c7
:103b00000401fb00e08f5100120032001e06780015
:103b10004311dd00028146003202be002203be00d6
:103b20002fb09700bfb097004fb19700dfb197005b
:103b300083060700a4002000050020006033b800c1
:103b40008606070009c3b300094e40000c0fe800c9
:103b5000160037004311dd00028146003202be002c
:103b60002203be002fb09700bfb097004fb197005f
:103b7000dfb1970072060700a400200005002000b6
:103b80006033b800750607000203be000002be00e5
:103b90000403b0008e007800040078001ffb0700cb
:103ba00000017800e10f4100030032007fb597006b
:103bb0000a05e800fab79f00af6597000b01fb000c
:103bc0004311dd00028146003202be002203be0026
:103bd0002fb09700bfb097004fb19700dfb19700ab
:103be0005e060700a0b79f00b1b79f00c2b79f0055
:103bf000d3b79f002f6197000242e900a4679f009e
:103c0000e04f5100bcff3a000f0037003e0090002b
:103c10000004b200040032001e0078000c48780056
:103c2000000fe800050037008e0078000003200038
:103c3000fafa0700e10f4000010032008d06e800ab
:103c40000804e900030037000cc3b3001fac970061
:103c5000ffb69700e00f5400ecff3a00fdb79f005d
:103c6000efb29700688162007b0232001fb39700b9
:103c7000e00f53007802340008c2b3000606780053
:103c80003e0090000004b200040032001e007800e4
:103c900008487800000fe800050037008e00780023
:103ca00000022000ddfa0700e10f400001003200b1
:103cb0008d06e8000c06e900f1ff3a0065023700c6
:103cc000efb29700050cb20043003a00efb3970043
:103cd000e08f530005003d000fa897004005be008f
:103ce0004004be0080af9f0010003700efb0970087
:103cf000f0826000120032000faa97004401be005b
:103d000084af9f00a29f9f00b39f9f001404900068
:103d10004fc4de00c89f9f00d89f9f002f9c970034
:103d2000bf9c97004f9d9700df9d9700a8b79f000d
:103d3000b9b79f00cab79f00dbb79f000b003700e1
:103d40008fac9700c902780089af9f00050078000a
:103d5000cf80de000101780082017800a0b79f00cb
:103d6000b1b79f00c2b79f00d3b79f002fb2970093
:103d7000bfb297004fb39700dfb39700e00f520038
:103d8000e08f5a00e00f5b00e08f5b0038003d00e1
:103d9000efb297003500b300e5b79f006044b8006c
:103da0006055b8002fb09700bfb097004fb1970093
:103db000dfb197000000540081805c0002015d00cb
:103dc00083815d00a0b79f00b1b79f00c2b79f007d
:103dd000d3b79f0026003700efb09700e08f500068
:103de00005003d000fac97004803be004802be002e
:103df00088af9f000e003700efb49700f082640098
:103e0000100032000fa897004005be0080af9f0051
:103e1000ea979f00fb979f008c9f9f009c9f9f00ad
:103e20006f929700ff9297000f9b97009f9b9700c0
:103e3000a4b79f00b5b79f00c6b79f00d7b79f0034
:103e40000b0037000fab9700c602780086af9f00cb
:103e500005047800090020000a0020000b00200063
:103e6000a8b79f00b9b79f00cab79f00dbb79f00f4
:103e70009fac9700e08f54000d003a001a0020001c
:103e80009aaf9f002fb09700bfb097004fb1970037
:103e9000dfb19700e00f5000e08f5800e00f5900ad
:103ea000e08f5900020032008000eb0091af9f00cc
:103eb0006fb19700020cb200d2af9f00080420003f
:103ec000880f51003f00320003003c00e00f51001a
:103ed000080032005600370005082000dfa99700cf
:103ee000858f51001b003200050c2000858f51008a
:103ef0004f003a0013c0b300a3679f00c190240095
:103f0000100037000200fb004300dd00008040008d
:103f10003002be002003be002fb49700bfb497004c
:103f20004fb59700dfb597000440e10005c8e100f8
:103f300006d0e10007d8e1003d0039000241e80069
:103f4000a2679f002f619700f44f5100edff3a00e8
:103f50003700370013c0b300a3679f00080120009b
:103f6000090020006055b800120037002fb29700fa
:103f7000bfb297004fb39700dfb397000820e1006e
:103f800009a8e1000ab0e1000bb8e10028003900ff
:103f9000450020000804d0008984d2000a85d200a0
:103fa0008b85d2008502e900faff3a000040e80064
:103fb000a0679f002f609700f04f5000ebff3a0082
:103fc0001b00370013c0b300a3679f0088002000c8
:103fd000090020006055b800120037002fb297008a
:103fe000bfb297004fb39700dfb397000820e100fe
:103ff00009a8e1000ab0e1000bb8e1000c003900ab
:10400000350020000804d0008984d2000a85d2003f
:104010008b85d2008502e900faff3a000040e800f3
:10402000a0679f002f609700f54f5000ebff3a000c
:104030002f6397000604fb009fab9700870f540087
:1040400002003d00a7679f00040037009fac970067
:10405000888f540001003d0098af9f001fb5970066
:10406000e00f550005003200efb59700e3826500d0
:10407000020032000a05e9009ab79f0005002400fb
:104080006fb0970085026000090032009fb0970072
:104090001fa99700828f50000300340082805000d7
:1040a00091b79f00020037008001eb0093b79f009b
:1040b0002f6297000404fb008002eb00e5a79f003d
:1040c0001fb39700880f5300020034000804530008
:1040d000e8a79f00efb39700e48263004900320035
:1040e0006283630007047800e1036400e00f53007b
:1040f00019003200be0290000504b2000800320030
:104100001e067800b6c2b300e08f530001003200f3
:1041100006c3e800064e78000c0fe8000a003700de
:10412000d6022000e08f530001003a000683e90028
:104130008e00780006007800b8f907008002780049
:10414000e18f420017003200ffb497008904e800b5
:10415000f9b79f0013003700e08f530011003200c1
:10416000be0290000504b200050032001e03780074
:1041700003c2b300034b7800060fe80006003700c7
:104180008e00780000022000a4f907008002780069
:10419000e18f4200030032007fb597000a05e80076
:1041a000fab79f00efa59700e08f55000501320098
:1041b0000cc3b3000b047800ffb697003e009000dc
:1041c0000004b200040032001e0078000c487800a1
:1041d000000fe800050037008e0078000003200083
:1041e0008ef90700e10f4000010032008d06e80063
:1041f0000804e900f1ff3a00e8a79f00fdb79f001f
:10420000f00037006fa09700e00f50001700320059
:10421000efb09700e882600014003a000cc2b300cf
:1042200000047800ffb697003e0090000004b20042
:10423000040032001e0078000c487800000fe800ef
:10424000050037008e0078000002200073f9070097
:10425000e10f4000010032008d06e8000804e9008b
:10426000f1ff3a00e8a79f00fdb79f006fb19700ec
:1042700062036100e1036100e00f530019003200a6
:10428000be0290000504b200080032001e0678004d
:10429000b6c2b300e08f53000100320006c3e8004d
:1042a000064e78000c0fe8000a003700d602200006
:1042b000e08f530001003a000683e9008e00780089
:1042c0000600780055f9070080027800e18f42006f
:1042d000bc003200ffb197008301e800f3b79f00f4
:1042e000b8003700e08f5300b6003200be029000e5
:1042f0000504b200050032001e03780003c2b300bb
:10430000034b7800060fe800060037008e007800a7
:104310000002200041f9070080027800e18f42008e
:10432000a80032007fb297000402e800f4b79f00b3
:10433000a40037000e07e90000042000dfaa970060
:10434000808f52007a00320003003c00e08f520060
:104350000800320086003700000820005fab97009d
:10436000800f53005d003200000c2000800f5300ce
:104370007f003a004370dd00efb39700e08f5300f9
:1043800022003d00c8902400000044003002be001e
:104390002003be0094af9f00a5af9f00b6af9f0063
:1043a000c7af9f002fb09700bfb097004fb19700e5
:1043b000dfb1970062040700a0679f000004fb00c4
:1043c000cfc4de00090578008a0578001faa97008f
:1043d000afaa97003fab9700cfab97000800be0095
:1043e0000a01be00c20407002fb49700bfb49700b3
:1043f0004fb59700dfb597000004540081845c003e
:1044000002055d0083855d001d003700df94970085
:10441000e08f54001f0032002fb69700bfb6970000
:10442000ca902400000045003004be002005be00f4
:104430000801be000c00be0068f40700a0679f00e2
:104440000000fb00cf80de000801be00a8030700cb
:104450000001560081815e00e29f9f00f39f9f0054
:104460008001eb0083a79f000002eb0094a79f0050
:104470006f9c9700ff9c97000fa597009fa5970042
:10448000a8b79f00b9b79f00cab79f00dbb79f00ce
:104490000e003700c9902400690178002fb59700fd
:1044a000811f7800110009000285d800cf00780034
:1044b000a2002000811f7800110009000280d800ae
:1044c00001007800cf007800a0679f00af659700db
:1044d0000b43b000ab679f002500370044fd270069
:1044e0004f909700e00f500001003a0054fe270063
:1044f0004270dd002fb49700bfb497004fb597000e
:10450000dfb59700800278008502e90005003300de
:104510008b05d1000a85d3008984d3000884d30099
:10452000f9ff37006f006400644078000f00370027
:104530006370b9002fb49700bfb497004fb59700d0
:10454000dfb59700000278000402e900050033009f
:104550008b05d1000a85d3008984d3000884d30059
:10456000f9ff3700674064000043b000a0679f0078
:104570009fb29700350090000004b200070032009f
:10458000150178002f60970000497800820ae80042
:10459000e04f500007003a00130037002f639700e8
:1045a0000600fb009fb097009cf80700e10f400059
:1045b0000d003200ffb397008703e800f7b79f00b4
:1045c000090037006fb4970070046400d8979f000b
:1045d000efb497000902b200c9979f000e0578005a
:1045e0009ab79f001faf9700e00f570051ff3a00a6
:1045f0001fb79700efb5970068816500160032007d
:104600006fa09700e00f50001300340008c2b30001
:1046100000067800ffb697003e0090000004b2004c
:10462000040032001e00780008487800000fe800ff
:10463000050037008e0078000002200077f80700a0
:10464000e10f4000010032008d06e8000c06e90091
:10465000f1ff3a00fdb79f00ffa09700914278005c
:10466000a5679f00e0cf520084f93a007fb0970021
:104670004f0778004f06be004f05be004f04be0036
:104680002f05b10000000600881f780000047800a4
:1046900038009000800078001120b200e18f5000b7
:1046a00005003a008000eb0011049800a80090007b
:1046b000010c780019003700000178002220b200b8
:1046c0000000eb0021202000810f510016003a006d
:1046d000a8009000808f5000130032001801900055
:1046e000800f510010003200480090008700070042
:1046f00098009000810f50000300320038009000b5
:104700000003b300300498000000eb001004980090
:1047100028009000000c7800380090000002b200e1
:10472000010032000080eb004f047800000006001a
:104730000200fa00889fbe00a0ff9f0001047800dd
:1047400038009000800078000104b20033003a0085
:10475000e200600005003a000003b3003004980056
:10476000110498000080eb002e003700d804900060
:10477000e08f540006003a0012002000e680570047
:1047800048009000610007001904980023003700da
:10479000a8009000e08f500008003a00d1cc24001f
:1047a00021049800010c7800210020005104980099
:1047b000110498000030a000300498001801900007
:1047c000a8009000480090005000070028009000ca
:1047d0008080eb0011049800aff897000148780042
:1047e000000ce8002ff89700ea4f50000b003a0049
:1047f000380090000010b20008003200180190004c
:10480000a800900048009000400007000000eb0066
:1048100010049800a8009000010c7800aff89700f1
:104820000100fb004f04be000080fa0000000600fb
:1048300000c0da00000006000a00fa00e00f500095
:1048400026003a0040678200e10f50000600320067
:104850008023200065232000242320000323200040
:10486000e00f500004003a00802220006522200062
:104870002422200003222000060028009303630066
:1048800002003a00070878009309730002007800dc
:104890000c0037008301e900940378006183630012
:1048a00002003a00e08f5100faff3a00140378004a
:1048b000e101630007003200950178008358780019
:1048c0000000e900e00f500002003200030a20005f
:1048d000f1ff3700000051000800370023002000de
:1048e000b3bf9f00c0bf9f00d1bf9f00e2bf9f002a
:1048f0006a805700ceff07006fb897000080fa006b
:104900000000060000c0da00000006000a00fa00fd
:10491000e20f500021003e0040678200e10f50008e
:10492000060032008523200044232000232320009a
:1049300000232000e08f520004003a00852220006e
:10494000442220002322200000222000060028000c
:104950009003630002003a00870a78001008730091
:10496000004020001300600001003a0013a0a000e6
:104970000200780006003700930278000510b200ac
:10498000fdff3200b102fb00050a78000000e900db
:10499000e00f5000f8ff3a00080037003300200015
:1049a000b3bf9f00c0bf9f00d1bf9f00e2bf9f0069
:1049b0006a805700d3ff07006fb9970002007800a4
:1049c0000080fa00000006002800fa00889fbe0060
:1049d0008a9fbe008c9fbe0007067800878669000c
:1049e0000c003b00030478008704780008f0a10065
:1049f00009f0a100840f5000858f5800860f5900e0
:104a0000890f5c00030033000cf0a20001003a00a3
:104a10000cf0a100fe0007006400e1005f0032001e
:104a2000780147006408e100610032006c01470032
:104a3000748557003200be001201be003a04be0069
:104a40001a05be001e039000be0a900085035300a5
:104a500006003d000004fd008104fd000205fd008c
:104a60008305fd008703ea00050378000df8a30025
:104a70000400320060041400e0841c0060051d0086
:104a8000e0851d006022b8007d0320000d38e100a4
:104a90008006eb000b0039004433dd00f300b20068
:104aa0008301730039003700848272000d027800a0
:104ab000e10664008b85d1000a85d3008984d30088
:104ac0000884d3008703e900f7ff3b00080040009b
:104ad000898048000a0149008b81490004003b009d
:104ae00060001000e080180060011900e0811900ea
:104af0000358a300090032008d8272008482720084
:104b0000610260008301d1000281d3008180d30063
:104b10000080d3000603e8001b0037000348a30011
:104b200017003a000600e000170034000603e90011
:104b30000d00a300000048008180480002014900e8
:104b4000838149000348a3000f003a000600e000fb
:104b5000090034000603e90000004000818048009d
:104b6000020149008381490001003a000003eb0083
:104b70000348a300f5ff32006022b80002003700ae
:104b800084827200618266007500070003f0a10054
:104b90000cf0a70003f0a000b1003700640147004b
:104ba0006408e10002003a000df8a300a9003a00f1
:104bb0003200be001201be00a90037008f1fd100d5
:104bc000f40207008f87e9000000e0000000060003
:104bd000809feb00ef0207008f87e9000000e000f4
:104be000000006002800fa00889fbe008a9fbe00d1
:104bf0008c9fbe0003866b00850007006400e10007
:104c0000440032006408e1004a0032006100e10023
:104c1000460032006108e10049003200ec0647001e
:104c20006000b8003d02be003d03be00f4865700a0
:104c30006011b8003d04be003d05be007d032000ac
:104c40000b0037000000a0008d06e90013003200c1
:104c50000402420085824a0006034b0087834b0012
:104c60000000400081804800020149008381490022
:104c70000802520089825a000a035b008b835b00a2
:104c8000f0ff3b000802420089824a000a034b0001
:104c90008b834b008d06e900edff3a0084827200a1
:104ca00086827200f707b20087827200010032002c
:104cb000150020001e0490003e0b900006035400d7
:104cc000e63fb0000368a300070032000000a70021
:104cd0000500a0008301d1000281d3008180d300b0
:104ce0000080d3000603e8008301d1000281d300d5
:104cf0008180d3000080d3000002eb000482d20048
:104d00001700070003f0a1000cf0a70003f0a000bb
:104d100053003700640247006408e1004d00320090
:104d20003400be003401be00f6ff37006108e10028
:104d3000480032006011b8006000b800f1ff370091
:104d400003ff270002002000fbff3700801feb005d
:104d5000900207008f87e9000000e00000000600d5
:104d60001800200057002000080453000d003d00eb
:104d70000600200097fc2f000740e1001e003400d1
:104d800084827200610260008301d1000281d3003d
:104d90008180d3000080d3000804e800f8ff3a00c7
:104da00047002000610460000504740004046400ee
:104db0000d00320061004000e080480060014900c1
:104dc000e081490003b8a500070032000603e800af
:104dd0006538e10004003a008301d1000281d3006c
:104de0008180d3000080d300f87f20000830e100ec
:104df00003003500080378006000b8006011b800b7
:104e00004433dd00f300b2008301730000000600ac
:104e1000680447000294be000094be00fc044700f2
:104e20008694be008494be0009007800a2020700a8
:104e300008007800a002070099007800814f7000f8
:104e40000b003b000800be007b0207004f00b100d2
:104e500003003700f3ff2700f2ff2f006110b900b5
:104e60004f06be004f05be004f04be000080fa0092
:104e7000000006008103780014f007000001be0066
:104e80006000b8000478a30013003a006220e1003b
:104e900015003e000d0039008301d1000281d300ce
:104ea0008180d3008301d1000281d3008180d300af
:104eb0008301d1000281d3008180d3000538b00086
:104ec000c42add00f300b2008381720007f0a7005e
:104ed00003f0a00000000600f3ff2700f2ff2f0000
:104ee0006110b900fbff370003ff2700f7ff370011
:104ef0001400fa00889fbe008a9fbe008c9fbe00ef
:104f00000004be000205be00680047000a90be0013
:104f10000890be00680207000070a7000bf0a10017
:104f20000bf8a30020003a009e0990000e099000a3
:104f3000fe0090006e0090009e029000344320001e
:104f400084825200c6ff32000a003c00b4fc2f00ed
:104f50000428e100140034008301d1000281d30051
:104f60008180d3000080d3008502e800faff3a0078
:104f7000bbff3700b40020000428e10007003c001c
:104f800000004000818048000201490083814900ff
:104f90008502e900faff3a00b1ff3700030028005c
:104fa00002002000010037006011b8006000b80066
:104fb000abff3700889fbe000082700004027100c2
:104fc0002400320036432000c50020008383cf0038
:104fd0000a0039000541b1008283cf000700390083
:104fe0000541b1008183cf00040039000541b100c3
:104ff0008083cf00010039000541b10085c3530013
:105000006022b800120032000a003b008482720065
:10501000610260008301d1000281d3008180d3004e
:105020000080d3000603e8008743e800f7ff3a005a
:10503000070037000000400081804800020149005d
:10504000838149000603e9008743e900f9ff3a003c
:1050500043ff07004f04be000000060072f1070086
:1050600005097800000006002800fa00889fbe00ad
:105070008a9fbe008c9fbe0003866b0064ff070002
:105080000028a30064003a000128a30067003a004a
:105090000008a30062003a000108a30065003a007e
:1050a0001e009000be08900081064000ed3fb10058
:1050b000f4805700ee019000111ab8008e0990009c
:1050c000311bb8009e099000311cb800511db8007a
:1050d000f485570046000700fe0190003a000700e3
:1050e0008b85e8003e0007008e0990004000070015
:1050f000ee019000340007008b85e80038000700bf
:105100008e099000400007009e0990001b18b8000f
:10511000890440000a854800fe0190003400070021
:105120008b85e80038000700ee0190003000070092
:105130008e0990001b18b800890440000a854800b9
:105140000a98a30008003a000402420085824a003f
:1051500006034b0087834b0008044c0089844c00f5
:105160000a054d008d06e9008482720085027300f5
:105170004c3add008502720001003200150020006b
:10518000443ade001400b2004538de00cb45dd00b5
:105190000b007000c540de00cb4ddd008b80700041
:1051a0004549de00cb55dd000b017100c551de0025
:1051b0000d037800eafe070003f0a1000cf0a70041
:1051c00003f0a00026ff37001b18b800850240003e
:1051d00006834800e0834b0060044c000700370062
:1051e0001b18b8000603400087834800faff370009
:1051f0001b18b8008703400008844800e0844c0076
:1052000060054d00000006001b18b80008044000af
:1052100089844800faff37000108a3000dff3a0017
:105220005800be005801be00e3ff37000008a3008d
:1052300008ff3a0009047800f9ff370007f0a200e0
:10524000e1fd37001400fa00889fbe008a9fbe006f
:105250008c9fbe000005be000206be00680047002d
:105260000c90be000a90be00930107006400e100ac
:105270001a00320016003e006100e1001a00320000
:105280006e049000fe0490000e0b90009e0b9000a8
:105290006011b8009e0590000b38b100d5012000c8
:1052a00082817100610164008703d1000683d3000d
:1052b0008984d3000884d3008502e900f8ff3a000e
:1052c000dcee07000df0a70001f0a000e4fe3700bf
:1052d000f1ff2700f0ff2f00e1fe370001f8270063
:1052e00000002000f7ff37006000b800f5ff37002e
:1052f000020ab900001bb9000200b8008100420098
:105300008100430000000600889fbe008a9fbe0007
:105310003004be002005be000404440085844c0017
:1053200006054d0087854d000898be000a90be0016
:105330000440e10005c8e10006d0e10007d8e10023
:1053400002003100680040001008e8004f05be0070
:105350004f04be0000000600889fbe008a9fbe006a
:105360008c1f7800000678003c04be002c05be00af
:105370000400540085805c0006015d0087815d00ab
:10538000009ebe00029ebe00100020000440e1000e
:1053900005c8e10006d0e10007d8e10001003900ae
:1053a0000000eb001c0e10004f0678004f05be00f9
:1053b0004f04be00000006001200fa00889fbe00e5
:1053c0008a9fbe008c9fbe000205be000004be0086
:1053d000e4b79f00f5b79f0086bf9f0097bf9f006f
:1053e0000000eb00d0b79f00c0b79f00b0b79f0090
:1053f000a0b79f0090b79f0000067800fd03200033
:10540000dfb197004fb0970003814100bfb0970014
:10541000e08f510004003d00290007007e80570006
:10542000b9ff070003003700250007007e80570002
:10543000c9ff0700dfb09700e08f5000070035007c
:1054400014002000050020006033b800080472003a
:10545000898472000a0573008b8573000c06e800ce
:105460008d0f5600e6ff3400e08f500006003d002f
:105470006fb29700ffb297000fbb97009fbb9700da
:105480007e805700a0ff07005fa89700e00f500044
:1054900004003a001fb49700afb497003fb59700df
:1054a000cfb597000800be000a01be004f06be003f
:1054b0004f05be004f04be000080fa000000060049
:1054c000cf01de0002817100b2b79f004f09de00fc
:1054d0000000400000007100a0b79f000fb09700cf
:1054e0004f01de00818040008100710091b79f0074
:1054f0007faa9700cf20de000000400000807000ef
:1055000080b79f000800be000a01be004f18de00f1
:105510000402420000027200f4af9f00080444003d
:1055200089844c000a054d008b854d004fb29700d1
:10553000dfb297006fb39700ffb39700000006003b
:10554000881f780018002000881f78009aff070045
:105550008f87e9004f04780000000600801feb00f1
:1055600095ff07008f87e90000000600889fbe00b6
:105570008a9fbe008c1f7800e00f5000e08f58001b
:10558000e00f5900e08f59000f003d006044b80063
:105590006055b8000000540081805c0002015d008d
:1055a00083815d001c0020000820e10009a8e100c3
:1055b0000ab0e1000bb8e1000d003d001900070042
:1055c0000006eb000a0037000006eb00e00f520077
:1055d000e08f5a00e00f5b00e08f5b0004003d00ad
:1055e0006044b8006055b8000e0007001c002000a1
:1055f000d3ff0700e00f5600060032006022b8001b
:105600006033b8000000520081805a0002015b0044
:1056100083815b004f0678004f05be004f04be003b
:10562000000006000402540085825c0006035d0051
:1056300087835d0000000600889fbe008a9fbe0031
:105640008c1f7800e00f5000e08f5800e00f5900e9
:10565000e08f59000d003d006044b8006055b8006f
:105660000000540081805c0002015d0083815d00c8
:105670001c0020000820e10009a8e1000ab0e100b8
:105680000bb8e1000d003d00080037000006eb00fc
:10569000e00f5200e08f5a00e00f5b00e08f5b00ec
:1056a00006003d006044b8006055b8000402540094
:1056b00085825c0006035d0087835d00a7ff07000d
:1056c000e00f5600060032006022b8006033b800d8
:1056d0000000520081805a0002015b0083815b0060
:1056e0004f0678004f05be004f04be0000000600c4
:1056f000889fbe008a9fbe008c1f78000006eb00ca
:10570000e00f5000e08f5800e00f5900e08f590083
:1057100007003d006044b8006055b8000000540028
:1057200081805c0002015d0083815d001c0020001f
:10573000e00f5200e08f5a00e00f5b00e08f5b004b
:1057400007003d006044b8006055b80004025400f2
:1057500085825c0006035d0087835d000c00a2006b
:105760007c000700e00f5600060032006022b800ff
:105770006033b8000000520081805a0002015b00d3
:1057800083815b004f0678004f05be004f04be00ca
:1057900000000600889fbe008a9fbe008c9fbe004e
:1057a0000404be000605be00809fbe00829fbe00ae
:1057b0002f000700040678000800be000a01be00a2
:1057c0002b000700840678004f03be004f02be0086
:1057d0008d4f76007fb0970013003300f0ff2f004d
:1057e0008b8f6b0006003b000d0666000c00a700c7
:1057f0000a00370007f0a600100020000a0037005a
:10580000880f5200898f5a008a0f5b008b8f5b00d4
:10581000030039001000200001003e0000002000bd
:1058200007f0a7000000ea004f06be004f05be00cb
:105830004f04be0000000600e48240001078a30080
:1058400007003200640240001178a3003400be005b
:105850001401be00040032000330a700000006005f
:105860003500be001501be000330a0000000060098
:1058700005ff270005826100070032000428e100cf
:1058800001003200240005000600070001003a0074
:10589000440005000408050002000700f9ff3a0073
:1058a000140005006f8261008102700085027100a2
:1058b0008502720000000600800078005002be00e1
:1058c0005003be004439de00f700b200f37f200031
:1058d00003016100090032000218e10016003a00dd
:1058e000850172008301730083817300000820002a
:1058f00015003a00400020001300370085017200b7
:10590000830173008381730005003a0004a8be0080
:1059100006a8be00100020000b0037000201e900bd
:105920000402420085824a0006034b0087834b0035
:105930000748a300f9ff32000740a00004a8be00fa
:1059400006a8be0020002000800098009200980069
:1059500000000600889fbe008a9fbe008c9fbe008c
:105960000404b8000506b8008904460060854e00ae
:105970000606b8000a054600e0854e000706b80096
:105980008b054600040eb800890446000a854e00c7
:10599000e0854d00050eb8000a0546008b854e00d7
:1059a000060eb8008b0546000416b8000a0546002e
:1059b0008b854e000516b8008b054600041eb80006
:1059c0008b0546000800be000a01be004f06be005f
:0c59d0004f05be004f04be0000000600a2
:020000040000fa
:1059dc005555000055550000555500005555000013
:1059ec005555000055550000555500005555000003
:1059fc0055550000555500005555000055550000f3
:105a0c0055550000555500005555000055550000e2
:105a1c0055550000555500005555000055550000d2
:105a2c0055550000555500005555000055550000c2
:105a3c0055550000555500005555000055550000b2
:105a4c0055550000415500005528000055540000e4
:105a5c00a855000052a8000055520000a85500009f
:105a6c005028000055500000285500005528000013
:105a7c0055550000285500005528000055550000cc
:105a8c00285500005528000055540000281500002a
:105a9c0052aa000085520000aa85000050000000a8
:105aac000554000000150000555500005554000029
:105abc000015000052aa0000854a0000aaa10000af
