:020000040000fa
:080000000002040000000000f2
:020000040000fa
:100400004f9f27000edf27000e018800000000002c
:100410000c00070040652d000100200011000700be
:10042000000020000000e000020032000000020096
:1004300000000000f6170200010000000040da0092
:100440000000fe004440a900a01624000000e000c7
:100450000300320000002000a00188004440a800f2
:100460000000060091018800800078000000eb0089
:1004700015003700e280400032a0b4009101ba00bc
:10048000e280400032a0b4009102ba00e280400055
:1004900032a0b4000002eb00472bde00f507b200eb
:1004a000602ce10004003a000059eb008301e900f0
:1004b000fdff3e00040037006128e100010032002a
:1004c0000082eb00040007001101ba000200e00006
:1004d000e8ff3a00000006003159ba008301e90044
:1004e0000c0032002159ba008301e90008003200f3
:1004f0000400e00003003a00e280400032a0b400b3
:10050000f5ff370011d9ba008301e900faff3a007c
:100510008100e800e180400032a0b4000000060045
:1005200002e504000000000084fe0400000000005a
:1005300058ff0400000000001cfe04000000000042
:100540002200040001000000f2000400010000008d
:10055000b001040001000000880004000100000058
:100560006a0204000100000068a604000000000008
:10057000822f040001000000fccf040000000000f6
:10058000e6ca040000000000e812040001000000b8
:100590008007040001000000d42c040001000000ca
:1005a0008c98040000000000e8fc0400000000003b
:1005b00094930400000000007aa8040000000000ea
:1005c0000040da000000fe001013880021138800ac
:1005d000021388000000060003f0a200889fbe00fe
:1005e0008a9fbe008c1f78002f020700360233005e
:1005f0006450e1004f0032006420e10052003200fc
:1006000003826c0007003b000905d0000306d00000
:10061000820f54000c065d00020039000200320017
:1006200089017800030678008582550004003d00aa
:100630000003fd008103fd008502ea008b85420076
:10064000840f720002003b0060001000e080180080
:100650006011b8000005eb007a28e1000a003900bb
:1006600006007800c75ddd00f707b20087807500df
:100670002d003700828171000a0178006105600059
:100680008180d1000080d3008502e900f9ff3b00a2
:10069000060440008784480002003b006004140008
:1006a000e0841c000988a300070032008a817100e1
:1006b00082817100610164008904d1000884d30043
:1006c0008b05e800170037000978a30013003a00f3
:1006d0000b00e000130034008b05e900080444001f
:1006e00089844c000a4474000978a3000d003a0084
:1006f0000b00e000070034008b05e900080444000b
:1007000089844c0001003a000b0020000978a30006
:10071000f7ff32000001eb00020037008281710018
:100720000a017800a50107000cf0a70001f0a00065
:10073000ee0137006420e10002003a00838f6c0074
:10074000ee0133000801be000200be00e7013700e1
:100750000001eb00a3033700889fbe008a9fbe0004
:100760008c1f7800d00107001002200002003b001f
:1007700000408800d40137008a0062006408e1006c
:1007800002003a0000408800dc0137006108e10007
:10079000fcff32000800be0003047800720007006e
:1007a00001f0a1000900070008f0a60004003700ce
:1007b0000001be0091042400b0fd200086ff070068
:1007c00009f0a70001f0a200c8013700889fbe0011
:1007d0008a9fbe008c9fbe000004be009d010700e2
:1007e0000800be00890678006420e1000800390096
:1007f000040032000160a0001202200002408800c4
:100800005300370091fc2300b0fd20004e0037005c
:100810000006eb0009f0a10003f82300020020000d
:100820000800be00a10007000600340001f8230004
:10083000000020000801be004b0007000004be00bd
:100840002c0020000800be0093e82300320a230099
:1008500096000700120034000801be00d1fd2300fd
:10086000703d2b005dff07000005be00b3f32300c1
:10087000f27a26000800be000902070003f82300f0
:100880000200200054ff07000801be0053ff0700cc
:100890000a01be00340007000004be000c06e80098
:1008a0000800be0001f0a100020020000398230010
:1008b0007e0007000800be00160035000801be00db
:1008c000f70107000005be0032cd2c0043fb2300da
:1008d00042ff0700809fbe001269280003d52b004d
:1008e0000a00be00ee010700620f210013ef2b008b
:1008f0003aff07000a01be00e90107004f01be00f0
:10090000190007000801be00e50107000801be004c
:1009100032ff07000c00e0000b0032000c10a700b3
:1009200001f0a200b2fd200093fc23006260e10010
:100930000400320022a9200063f023000c10a7005d
:1009400063f8230025ff07000df0a70001f0a200c7
:100950004f06be004f05be004f04be00000006005b
:100960000081eb0002023700889fbe008a9fbe0014
:100970008c1f78004c0107005301330003866c0084
:100980006450e1002e0032006420e10033003200a8
:100990006150e1002f0032006120e100310032009f
:1009a00085855500eb07b0000900200008042000f1
:1009b000050037000804440089844c000a00310017
:1009c0000603430087834b000001530081815b00d5
:1009d000f8ff33000203be000800a0000804440032
:1009e00089844c00f6ff3900c639dd0083017300ad
:1009f00001003200130020008904d1000884d300d4
:100a00000998a300050032000800a7000300a00019
:100a10008904d1000884d3008b05e8008904d10043
:100a20000884d3000001eb000281d200e30007003c
:100a300001f0a1000cf0a70001f0a0002b0137008d
:100a40006420e1002d0132000801be000200be005a
:100a5000f7ff37006120e100280132006000b80094
:100a6000f3ff37000000200001f82700f0ff3700f7
:100a7000839f68000100e00002003d00600010005c
:100a8000e08018000300e00002003d00600111005a
:100a9000e0811900b30207004f00e00002003b00b4
:100aa00060001000e0801800000006001400200024
:100ab0005a033700f4ff2f00580337000001be002f
:100ac000e40007000470a70003f0a1006509b1006d
:100ad000160032000d0035006828e10006003500e0
:100ae000f0ff2f00f1ff27000300e00013003b00a0
:100af000010028000000050000004000818048003f
:100b00008502e900fcff3a0008003700f88f420038
:100b100002003c008000eb00000005008100d100d5
:100b20000080d3008502e800fcff3a000300e000eb
:100b300002003b0060001000e0801800000006008a
:100b40000001be00c30007000470a70003f0a1006d
:100b500003f8a30013003a006509b1001000320049
:100b6000090035006928e100020035000100280075
:100b70000000050000004000818048008502e90077
:100b8000fcff3a0000000600f88f42000500350027
:100b90008100d1000080d3008502e800fcff3a000c
:100ba000000006008000eb0000000500889fbe00ea
:100bb0008a9fbe00010578000100e00004003500b6
:100bc00008003c000000e000200032000500370073
:100bd00060001000e080180002003b0001f02c00d3
:100be0001a0037000004be006011b8006b09200035
:100bf0000982cf00020039000882cf000441b00012
:100c0000694252000e00320008003b0082817100f0
:100c1000610164008904d1000884d3008b05e800d9
:100c20000442e800f9ff3a000500370008044400d8
:100c300089844c008b05e9000442e900fbff3a007f
:100c40005e0007000af0a70001f0a0004f05be00fb
:100c50004f04be00000006000001eb00c8020700c0
:100c6000040032000200200003f8230001f0a70076
:100c700059fe0700000006000400200000003700b5
:100c8000889fbe008a9fbe008c1f78004f26dd0023
:100c9000850007008c0033006120e1004300320032
:100ca0006250e10041003e003e0039006420e10056
:100cb0003c003200058255000f003b000402e800b2
:100cc00038003a00800f5300818f5b0035003400fc
:100cd0000800be0003f0a10001f0a60003f0a00090
:100ce0000cf0a7003dfe070080003700060343001c
:100cf00087834b000c4646000005530081855b004e
:100d0000020033000a03be000c00a0000402e90048
:100d1000f6ff3b00850578000602430087824b0002
:100d200004003a006000b80009f0a70001f0a0003c
:100d30006e0037000002520081825a000704e00072
:100d4000040033000603430087834b008b05e90052
:100d5000faff3700090578000604be000203be0052
:100d60006011b80015000700e00f5200e08f5a0034
:100d70000700350002003c000c08a300040032000c
:100d80000601be0003f0a0000cf0a70013fe070050
:100d90000a85680001f0a1000af0a70001f0a00098
:100da000520037000800be0050003700100220003b
:100db0000cf0a600004088005000370081002000a1
:100dc000618055000b003d000b00200061fe2f00ec
:100dd0000100e1001d0034008281710061016400a6
:100de0008904d1000884d3000000e800faff3a002b
:100df00071002000610064000300700002006000c8
:100e00000900320061044400e0844c000988a50018
:100e1000050032008b05e8006808e10002003a0096
:100e20008904d1000884d300f20f20000258e100a9
:100e300005003d00c75ddd00f907b200898075003f
:100e400008007800000006000bf827008b007800ef
:100e500000000500c70ade00f107b200f50fb2007e
:100e600008003200e1cf4200020032000170a00011
:100e700024000500810f7000010032000408050005
:100e800044000500810f700002003a0014000500c4
:100e90008502e9000000400081c04800fcff3b00e3
:100ea0000170a000240005000004be00e9ff070057
:100eb0000003be000405be000200be00e5ff0700ff
:100ec000844f7500000006000200be006450e1007f
:100ed000050036006420e100020036000968a30026
:100ee00001003a000800be000160a0004f06780033
:100ef0004f05be004f04be0000000600f0ff2f00ab
:100f0000f1ff2700f9ff3700889fbe008a9fbe00cf
:100f10008c9fbe00a6010700850478000005be0076
:100f20006420e10049003e006220e100030032003d
:100f3000090035000bf8a300440032000bf8a300b1
:100f4000080032001002200000408800f0ff2f004f
:100f5000f1ff27003d00370001f82f0000002000be
:100f60003a0037003d0007009bfd07000006be0069
:100f70000a00be00324f200053f32300cdfe0700cd
:100f8000060034000c00be003400070092fd07008c
:100f90000006be000a00be00020037008904e90016
:100fa0000c00be002d0007003d0007002b000700cd
:100fb0008afd07000001be000c00be006afe0700ab
:100fc0000005be000001be00350007000006be009f
:100fd000a2f32300430d2c0080fd0700809fbe007c
:100fe0000c00be00d2e32700d3f02b002c0007003a
:100ff0004f01be005cfe07000006be000a01be00f5
:10100000270007000a01be0074fd07000006be00ad
:101010006148b900e5fe07000005be00320828005f
:10102000e3952b001e0007000c01be006bfd0700be
:101030000006be000a00be000200280013f32300d1
:10104000170007000c01be0064fd07004f06be003c
:101050004f05be004f04be000000060003f0230051
:1010600002000500811f78000100e00002003d0041
:1010700060001000e08018000300e00002003d0066
:1010800060011100e0811900460107004f00e000f7
:1010900002003b0060001000e08018000000060025
:1010a000889fbe008a9fbe008c1f78007eff0700cd
:1010b00085ff330003866c006450e1002400320099
:1010c0006420e100270032006150e100220032007c
:1010d0006120e100210032008b854200eb07b10066
:1010e0000134b800003ab8000804420089844a007c
:1010f000013ab8000030b8008880400009014a0079
:1011000004003300000040008180480002014900d3
:101110008b05e900c909dd00830170000100320080
:1011200013002000c814de004814dd004709de006b
:101130001200b200c808de00088470001fff07001c
:1011400001f0a1000cf0a70001f0a00067ff37003c
:101150006120e10069ff32000801be000200be000c
:10116000f7ff37006150e100fcff3a0063ff3700f2
:10117000889fbe008a9fbe008c9fbe0082057800bb
:101180000004be0033ff07000800be006420e10039
:101190000700390002003a00f1ff2700f0ff2f009e
:1011a0000160a000120220000240880055003700b4
:1011b0006120e10003003a000b00a70001f82300c2
:1011c0005000370001f0a1000200210093642400c8
:1011d00036fe07000800be0004003500b2fd200006
:1011e000930c2400a4fe07000004be000005eb00e1
:1011f0000b00a6004f0dde0001f0a1000004be00b0
:1012000032982f0023ea2300a5ff07000001eb001e
:1012100003f023000b00a70003f82300effc0700f6
:1012200026fe07000000a7000a00a2005ffe0700dc
:101230000b00e000030032000200200003f0230056
:10124000e5fc070001f0a2000006be00020020003d
:101250009304240092ff07000801be00dffc070092
:10126000809fbe000c00be0022a22a00d3a723004c
:101270008bff07004f01be00d8fc07000004be0032
:1012800001f0a100020020000398230007fe0700e0
:101290000800be00190035000001be0080ff0700f5
:1012a0000006be00b2c52900e36223007cff0700f0
:1012b00022222b00f3942b00c8fc07000c01be0077
:1012c00077ff0700e273280083c02300c3fc0700f8
:1012d0000c01be0072ff070042aa2a00a3e22b0005
:1012e000befc07000c01be006dff07000801be0038
:1012f0006bff07000801be00b8fc07000a00a7004a
:1013000001f0a2004f06be004f05be004f04be0014
:10131000000006000001eb0095ff3700889fbe002b
:101320008a9fbe008c1f78000004be00c9fe070023
:101330000478a30026003a006120e1002500320075
:1013400009f8a30025003a006420e10021003200e2
:10135000f507b1000508a3000200320000004000bc
:10136000818048006044b800031020000200200083
:1013700000004000818048000805440089854c0039
:101380000a0541008b8549000a0550008b855800ed
:10139000030033000a00be0002047400838474005a
:1013a0008301d1000281d300830f7100f0ff3a0066
:1013b0008904d1000884d3006001490082017800cb
:1013c000c1adde00fb07b0007cfe0700c7fe3700a2
:1013d0000960a0000800be00c4fe37001202200011
:1013e00002408800f0ff2f00f1ff2700bffe37000a
:1013f000889fbe008a9fbe000004be0095fe0700c5
:101400000800be006420e1000700390002003a0035
:10141000f1ff2700f0ff2f000160a0001202200062
:10142000024088004c00370001f0a100028020003b
:10143000935c24009dfd07000800be0004003500f9
:10144000b2fd2000930424000bfe07000004be0040
:1014500032982f0023f2230011ff07000200200022
:1014600003f0230001f0a70003f0a0005bfc0700dd
:1014700092fd0700801f7800ccfd070001f0a2005c
:101480000005be000200200093fc230004ff0700bb
:101490000801be0051fc0700809fbe000a00be008c
:1014a00022a22a00d39f2300fdfe07004f01be00a9
:1014b0004afc07000004be0001f0a1000200200069
:1014c000039823007bfd070003003d00000020007f
:1014d00001f82300180037000800be000001be001c
:1014e000effe07000005be00823b230043dc2b001b
:1014f000ebfe07000801be00e9fe07000801be0080
:1015000036fc07000004be000a00be00523723006c
:10151000f3c12300e2fe0700f27a2b00b3ed2b00ab
:101520002efc07000a01be00ddfe070002002000bd
:1015300003f8230029fc07004f00a6000300370032
:101540000801be0003f0a200020037000001be0047
:101550000800be0004fd07004f05be004f04be009a
:10156000000006006022b800060220000000d00043
:101570008180d2000482d2008582d2000000a000c7
:101580000202520083825a0003003100020242002c
:1015900083824a000000a1000603e900f3ff3a003d
:1015a00000000600efff07000400be000000060078
:1015b0000003be0027fe07006220e10002003200a7
:1015c0000600be0005000500e507b100f107b20006
:1015d00004f023008480700007f0a70001f0a00051
:1015e00024000500889fbe008a9fbe008c9fbe001d
:1015f0000206780001f0a7000cf0a0000004be0075
:1016000014fe07000800be006420e1000700390056
:1016100002003a00f1ff2700f0ff2f000160a00058
:1016200012022000024088005100370009f0a1009a
:101630000800be000200200003f823001dfd070083
:10164000f4ff3c000800be000200200003982300c5
:1016500016fd07000800be00300035000200200023
:1016600003f0230013fd070005003c000800be0046
:101670000801be008afe07000005be000e0037000c
:101680000c10a2000000200001f823000801be0099
:10169000d1fb07000200200003f0230080fe0700ba
:1016a0000005be001dff07000200200003002c0003
:1016b0007bfe07000004be000a00be00b2d0280076
:1016c000130b2c00c5fb07000a01be0074fe0700c7
:1016d000020f2500330b2400c0fb0700809fbe00d3
:1016e0000a00be005206220013f02b006cfe070019
:1016f000b2662100f3f62300b8fb07000a01be0022
:1017000067fe07004f01be0097fc07000801be00fe
:1017100063fe07000801be00b0fb07000c00a70035
:1017200007003700b2fd200093fc23000c10a70037
:10173000aafb07000cf0a70001f0a2000c00370084
:101740000cf0a7000200370001f0a20004003700ef
:10175000b2fd2000930424000c10a6000300370003
:10176000b2fd200093fc23000c10a7009bfb070098
:101770004f06be004f05be004f04be00000006002d
:10178000889fbe008a9fbe000003be00b1fd070017
:101790008505780082815200020020006220e1006d
:1017a00004003a00f307b100040035007718e100a7
:1017b000040035000600be00140037006000b800c9
:1017c0000f003700f50f2000faff2f008502d1002f
:1017d0000a85d3008301e900fcff3b00818462009d
:1017e00000046500890f7400f2ff32008582ea0070
:1017f0000a85ea0081846200000465006ffd07002d
:1018000007f0a70001f0a0000081eb000200e0005b
:101810004f05be004f04be0000000600889fbe00ba
:101820008a9fbe00841f78009ffd07004f0078004c
:1018300011003300f0ff2f00838f6c0006003b0087
:10184000040565000a00a7000800370009f0a6009b
:101850001000200008003700820f5400838f5c00c6
:10186000030039001000200001003e0000002000ad
:1018700009f0a7000000ea004f05be004f04be00bb
:101880000000e00000000600e6874700889fbe00d9
:101890008a9fbe008c9fbe008e1f780000047800d7
:1018a000810678000100e00003003200800e78001d
:1018b000010037000804e800984478000900fb00a4
:1018c0000c030700800078000000e000f9ff3a00f8
:1018d000d0c2b30080cf540003003a000804e800ef
:1018e0001bc0b30005003700b0c2b30080cf540066
:1018f00001003a000804e800814578000005eb008b
:101900000a0778006000b800f0b79f0081bf9f0011
:101910000b48a30005003a00e0c2b300984f100046
:1019200002003a000b44a0001e00370098447800e3
:101930000900fb000cfd2f000c004000e90f5000d7
:101940001a003e000b14a0000b00fb00e90f55002d
:10195000110032000048a300010032000e07e90028
:101960000a05e800a2002000030020007fb09700d5
:101970008fb89700411007000cc144000281fb00a2
:10198000030020000000410081804900f0b79f0063
:1019900081bf9f00030037000048a30001003a0008
:1019a0000e07e8000804e800d9ff370050c6b3006e
:1019b00080cf5400040032000002eb0050c4b3009a
:1019c00080cf540032003a008801e800934078004c
:1019d000d0c2b30080cf500002003a000b34a00008
:1019e00003003700b0c2b30080cf500003003a00bc
:1019f0008881e800010037008301e8009340780007
:101a000006c3b30086cf5000fbff32000100fb008d
:101a100005fd2f0005004000e90f500003003600cf
:101a2000030478000002eb001600370006c05000e7
:101a30000082fb000304e800184178000200fb006c
:101a400005004000e90f50000e003e006a20b9007a
:101a5000064151000281fb00000241000384e800be
:101a6000984078000100fb0005004000e90f50009d
:101a700004003e006a21b90006c050000080fb004f
:101a8000020240000b38a300010032000402ea0009
:101a9000040547000d00e000030032000b18a3000e
:101aa00001003200880e78007fb097008fb8970051
:101ab0003efc07000004be000006be006011b80036
:101ac000fafb07006011b8000000e0005900320086
:101ad00030f82f00800f550003003d002002200049
:101ae000004088005300370000082000800f550098
:101af0000a00340020022000004088000b08a300e8
:101b0000030032000200200003f82f0049003700d4
:101b10000200200003f82700460037000a00e0001a
:101b20001c003d000a05ea0006003700922f200045
:101b3000530125000800be008bfb07000004be0017
:101b40006a055500e90f5500f8ff3c000006eb0060
:101b50000600370002002000031224000800be0027
:101b600081fb07000004be000c06e8008a0f560047
:101b7000f8ff3a000806be0002002000030820001b
:101b80000800be00c9fb07000000e00025003d0082
:101b90001c0037000a00e00007003c00210037006d
:101ba000922f2000530125000800be003cfd0700d5
:101bb0000004be006a055500e94f5500f8ff3e00dd
:101bc0000006eb000600370002002000031224008c
:101bd0000800be0032fd07000004be000c06e8004d
:101be0008a0f5600f8ff3a000806be00f2ff2f00e9
:101bf000f3f727000800be00aefb07000000e0007e
:101c0000080034000b08a30003003200020020008b
:101c10000308280007003700020020000308200006
:101c2000040037000b08a300010032000df0a200f1
:101c30000c01be000200be004f0778004f06be0038
:101c40004f05be004f04be006f00b100000006004b
:101c50008000eb000cff37000001780000c2b300e9
:101c6000010037000201e8009240780080cf500068
:101c7000fcff3200e9cf5000faff3200d0c2b300bf
:101c800080cf500003003a000201e80014c0b30006
:101c9000050037000042eb00b0c2b30080cf500017
:101ca00001003a000201e8008000eb0005fd2f0072
:101cb000040037006a08b900008041008500400038
:101cc0000201e8009201fb0005804100e90f50008d
:101cd000f8ff36000404e000010032008100ea0051
:101ce0000100780000000600889fbe008a9fbe00a9
:101cf0008000780000c2b30001003700890078003e
:101d00008104780039447800804f5400fbff320092
:101d1000e94f5400f9ff3200d0c2b300804f5400a5
:101d200004003a00194478008184e8001ac0b30026
:101d3000060037000045eb00b0c2b300804f5400ee
:101d400002003a00194478008184e8006022b8005b
:101d50000a003700a2002000030020000400be009b
:101d6000460f07000b4144000281fb0003002000e6
:101d70000002410081824900394478000880fb005c
:101d80000bfd2f000b004000e90f5000f1ff360063
:101d90000a04e0000200320060021200e0821a0031
:101da0000400be004f05be004f04be000000060048
:101db0008001eb000200370061f079008301e80048
:101dc000828f5100fcff3a00000006008001eb000a
:101dd00002003700817178008301e800828f510092
:101de000fcff3a00000006000000fa00cfb89700a0
:101df00068815700e0c72400a80207000080fa00ad
:101e000000000600889fbe000004be0006003700e8
:101e10000804e8000000fb0089007800fa0a0700c7
:101e2000e10f400004003200184078000004e00098
:101e3000f7ff3a000000eb004f04be000000060070
:101e4000881f7800e1c72400eeff07000004780037
:101e5000e1c72400a0002000eb0a0700080078007a
:101e60004f0478000000060000037800800278002c
:101e7000020278008001eb00080037000402e9004c
:101e800063c07800805a78008301e8000004e00015
:101e900002003a008000eb0006003700828f5100fc
:101ea000f6ff3a00fbff37000040eb0080f07a00bd
:101eb0008100e800848f5000fbff3a0006007800a4
:101ec000000006000c00fa00a0bf9f00c0bf9f00ea
:101ed000170b0700b0bf9f00f0bf9f00100c200041
:101ee000d0bf9f0074815700efb097006c805700ff
:101ef0002e0007000080fa0000000600889fbe0048
:101f0000000478008144780000fd2f0000004400a8
:101f1000e90f500002003e00000178000d0037007c
:101f2000080078007b0107000000e0000300320099
:101f3000080078007d0107000004780008007800a0
:101f4000620107000000e0000700320090fa2f0055
:101f5000000144000980fb00800f510002003d0099
:101f60000280fb0001003700f00f20004f04be008c
:101f700000000600881f7800606e82006e0a07006d
:101f8000000478005b0107000000e000faff3a005f
:101f9000e10f440003003200616e82000800780007
:101fa000ea0a07004f04780000000600ec874700ab
:101fb000889fbe008a9fbe008c9fbe008e1f780047
:101fc00081bf9f0002077800606e8a008046eb00a8
:101fd000040137008884fb000900780045010700f0
:101fe000800078000000e00002003200e1ff0700fe
:101ff000fc00370050c2b300804f5400f0003a009c
:102000000fbd970020c0b300c0ef9f00d1ef9f002d
:1020100081ef9f000300370040c0b300c0ef9f0076
:102020000fbd97000fb99700b240780082bf9f00a4
:102030008184fb0090c6b30080cf50003500320091
:1020400017003e006640500080cf50006200320012
:102050000c003e007740500080cf50002800320036
:1020600006003e000104e0009b003200a0c2b30065
:1020700080cf50006e003a001d00370080c5b300cd
:102080001600370040c6b30080cf50002100320058
:102090006440400080cf500065003a0012003700d5
:1020a00030c7b30080cf50001e00320007003e0052
:1020b0006740500080cf5000110032006340400064
:1020c00080cf50005a003a001400370050c7b300c8
:1020d00080cf50000f0032006340400080cf50009e
:1020e00053003a006500370020c0b300cbff370033
:1020f000dfe897008140e800d1ef9f00c8ff37007c
:102100004fe9970080c0b300e24f5100c3ff3a008f
:10211000c1ff3700acc0b300590037008cc0b3001a
:102120005700370093ff0700dfe897000104e00045
:1021300002003a004e017800d2b79f00606e820024
:10214000fd09070000047800e10f4000a200320002
:102150008fec9700120037000a85e8008abf9f00c5
:10216000160037008fb897001100fb00800f540055
:10217000f9ff32005fe997000204e00003003a0033
:102180005fb0970008587800d0b79f008944e900f5
:102190000a003200606e8200e70907000004780040
:1021a0000800e800e10f5000040036000800780045
:1021b000d00007000000e000eaff3200dfe89700ef
:1021c0000104e00087003a008d46e8005fb1970007
:1021d00001497800830037005fe897000004e000c1
:1021e00003003a008d46e800ce007800d1b79f008a
:1021f000606e8200d0090700e10f400076003200d7
:102200005fe997000204e00003003a00dfb09700a6
:1022100080587800d1b79f000fe997000241e9008c
:1022200082ef9f004240a9006e003400f0ff3700ab
:102230000180fb0008fd2f0008004000e90f50005e
:102240005f003e000a00780083fe070080ef9f00d9
:1022500088007800030037000fb897000000e800fe
:1022600080bf9f000fb997001200fb0001004000e3
:10227000e90f5000f8ff360069ff37000cc1b300ca
:102280003cff0700606e8200ab0907000005780084
:102290000040eb00e0ef9f00d0022000800f5500cf
:1022a00005003a00606e8200a3090700000578006f
:1022b00011c0b300e1ef9f008c4078000a00780065
:1022c0000eff0700e14f40000a003a00616e8200f5
:1022d0000a0078001d0a07000d04e0004b003a00d8
:1022e000606e8200300090000048a300430032007e
:1022f000480037008fed97006044b8000c81fb0068
:10230000030020000800be00dc0d07000004be0032
:102310008c4078000a007800f8fe07000080fb007f
:102320000100200008044000898448008b45e90032
:1023300007003200606e82007f0907000005780008
:102340008c407800edfe0700e14f4000ebff3a00c3
:102350008c4078000a007800e8fe0700e14f40005a
:1023600003003a00616e82000a007800f709070056
:102370006fe997000204e0000200320060041400dc
:10238000e0841c005fe897000004e00015003a00bc
:102390008d46e800cfe89700e4cf500003003a00f4
:1023a0004e0078000888be000e0037000e81e9005c
:1023b000020778001200780008087800090037004a
:1023c000606e82005c090700808f540005003200b7
:1023d000e10f40000b003a000d04e0000d00320058
:1023e0000a0037008fb897003144780081bf9f0002
:1023f0000804e000f7fe3a00040037000000eb009c
:1024000005003700616e8200d00907000d80fb00d7
:10241000010037000080eb004f0778004f06be0038
:102420004f05be004f04be00cf00b1000000060003
:102430000000fa004fb99700e8815700020007003a
:102440000080fa00000006000c00fa00881f7800e7
:102450000002780082027800030178008001eb001e
:10246000e18f50000e0036000100e900e0bf9f0040
:102470000004eb00a8bf9f0094bf9f00b4bf9f0063
:10248000200c2000c0bf9f00850078006e805700a0
:10249000630f0700800178001fb897000848780094
:1024a000030078004f0478000080fa000000060066
:1024b0000000fa00cfb8970068815700e0c72400f9
:1024c000570f07000080fa00000006001004b1005a
:1024d000070035009001b100040034007000b10025
:1024e000030035009001b10001003c001000050020
:1024f000000005006900e100040035006d00e10006
:10250000030034000002b1000100320000000500a9
:10251000100005001004b100030035009001b10067
:1025200001003c001000050000000500800078005c
:102530001104b100030035009101b10001003c001d
:102540000050a00000000600889fbe008a9fbe00c9
:102550008c1f780080407800d0c6b30080cf500038
:10256000330036008185fb0042062000110009007f
:102570008285d80000017800010478000281fb0008
:10258000030020004318dd00cd11de008301700040
:102590004311dd000209b0000380b000ec472400c5
:1025a000020146006022b8000600200007fe23005a
:1025b0003200be001201be008e0c0700aa002000ef
:1025c000809fbe00110009000a84d8000004780032
:1025d0004f00be000884fb0009002000434add00d4
:1025e000cd44de00890472004344dd008804b0005d
:1025f0000980b000080446003802be002803be006f
:102600007c0c0700801f780001027800110009008f
:102610008a85d8000102fd004f0078004322dd00ca
:102620000c0242005403be004402be0028003700e2
:10263000ea472400eacf5000190036000180fb0071
:10264000a2002000110009000280d80001047800d7
:102650000080fb00010020004309dd00cd00de000a
:10266000810071004300dd008004b0000180b000f3
:10267000000045006022b8000600200007fe23008d
:102680005001be004000be005a0c07004344dd006c
:102690000a0444003802be002803be000c003700c4
:1026a0000180fb0001002000430add00cd00de00b8
:1026b000810072004300dd00000045006022b80088
:1026c0000600200007fe23005001be004000be00af
:1026d000480c07004f0678004f05be004f04be00af
:1026e00000000600889fbe008a1f780080407800a6
:1026f0000004e0002b003d008040ea00d0c6b3009b
:10270000e347240080cf5000560034008104fb00d2
:1027100042062000110009008204d8000001780060
:10272000010078000201fb00cf91de00c318dd003c
:10273000cd11de00838170004311dd000209b0007d
:102740000380b000ea472400290037000100fb00a5
:10275000a2002000110009000200d8000101780049
:102760000000fb00cf80de00430add00cd00de006c
:10277000810072004300dd008004b0000180b000e1
:10278000008041004311dd00030141003202be0020
:102790002203be005001be004000be00150c070021
:1027a0003b003700d0c6b300e352240080cf500076
:1027b0002c0034008104fb004206200011000900b7
:1027c0008204d80000017800010078000201fb00bb
:1027d000cf91de00431add00cd11de0083017200cf
:1027e0004311dd000209b0000380b000ea5224006a
:1027f00002014500a8002000110009000800d800cf
:102800000000fb00cf80de00c309dd00cd00de004c
:10281000818071004300dd008004b0000180b000c1
:10282000000045003002be002003be003200be00a2
:102830001201be00ef0b0700801f78000102780034
:10284000110009008804d8000102fd004f00780043
:102850004322dd000a0242005403be004402be00cf
:10286000ceff3700eacf5000b8ff3c000100fb006c
:10287000cf80de004309dd00cd00de008100710065
:102880004300dd00008041005001be004000be005a
:102890004f0578004f04be0000000600ef04b000b2
:1028a000889fbe008a9fbe008c9fbe008e1f78004e
:1028b0006022b8006033b800e4a79f00f5a79f002e
:1028c00086af9f0097af9f00a0af9f00b1af9f0062
:1028d000c2af9f008002eb00a5a79f000908370048
:1028e0008001eb0050c2b30080cf500009003200dd
:1028f0000100fb00afa8970043080700e10f40006c
:10290000000832002fa397000603e800a6a79f0047
:10291000fc073700bfab970097407800b0c2b30008
:1029200080cf50001900320007003c006b4050007f
:1029300080cf5000100032006340400080cf500034
:1029400021003a0016003700d0c2b30080cf5000fb
:10295000040032006340400080cf50001a003a006b
:10296000140037000330a0003fac97000804e800d3
:10297000b8af9f00e7ff37000300a000bfac97008f
:102980008904e800b9af9f00e2ff37000310a00000
:102990003fad97000a05e800baaf9f00ddff3700a2
:1029a00003b0a000bfad97008b05e800bbaf9f0050
:1029b000d8ff37000320a0003fa897000000e800e0
:1029c000b0af9f00d3ff37000318a300010032000f
:1029d0000300a1000338a300010032000320a1007e
:1029e0000100fb0002fd2f0002004000e90f500033
:1029f00010003e008000eb00e1979f00020278008b
:102a00006f9197006a10b900bfaa97001501fb00eb
:102a10000001410004014100e2979f005500fb00c6
:102a2000b5af9f0004004000e90f50000d003e00cc
:102a3000f3ff37000003eb00e6979f00a0c2b3004e
:102a400080cf500007003a00cfab970047047800d2
:102a5000c7af9f00e8979f00bfac97008904e800cc
:102a6000b9af9f00e0c2b3003fad97009a4f10008e
:102a700021003a00830678000de0a0008a00e800fb
:102a800064405000914f100004003200b1af9f002d
:102a90008005eb00bba79f00100037004fa89700f0
:102aa000c0007800c0af9f00b1a79f003fa997006a
:102ab0000281e800b2af9f00130037003fa29700e9
:102ac0006a20b9000000410003004000b0a79f0049
:102ad000bfaa97008502e800b5af9f003fab970003
:102ae0001601fb0003fd2f0003004100e90f500019
:102af000f2ff360004003700830678000dc0a00006
:102b00008003eb00b7a79f003fac9700b840780068
:102b1000b8af9f00e1679f0070c6b30080cf500040
:102b20003c00320017003c006440500080cf500051
:102b30008f0032000e003c007c40500080cf5000df
:102b40003300320006003c000104e000730732004d
:102b500000c0e90080cf5000aa003a0029003700e9
:102b600080c5b30080cf5000a6003a002d0037008a
:102b700050c6b30080cf5000230032001f003c003d
:102b8000a700370000c7b30080cf500025003200f7
:102b90000a003c006440500080cf50001100320019
:102ba0006340400080cf50001c003200664050005f
:102bb00080cf500093003a009900370050c7b3000f
:102bc00080cf5000950032006340400080cf50001d
:102bd000150032006540500080cf500089003a0057
:102be00013003700000028000d48a30001003a0040
:102bf0000001200080867600c3ff37000da0a000f2
:102c0000870037000d50a0000d80a0008400370021
:102c10000d50a0000d90a000810037000d60a000b5
:102c20007f0037000d50a0000d70a0007c00370021
:102c3000cfac970049007800c9af9f00e0a79f0084
:102c40000000e00002003a004bfd2700eba79f00c8
:102c50000000eb00f0a79f00020037008100e800b1
:102c6000f1a79f00ffa097006fa19700028040008e
:102c70001004e000f9ff3a00bfa197000300e00054
:102c8000040032007fa29700848f510001003100c0
:102c9000f3a79f007fa097000005eb006f939700bc
:102ca000800f530001003600000553004368de002a
:102cb000e104600019003a000904780009003700b7
:102cc000afa89700000220004f070700e10f400067
:102cd00003003200afa397008703e800a7a79f0077
:102ce0000804e8008a0f5400f5ff3a000085eb0065
:102cf0000a003700efa097003100fb00e1a79f001a
:102d0000afa8970040070700e10f40000300320022
:102d10002fa497000804e800a8a79f00ffa597002c
:102d20000b00e900f0a79f00e10f4000f1ff3a001f
:102d30000004eb000900e0000a003a00f106370049
:102d4000afa89700000220002f070700e10f400006
:102d5000030032002fa197000201e800a2a79f0004
:102d60000804e8008a0f5400f5ff3a00e506370032
:102d7000cfa9970043007800c3af9f00cf80de004b
:102d800001017800820178000203be000002be004b
:102d9000e0a79f00f1a79f0082af9f0093af9f0025
:102da0004822de00482cdd0004027400e4679f0026
:102db0000d48a3000c0032000404e0000a003200b9
:102dc000e14f42000800320079fa2f0009804700e5
:102dd000044878004fcd97001a4098002b0020003f
:102de000fba79f0003003700f0679f001000200042
:102df000f0a79f0071fa2f0081804700e1a79f0094
:102e00009dff370062fa2f000f014100e2a79f00eb
:102e100013002000f3a79f0097ff37000d0cb300ad
:102e20000070200000826600ab0432000dc8a300d1
:102e30000200320064002000b4a79f000d48a300e8
:102e4000090032004fa897004005be004004be00b4
:102e5000c0af9f00e89f9f00f99f9f008aa79f0037
:102e60009ba79f00080037004fa997004200be00b3
:102e7000c2af9f00ac090700e09f9f00f19f9f0039
:102e800082a79f0093a79f006022b8006033b8001c
:102e90006f989700ff9897000fa197009fa1970048
:102ea000f30807000000e0000a003d006f9a970059
:102eb000ff9a97000fa397009fa3970007f0a20027
:102ec000e49f9f00f59f9f0086a79f0097a79f0004
:102ed0003d00b3000000eb00d0979f006022b800d7
:102ee0006033b8006f989700ff9897000fa1970084
:102ef0009fa19700420907000000e0003400320063
:102f00006f989700ff9897000fa197009fa19700d7
:102f1000af0a0700a5fa2f0005814700320a070013
:102f20005f9097000000e9006300b900a200200054
:102f3000110009000200d8008000fd00d1979f0019
:102f40000100e00002003d000100e900d0979f0071
:102f50005f9497000840ea00e2fd07006f9a97002f
:102f6000ff9a97000fa397009fa39700210a0700dd
:102f7000a09f9f00b19f9f00c29f9f00d39f9f0073
:102f80006022b8000600200007ff2300b8080700f1
:102f90000000e00002003d000800e9000b003700df
:102fa0006022b80006002000470224002f989700f6
:102fb000bf9897004f999700df999700b1080700d5
:102fc0000000e000020035000800e800d0979f00f4
:102fd0005f939700d6a79f000600e00003003c0027
:102fe00010c0b300e0679f0002003700afcb97002e
:102ff000e7679f000d0678000c10b20008003a0049
:103000000d98a3008f0232005fa49700e40f4400e4
:1030100003003500bfa49700890f54000602350055
:103020003fa597000a00e000040032000d98a300bd
:10303000020032000a05e900baa79f00bfa5970069
:1030400020c1b300f28f550001003e006fc0970011
:10305000e0679f006022b8006033b8006f98970067
:10306000ff9897000fa197009fa19700e408070021
:103070000000e000710032006f659700afc8970054
:103080000ac0500097fd07000002be000203be0008
:103090006f989700ff9897000fa197009fa1970046
:1030a0007d080700e09f9f00f19f9f0082a79f007f
:1030b00093a79f006c0907000004be00c709070022
:1030c000e00f5400e08f5c0004003d006022b80077
:1030d00006002000071f2400e80707000002be00ca
:1030e0000203be006f989700ff9897000fa197000a
:1030f0009fa19700340a07006022b8000600200054
:1031000007fe23005f0807000000e0000c00350008
:103110006022b8000600200007fe23006f98970089
:10312000ff9897000fa197009fa19700d307070072
:10313000e09f9f00f19f9f0082a79f0093a79f00a1
:103140006f989700ff9897000fa197009fa1970095
:10315000450907000002be006033b8000a00fb000a
:10316000cf80de00430cdd00cd04de008904740056
:103170004304dd0068004400e0804c00ca90240055
:103180000a0040005001be004000be000020e100e7
:1031900001a8e10002b0e10003b8e100100039002d
:1031a0000400200005002a009699290097fb2300bf
:1031b0006f989700ff9897000fa197009fa1970025
:1031c0008c090700e09f9f00f19f9f0082a79f004e
:1031d00093a79f005fa197000200e8001600370048
:1031e000080045005001be004000be000020e10084
:1031f00001a8e10002b0e10003b8e1000f003100d6
:103200006022b80006002000470224006f98970053
:10321000ff9897000fa197009fa1970075090700dd
:10322000e09f9f00f19f9f0082a79f0093a79f00b0
:10323000dfa197000300e900d0979f004968de00f6
:103240006100600080cf9f000004e0004000320079
:1032500000802000008666003d003a00bfa2970073
:10326000f48f52000200340046012000b6a79f00f0
:103270006f989700ff9897000fa197009fa1970064
:10328000f90807000004be000c0578008c057800e2
:103290000b003700bfa397008703e900b7a79f0083
:1032a000a4002000050020006033b8000800be0024
:1032b0000a01be009e0a07000205be000004be000f
:1032c000e00f5400e08f5c00e00f5d00e08f5d00d8
:1032d0000b003200a4002000050020006033b8007d
:1032e0000800be000a01be00980a0700e00f500067
:1032f000e08f5800e00f5900e08f5900e5ff3200e1
:10330000ef6097000100fb003fa49700800f54007e
:103310000f003d0008c05000f2fc07000002be0094
:103320000203be006f989700ff9897000fa19700c7
:103330009fa19700d8070700e09f9f00f19f9f0083
:1033400082a79f0093a79f00efc49700e9679f00a3
:103350006f959700bfa597000b00550065065000bc
:103360000b00e00002003a000db8a300010032009b
:103370006606500063806600010032000c06e9001a
:103380000d28a30026003200e18066000d18a3007e
:103390000c003200d00220000100e00001003a00e1
:1033a0000080e900afa8970097050700e10f4000f3
:1033b000180032002fa097000000e800a0a79f008f
:1033c000140037000100e00012003200afa897009f
:1033d000000220008c050700e10f40000d003200c4
:1033e000afa097008100e800a1a79f000900370067
:1033f000afa897000003200083050700e10f4000fd
:10340000030032002fa197000201e800a2a79f004d
:103410000c06e9000c00e000f5ff3c002e00370030
:103420000d38a3000a0032000b003700afa8970048
:103430000002200074050700e10f40000300320085
:10344000afa197008301e800a3a79f000c06e90045
:103450000c00e000f5ff3c00e18066000d18a300c1
:1034600013003200d00220000100e00001003a0009
:103470000080e900afa8970063050700e10f400056
:10348000150032002fa297000402e800a4a79f00b5
:1034900011003700e8a79f00f9a79f008aaf9f009f
:1034a0009baf9f008042eb00e5679f0090003700d4
:1034b0000100e00008003200afa8970000022000e1
:1034c00051050700e10f4000030032002fa39700d1
:1034d0000603e800a6a79f006f989700ff98970043
:1034e0000fa197009fa197005f0807000004be008e
:1034f0006055b8006f6097000000fb00cf80de00d1
:10350000c30bdd00cd00de00818073004300dd00d1
:10351000ce9024000e0040003002be002003be000a
:103520000800be000a01be00010a07000003b00047
:10353000afa8970034050700e10f400003003200f8
:103540002fa097000000e800a0a79f006f609700e1
:103550000000fb00cf80de004309dd00cd00de006f
:10356000810071004300dd00000047003002be0012
:103570002003be000800be000a01be00f3090700d8
:103580000205be000004be00e0a79f00f1a79f0057
:1035900082af9f0093af9f00bfa297000500e0009d
:1035a00002003a000db8a30051003200afa8970006
:1035b000e002200014050700e10f40000300320084
:1035c0002fa397000603e800a6a79f00ef639700cc
:1035d0000700fb00bfa0970000805000809f9f0065
:1035e0002c0037000fc997000204e00005003200ec
:1035f000e00f5400e08f5c00e00f5d00e08f5d00a5
:10360000a4ff32000000fb00cf80de00c309dd0014
:10361000cd00de00818071004300dd00ce902400eb
:103620000e0040003002be002003be000800be00b5
:103630000a01be00be0907000003b000afa8970052
:10364000f1040700e10f4000030032002fa29700b1
:103650000402e800a4a79f006f6097000000fb0031
:10366000cf80de00c30add00cd00de008180720065
:103670004300dd000e0040003002be002003be000b
:103680000800be000a01be00b00907000205be0026
:103690000004be006f6397000640e900e0679f00ea
:1036a000e14f4000cfff3a00e8a79f00f9a79f0035
:1036b0008aaf9f009baf9f000004eb00090037001a
:1036c000afa8970000032000cf040700e10f4000df
:1036d00003003200afa397008703e800a7a79f006d
:1036e0000804e8008f9c9700890f5400f4ff3a000b
:1036f0000d58a30009003200afa897005004200025
:10370000c1040700e10f40000c0032002fa5970014
:103710000a05e800aaa79f0008003700afa8970095
:1037200050062000b8040700e10f400003003200fb
:10373000afa597008b05e800aba79f005f909700af
:103740000000e0000b003d000000ea00d0979f0061
:10375000afa89700d0022000ab040700e10f4000a3
:103760000c0032002fa097000000e800a0a79f00e7
:1037700008003700afa89700b0022000a20407009d
:10378000e10f400003003200afa097008100e80085
:10379000a1a79f005f909700a800200011000900da
:1037a0000800d8000003b000afa8970096040700f7
:1037b000e10f4000030032002fa197000201e80052
:1037c000a2a79f00df909700110009008800d80091
:1037d0008000fd000003b000afa897008a04070036
:1037e000e10f400003003200afa197008301e80021
:1037f000a3a79f000d38a300420432000c00e00094
:10380000400434000004eb00afa897000002200041
:103810007d040700e10f4000030032002fa2970053
:103820000402e800a4a79f000804e8008c0f5400dd
:1038300034043200f4ff3700dfa297000500e000f7
:1038400004003d003fa39700050053000000e9007d
:10385000b0a79f006f989700ff9897000fa197005f
:103860009fa197004f0707000205be000004be009d
:103870000c427800c59024000f0037000400fb00c4
:10388000cf80de00c30bdd00cd00de008180730041
:103890004300dd00008042005001be004000be0039
:1038a0000040e10001c8e10002d0e10003d8e100de
:1038b000030039000442e800f44f5200efff3a00e1
:1038c000e4679f000400fb00bfa097000087500042
:1038d000f80f57000d003c000e4078001afb07005f
:1038e0000002be000203be006f989700ff98970089
:1038f0000fa197009fa19700e0050700e09f9f00a0
:10390000f19f9f0082a79f0093a79f000e40780021
:1039100074fb0700d0af9f00e1af9f00f2af9f00a4
:1039200083b79f00e00f5400e08f5c00e00f5d0064
:10393000e08f5d00040035000800be000a01be00f3
:103940006f0707001300370010002000010020005f
:103950006011b80008006000898060000a01610001
:103960008b8161008b03d1000a83d3008982d3004d
:103970000882d3000000720081807200020173008f
:10398000838173005e0707000002be000203be00d1
:10399000ba0507000002be000203be006f98970040
:1039a000ff9897000fa197009fa1970006080700b6
:1039b0000002be000203be005fa89700efa89700b8
:1039c0007fa997008fb197008a070700f5060700c7
:1039d0000205be000004be000006eb000800370030
:1039e000a4002000050020006033b8000800be00dd
:1039f0000a01be00ce0807000205be000004be009a
:103a00000c015700b2a79f008e0f56001d00320018
:103a10000c06e800a4002000050020006033b80078
:103a20000800be000a01be00c8080700e00f5000f1
:103a3000e08f5800e00f5900e08f5900e8ff320096
:103a400010003700bfa19700f88f51000d003c0017
:103a500003407800bcfa07000002be000203be006b
:103a60006f989700ff9897000fa197009fa197006c
:103a700082050700e09f9f00f19f9f0082a79f00a3
:103a800093a79f005fa29700e90f520016003c0029
:103a90006022b8006033b8006f989700ff989700d5
:103aa0000fa197009fa19700550607000000e000b6
:103ab000370032006f989700ff9897000fa197008a
:103ac0009fa19700b7060700e00f5000e08f580055
:103ad000e00f5900e08f59002d003a00dfa2970057
:103ae000e18f52002a0034000400200005002e005f
:103af000b6e02200170124002f989700bf98970086
:103b00004f999700df999700d90507000000e00062
:103b100003003d005fa397007300530002003700cd
:103b2000dfa3970072805300d0979f002f68970003
:103b3000ecfa0700a09f9f00b19f9f00c29f9f00cb
:103b4000d39f9f000002be000203be006f98970043
:103b5000ff9897000fa197009fa19700ce0507003f
:103b600090060700e0a79f00f1a79f0082af9f008b
:103b700093af9f006044b8006055b800d8b79f006d
:103b8000e9b79f00fab79f008bbf9f003400370052
:103b90006f989700ff9897000fa197009fa197003b
:103ba00080060700e0a79f00f1a79f0082af9f005b
:103bb00093af9f00e00f5000e08f5800e00f5900d6
:103bc000e08f590002003500cd06070017003700ce
:103bd00010002000010020006011b8006fa29700c3
:103be000ffa297000fab97009fab97000400600007
:103bf0008580600006016100878161008703d10034
:103c00000683d3008582d3000482d30000007200b3
:103c1000818072000201730083817300b80607007f
:103c20000002be000203be00140507000002be0031
:103c30000203be006f989700ff9897000fa19700ae
:103c40009fa1970060070700d0b79f00e1b79f00d2
:103c5000f2b79f0083bf9f000000eb00d0979f004a
:103c600014c0b300c5902400130037000400fb000b
:103c7000cf80de00c30cdd00cd00de00818074004b
:103c80004300dd00008342003600be002601be0076
:103c90006fa49700ffa497000fad97009fad97000a
:103ca0000040e10001c8e10002d0e10003d8e100da
:103cb000030039000442e800f44f5200ebff3a00e1
:103cc000e4679f000400fb00bfa49700008044004d
:103cd000df909700010040006f95970000065500a7
:103ce0004b68de0061006000004778000004e000df
:103cf00002003a000900e000010032000c06e90071
:103d000063806600010032000c06e9000d28a30064
:103d100026003200e18066000d18a3000c0032007e
:103d2000d00220000100e00001003a000080e9001c
:103d3000afa8970034030700e10f400018003200dd
:103d4000afa597008b05e800aba79f0014003700d4
:103d50000100e00012003200afa89700000220002e
:103d600029030700e10f40000d0032002fa097004b
:103d70000000e800a0a79f0009003700afa8970047
:103d80000003200020030700e10f40000300320081
:103d9000afa097008100e800a1a79f000c06e900f2
:103da0000c00e000f5ff3c00430037000d38a30095
:103db0000a0032000b003700afa897000002200075
:103dc00011030700e10f4000030032002fa197000c
:103dd0000201e800a2a79f000c06e9000c00e00029
:103de000f5ff3c00e18066000d18a3000c003200d6
:103df000d00220000100e00001003a000080e9004c
:103e0000afa8970000030700e10f40002a0032002e
:103e1000afa197008301e800a3a79f002600370009
:103e20000100e00024003200afa89700000220004b
:103e3000f5020700e10f40001f0032002fa297009b
:103e40000402e800a4a79f001b0037000000fb004d
:103e5000cf80de00c30add00cd00de00818072006d
:103e60004300dd00c2902400020040003002be008a
:103e70002003be006fa09700ffa097000fa9970036
:103e80009fa99700aa070700a400200005002000b2
:103e90006033b800ad0707000003b000afa897007b
:103ea000d9020700e10f4000030032002fa3970062
:103eb0000603e800a6a79f00ef6397000740e9000c
:103ec000e0679f00e14f4000e0ff3a000b00370041
:103ed000afa8970000032000cb020700e10f4000cd
:103ee000030032002fa497000804e800a8a79f0051
:103ef0005f9097000000e900d0979f005f909700c7
:103f00000000e000f2ff3c00bfa49700f28f5400d5
:103f10000300340020c1b300e0679f0002003700b7
:103f20006fc59700ea679f00ef6097000100fb00f4
:103f3000bfa5970000805500f0979f000104e000a6
:103f400002003a000e04e00008003200afa897001b
:103f5000e0022000ac020700e10f40000300320045
:103f60002fa097000000e800a0a79f006f609700b7
:103f7000dcf907000002be000203be005fb097003c
:103f8000efb097007fb197008fb99700190607002f
:103f900084050700260037000000fb00cf80de000c
:103fa0004309dd00cd00de00810071004300dd002b
:103fb000ce9024000e0040003002be002003be0060
:103fc0000800be000a01be0059070700a400200037
:103fd000050020006033b8005c0707000003b00054
:103fe000afa8970088020700e10f400003003200ed
:103ff000afa197008301e800a3a79f006f6097001f
:104000000000fb00cf80de00430add00cd00de00b3
:10401000810072004300dd000e0040003002be004f
:104020002003be000800be000a01be0047070700cb
:104030000205be000004be00ef6297000540e900e3
:10404000e0679f00e14f4000d3ff3a00e8a79f00e0
:10405000f9a79f008aaf9f009baf9f000004eb0071
:1040600009003700afa89700000320006602070090
:10407000e10f4000030032002fa397000603e80081
:10408000a6a79f000804e800ff939700870f54003d
:10409000f4ff3a000d38a3001a0232000c00e000d1
:1040a000180234000004eb00afa8970000022000c3
:1040b00055020700e10f400003003200afa4970053
:1040c0008904e800a9a79f000804e8008c0f5400a9
:1040d0000c023200f4ff37000d007800000cb20033
:1040e0003e003a000d00e00009003d004faa970095
:1040f0004401be004400be00c4af9f00e0a79f0083
:10410000f1a79f0082af9f0093af9f001a00370076
:104110000d48a3000d003200cfaa97004500be0055
:10412000c5af9f004f89de00cf91de000002be00c8
:104130000203780082037800e4a79f00f5a79f00a0
:1041400086af9f0097af9f000b0037004fab9700e3
:1041500046007800c6af9f0000047800cfc4de00a0
:10416000090578008a057800e8a79f00f9a79f0055
:104170008aaf9f009baf9f006fa09700ffa09700a2
:104180000fa997009fa99700e00f5000e08f5800fb
:10419000e00f5900e08f59002e003d003d00b300b4
:1041a0006000b8006011b8006fa29700ffa29700ee
:1041b0000fab97009fab9700040250008582580018
:1041c0000603590087835900e4a79f00f5a79f00c5
:1041d00086af9f0097af9f001e0037000d00e000e4
:1041e00005003d004fa897004005be004004be00fa
:1041f000c0af9f00130037000d48a3000a00320033
:10420000cfaa97004500be00c5af9f00040178000b
:1042100084017800e0a79f00f1a79f0082af9f0074
:1042200093af9f000b0037004fab9700460078001c
:10423000c6af9f0000047800090020000a0020009b
:104240000b002000e8a79f00f9a79f008aaf9f00fe
:104250009baf9f00bfa497000900e0000b003a004d
:104260006fa09700ffa097000fa997009fa9970044
:10427000e00f5000e08f5800e00f5900e08f590028
:1042800002003a0011002000b1a79f000d0678003f
:104290000c0cb20000042000800f56003b003200de
:1042a00003003c000c00e000070032004f00370024
:1042b00000082000800f56001c003200000c200077
:1042c000800f560049003a0014c0b300c590240086
:1042d000130037000400fb00cf80de004309dd003f
:1042e000cd00de00810071004300dd00008042004f
:1042f0005001be004000be006fa49700ffa49700cd
:104300000fad97009fad97000040e10001c8e100ac
:1043100002d0e10003d8e100330039000442e80094
:10432000f44f5200ebff3a002f003700000120004d
:10433000010020006011b80014c0b3006fa4970002
:10434000ffa497000fad97009fad97000040e100dc
:1043500001c8e10002d0e10003d8e10022003900e9
:10436000490020000000d0008180d2000281d200ec
:104370008381d2008904e900faff3a000442e80090
:10438000f04f5200edff3a00170037008000200088
:10439000010020006011b80014c0b3006fa49700a2
:1043a000ffa497000fad97009fad97000040e1007c
:1043b00001c8e10002d0e10003d8e1000a003900a1
:1043c000390020000000d0008180d2000281d2009c
:1043d0008381d2008904e900faff3a000442e80030
:1043e000f54f5200edff3a00e4679f006f659700bc
:1043f0000a00fb00bfa597008b0f500002003d0094
:10440000eb679f0004003700bfa09700808f50002b
:1044100001003d00b0a79f006f9197000200e000ef
:104420000400320063806600020032000201e900ed
:10443000e2979f000de8a3000b003200ef91970078
:104440003fa29700848f510003003c008002eb00e4
:10445000e5979f00040037006f939700bfa3970074
:1044600007035300e6979f00408c20000080660001
:1044700001842000810f500006003a006f949700dd
:104480000800e000110032000804e900e8979f00ee
:104490000e003700008c200000806600018820009c
:1044a000810f500009003a00ef949700e28f54000a
:1044b00003003c000005eb00ea979f000300370073
:1044c000ef9597008b85e900eb979f00ef609700d1
:1044d0000100fb000007eb006f919700800f510077
:1044e00001003400000751000d28a3004b003200ea
:1044f000e18066000d18a3000c003200d0022000fd
:104500000100e00001003a000080e900afa8970038
:104510003d010700e10f400027003200afa19700e6
:104520008301e800a3a79f00230037000100e000fb
:1045300009003200afa897000002200032010700f6
:10454000e10f40001c0032002fa297000402e80097
:10455000a4a79f0018003700008c20000080660090
:1045600001882000810f500013003a00afa8970087
:104570000003200024010700e10f40000300320087
:10458000afa297008502e800a5a79f008005200044
:104590000d58a30001003a0080072000afa8970043
:1045a00019010700e10f4000030032002fa397001c
:1045b0000603e800a6a79f000e00e0000d003200f1
:1045c0000004eb00afa89700000320000e010700d5
:1045d000e10f400003003200afa397008703e8001b
:1045e000a7a79f000804e8008e0f5400f5ff3a00cb
:1045f0000007eb003fa49700c340dd00409024007b
:10460000808540004240dd00640550006340b900f1
:10461000909f9f0063045000a20037000e00e0004e
:104620000f003200688066000d003a000004780038
:10463000afa8970000022000f3000700e10f400040
:1046400003003200afa497008904e800a9a79f00e7
:104650000804e8008e0f5400f5ff3a000007eb0055
:10466000e18066000d18a3000c003200d00220008b
:104670000100e00001003a000080e900afa89700c7
:10468000e1000700e10f40000e0032002fa5970067
:104690000a05e800aaa79f000a0037000100e00011
:1046a00008003200afa8970000022000d6000700e3
:1046b000e10f400003003200afa597008b05e80032
:1046c000aba79f00008c2000808066000084200043
:1046d000808f500009003a00afa897000003200027
:1046e000c9000700e10f4000c2ff32002fa0970071
:1046f0000000e800a0a79f00beff37000088200050
:10470000808f5000bbff3a00afa897000003200045
:10471000bd000700e10f400003003200afa097008a
:104720008100e800a1a79f00800520000d58a3008c
:1047300001003a0080072000afa89700b2000700f0
:10474000e10f4000abff32002fa197000201e8000b
:10475000a2a79f00a7ff370000042000800f56008b
:104760003100320003003c000c00e0000700320082
:104770004000370000082000800f56001200320071
:10478000000c2000800f56003a003a003b02be00a9
:104790002b03be006fa09700ffa097000fa9970002
:1047a0009fa9970062050700a400200005002000d3
:1047b0006033b8006505070004c3b300044240003d
:1047c000e4679f002b003700b9fd27000d58a300b8
:1047d00001003a00c9fe2700140020000500200057
:1047e0006033b8000a0078000000e90005003300db
:1047f0000402d0008582d2000683d2008783d200d3
:10480000f9ff37006fa09700ffa097000fa997004e
:104810009fa99700460507006f006000e9447800f3
:10482000e9679f00130037001400200005002000f6
:104830006033b800880078008100e900050033008b
:104840000402d0008582d2000683d2008783d20082
:10485000f9ff37006fa09700ffa097000fa99700fe
:104860009fa9970032050700674060000043b00031
:10487000e0679f006f6197000200fb00afa8970000
:1048800061000700e10f400003003200afa1970074
:104890008301e800a3a79f00e88555006405550043
:1048a00063045400d0ff2f003fa2970000a0b9007e
:1048b0009f9a97000080420063005000800f5400d0
:1048c000a5ff3a000d38a3000e0032000e00e000f4
:1048d0000c0034000004eb00afa897000002200099
:1048e00049000700e10f4000030032002fa39700aa
:1048f0000603e800a6a79f000804e8008e0f5400f6
:10490000f5ff3a00bfab9700b7407800b7af9f0004
:10491000e1679f000104e000f1f73a002fa0970043
:104920004f0778004f06be004f05be004f04be0083
:10493000ef04b10000000600881f78000004780032
:10494000b00090000148a30007003a000108a3004e
:10495000050032000198a30008003200100090000a
:104960000000e00005003200380090000040a00088
:10497000300498008080eb00200037000190a100f7
:1049800031049800180090000000e0000600340098
:104990000000e9001004980018007800b080fb00c7
:1049a000000c780006003700380090000068a30073
:1049b000edff3a00080078008500070080007800cd
:1049c000380090000078a3000c003a00fa8f5000e5
:1049d00008003a00280090000000e000e2ff3200ea
:1049e000180090000000e80010049800180ce9007e
:1049f000ddff3700ed8f5000e2ff3200010078004c
:104a00004f04780000000600889fbe000001780077
:104a100001047800b10090000118a30040003200aa
:104a20000198a30003003a00180090000000e00085
:104a30003b003a000190a000310498008204780005
:104a4000f90fb200180090000000e00002003a00e8
:104a500028009000000c7800ea8f540006003a000d
:104a6000380090000078a30003003a008800780026
:104a7000d0002000e4ff0700180290006121b90077
:104a800058009000e8009000800f5100818f59007d
:104a90000b0032000400e8001004980018007800b1
:104aa00009587800000c780011c0b300e0da240047
:104ab00001487800ea8f54000600320019003700e0
:104ac00088007800094078008f0007008004780093
:104ad00014003700380090000088a3001100320055
:104ae00018019000a8009000480090002c010700d9
:104af00098009000810f50000400320038009000b0
:104b00000003b300300498008084eb000000eb0049
:104b10001004980028009000000c78000100370075
:104b20008084eb00090078004f04be0000000600fe
:104b3000800078003004e000feff3a0001005000e1
:104b40000000e900cf80de000000060000037800ce
:104b500001027800e10f40001a003200310090009d
:104b60000008a300170032000098a30015003a00c7
:104b7000a10390000700e0001200320091029000b3
:104b80006129b90051009000e1009000800f5100b0
:104b9000818f59000b00320014007800870f5000fd
:104ba00002003a00000ae800020037000500e800b1
:104bb000100298001400e900000a78000648780006
:104bc000010037000083eb000600780000000600bb
:104bd0000200fa00889fbe008a1f78000004780057
:104be0000000eb0010049800380090008080eb007b
:104bf0000008a3003f003200e0da24001004e000c7
:104c00001000320029c724008ac724001a00780047
:104c10006c0545002010b20021102000810f5000cb
:104c200002003a00090078007a000700ec84440092
:104c300060c92400808f5400f4ff3a00e0da2400b9
:104c40000048eb0048009000580190000200e0008e
:104c50000d003a001204980012002000e88057006e
:104c600096000700e10f500003003a000ff897008c
:104c70008080fb001f003700380090000040a0003b
:104c80003004980012003700a80090008b00070045
:104c9000100498000000e00003003200e10f400023
:104ca0000d003a0003003700380090000040a000db
:104cb00002003700380090000003b3003004980071
:104cc000a8009000010c78000000eb001004980090
:104cd0008080eb0007003700a8009000010c7800ee
:104ce0000000e9001004980001007800b080fb008b
:104cf000000c7800010078004f0578004f04be00da
:104d00000080fa00000006000200fa00889fbe0042
:104d1000a0ff9f0001047800b1009000810478009a
:104d20000904b200020032000000fb003600370028
:104d30000118a30005003a000103b30031049800f4
:104d4000190498000080eb002f00370058009000f5
:104d50000000e00006003a00480090001200200029
:104d6000e68057008e0007001904980024003700e1
:104d7000280090000000e00008003a00a0da2400bb
:104d800020049800000c78002000200050049800b7
:104d9000100498000130a000310498001801900020
:104da000a8009000480090007d00070028009000b7
:104db000000c78000080eb001004980018007800c8
:104dc000aff8970001587800000c78002ff8970092
:104dd000ea4f50000a003a00380090000088a30013
:104de0000700320018019000a800900048009000d1
:104df0006b00070019049800a8009000010c7800cf
:104e0000aff897000100fb004f04be000080fa00dd
:104e100000000600881f7800000478003000900031
:104e20000008a30007003200800078000120b200d3
:104e300004003a0011049800a8009000010c7800ca
:104e4000170037000018a300190032000098a300d3
:104e500017003200a80090000100e00014003200aa
:104e6000180190000200e00011003200480090009c
:104e70004b00070098009000810f500003003200a3
:104e8000380090000003b300300498000000eb00ed
:104e90001004980028009000000c78003800900062
:104ea0000058a300020032000080eb000100370030
:104eb0000000eb004f047800000006000a00fa0032
:104ec000881f7800800178000000e00029003a0087
:104ed000706e8200e10f5000080032008023200035
:104ee0000000e000050032000423200025232000fc
:104ef000672320008001780004003700042220008e
:104f000025222000672220008322200014409000e8
:104f10000004e000040035008009eb00144090001c
:104f20000074a000104298000002eb000c00370053
:104f3000130a2000154478006140640002003a0022
:104f40008301e900fbff3a000402e8009541780084
:104f500061c06100050032001700780080587800b9
:104f600004035100820f5200f1ff3a000600510085
:104f70000800370020002000a0bf9f00b3bf9f00a3
:104f8000c1bf9f00d2bf9f006c80570000c0da00f5
:104f90005fb897004f0478000080fa000000060018
:104fa0000a00fa0080017800e20f500028003e005d
:104fb000706e8200e10f5000080032008023200054
:104fc0000000e0000500320004232000252320001b
:104fd00046232000800178000400370004222000ce
:104fe0002522200046222000832220001440900029
:104ff0000004e000040035008009eb00144090003c
:105000000074a00010429800154090000028a300f2
:1050100003003a00154090000024a0009042980040
:105020008001eb0007003700154090000008a30046
:10503000fdff320063c078000000fb00000b780029
:105040008301e800828f5100f7ff3a000800370023
:1050500030002000b0bf9f00c3bf9f00d1bf9f00a2
:10506000e2bf9f006a80570000c0da006fb9970066
:10507000020078000080fa00000006002800fa0014
:10508000889fbe008a9fbe008c9fbe0007067800e6
:10509000878669000c003b000304780087047800d1
:1050a00008f0a10009f0a100840f5000858f58007e
:1050b000860f5900890f5c00030033000cf0a2003a
:1050c00001003a000cf0a100fe0007006400e100be
:1050d0005f003200780147006408e100610032009f
:1050e0006c014700748557003200be001201be00fb
:1050f0003a04be001a05be001e039000be0a9000ce
:105100008503530006003d000004fd008104fd00fe
:105110000205fd008305fd008703ea000503780012
:105120000df8a3000400320060041400e0841c00a9
:1051300060051d00e0851d006022b8007d03200091
:105140000d38e1008006eb000b0039004433dd0030
:10515000f300b200830173003900370084827200cb
:105160000d027800e10664008b85d1000a85d3002a
:105170008984d3000884d3008703e900f7ff3b004c
:1051800008004000898048000a0149008b814900dd
:1051900004003b0060001000e0801800600119006e
:1051a000e08119000358a300090032008d827200cb
:1051b00084827200610260008301d1000281d30009
:1051c0008180d3000080d3000603e8001b00370075
:1051d0000348a30017003a000600e000170034005f
:1051e0000603e9000d00a30000004800818048008c
:1051f00002014900838149000348a3000f003a00df
:105200000600e000090034000603e9000000400049
:1052100081804800020149008381490001003a0071
:105220000003eb000348a300f5ff32006022b80042
:1052300002003700848272006182660075000700f8
:1052400003f0a1000cf0a70003f0a000b1003700ac
:10525000640147006408e10002003a000df8a30071
:10526000a9003a003200be001201be00a9003700ba
:105270008f1fd100230307008f87e9000000e000a3
:1052800000000600809feb001e0307008f87e900e7
:105290000000e000000006002800fa00889fbe0021
:1052a0008a9fbe008c9fbe0003866b0085000700ae
:1052b0006400e100440032006408e1004a0032006a
:1052c0006100e100460032006108e100490032005f
:1052d000ec0647006000b8003d02be003d03be0082
:1052e000f48657006011b8003d04be003d05be00c5
:1052f0007d0320000b0037000000a0008d06e900b0
:10530000130032000402420085824a0006034b006b
:1053100087834b0000004000818048000201490063
:10532000838149000802520089825a000a035b0007
:105330008b835b00f0ff3b000802420089824a0039
:105340000a034b008b834b008d06e900edff3a000a
:105350008482720086827200f707b2008782720030
:1053600001003200150020001e0490003e0b90004a
:1053700006035400e63fb0000368a30007003200b4
:105380000000a7000500a0008301d1000281d30026
:105390008180d3000080d3000603e8008301d100a0
:1053a0000281d3008180d3000080d3000002eb0093
:1053b0000482d2001700070003f0a1000cf0a70040
:1053c00003f0a00053003700640247006408e100c6
:1053d0004d0032003400be003401be00f6ff37003d
:1053e0006108e100480032006011b8006000b800b8
:1053f000f1ff370003ff270002002000fbff37000a
:10540000801feb00bf0207008f87e9000000e0006b
:105410000000060018002000570020000804530078
:105420000d003d000600200097fc2f000740e10022
:105430001e00340084827200610260008301d1008a
:105440000281d3008180d3000080d3000804e800eb
:10545000f8ff3a0047002000610460000504740072
:10546000040464000d00320061004000e080480048
:1054700060014900e081490003b8a500070032003f
:105480000603e8006538e10004003a008301d1001a
:105490000281d3008180d3000080d300f87f2000f8
:1054a0000830e10003003500080378006000b80010
:1054b0006011b8004433dd00f300b20083017300d3
:1054c00000000600680447000294be000094be007d
:1054d000fc0447008694be008494be000900780056
:1054e000d102070008007800cf0207009900780079
:1054f000814f70000b003b000800be00aa020700ad
:105500004f00b10003003700f3ff2700f2ff2f0028
:105510006110b9004f06be004f05be004f04be002b
:105520000080fa00000006008103780049ee0700c1
:105530000001be006000b8000478a30013003a0028
:105540006220e10015003e000d0039008301d1000a
:105550000281d3008180d3008301d1000281d30076
:105560008180d3008301d1000281d3008180d300e8
:105570000538b000c42add00f300b2008381720058
:1055800007f0a70003f0a00000000600f3ff2700cb
:10559000f2ff2f006110b900fbff370003ff270067
:1055a000f7ff37001400fa00889fbe008a9fbe00f4
:1055b0008c9fbe000004be000205be0068004700cc
:1055c0000a90be000890be00970207000070a70076
:1055d0000bf0a1000bf8a30020003a009e099000f8
:1055e0000e099000fe0090006e0090009e02900058
:1055f0003443200084825200c6ff32000a003c007f
:10560000b4fc2f000428e100140034008301d10011
:105610000281d3008180d3000080d3008502e8009e
:10562000faff3a00bbff3700b40020000428e10075
:1056300007003c0000004000818048000201490052
:10564000838149008502e900faff3a00b1ff370083
:105650000300280002002000010037006011b8009c
:105660006000b800abff37001400fa00889fbe004e
:105670008a9fbe008c9fbe000004be000205be00d3
:10568000680047000a90be000890be00660207004e
:105690000070a7000bf0a1000bf8a30016003a0061
:1056a0009e0290003043200080825200b0fe2f0006
:1056b0000028e1000d003c00b0fc2f000028e100b4
:1056c0000d0034001e0990008e0890007e009000ae
:1056d0000501b0000201d1008180d3000080d30019
:1056e0008502e800fbff3a008aff3700010028002e
:1056f0000000200087ff37006000b80085ff3700fa
:10570000889fbe00830478000300e0002c00350071
:1057100003003c0000827000040271002600320089
:1057200036432000c50020008383cf000a003900e3
:105730000541b1008283cf00070039000541b10067
:105740008183cf00040039000541b1008083cf0080
:10575000010039000541b10085c353006022b80043
:10576000120032000a003b00848272006102600075
:105770008301d1000281d3008180d3000080d30057
:105780000603e8008743e800f7ff3a000700370008
:1057900000004000818048000201490083814900e7
:1057a0000603e9008743e900f9ff3a0019ff070003
:1057b00009f0a70003f0a0004f04be00000006009f
:1057c00060001000e080180060011900e0811900fd
:1057d000d3ff3b00033e2c00f7ff37004f89de006c
:1057e00082017800c6ff370071ef070005097800d5
:1057f000000006002800fa00889fbe008a9fbe00b5
:105800008c9fbe0003866b002eff07000028a300bc
:1058100064003a000128a30067003a000008a300d2
:1058200062003a000108a30065003a001e009000e3
:10583000be08900081064000ed3fb100f4805700a3
:10584000ee019000111ab8008e099000311bb800cb
:105850009e099000311cb800511db800f485570016
:1058600046000700fe0190003a0007008b85e80023
:105870003e0007008e09900040000700ee019000f6
:10588000340007008b85e800380007008e0990007f
:10589000400007009e0990001b18b80089044000d2
:1058a0000a854800fe019000340007008b85e8005f
:1058b00038000700ee019000300007008e099000cc
:1058c0001b18b800890440000a8548000a98a30004
:1058d00008003a000402420085824a0006034b0099
:1058e00087834b0008044c0089844c000a054d0056
:1058f0008d06e90084827200850273004c3add0057
:10590000850272000100320015002000443ade00da
:105910001400b2004538de00cb45dd000b007000fe
:10592000c540de00cb4ddd008b8070004549de00b8
:10593000cb55dd000b017100c551de000d03780071
:10594000b4fe070003f0a1000cf0a70003f0a000d4
:10595000f0fe37001b18b80085024000068348009f
:10596000e0834b0060044c00070037001b18b800b0
:105970000603400087834800faff37001b18b80071
:105980008703400008844800e0844c0060054d0017
:10599000000006001b18b800080440008984480075
:1059a000faff37000108a300d7fe3a005800be00f6
:1059b0005801be00e3ff37000008a300d2fe3a0002
:1059c00009047800f9ff370007f0a200abfd3700ab
:1059d0001400fa00889fbe008a9fbe008c9fbe0004
:1059e0000005be000206be00680047000c90be0025
:1059f0000a90be008c0107006400e1001a0032002a
:105a000016003e006100e1001a0032006e049000b2
:105a1000fe0490000e0b90009e0b90006011b800e9
:105a20009e0590000b38b100d501200082817100e5
:105a3000610164008703d1000683d3008984d30009
:105a40000884d3008502e900f8ff3a00dbec070088
:105a50000df0a70001f0a000aefe3700f1ff270017
:105a6000f0ff2f00abfe370001f8270000002000f8
:105a7000f7ff37006000b800f5ff3700020ab900f1
:105a8000001bb9000200b800810042008100430001
:105a900000000600881f7800000478005001be0056
:105aa0004000be0004004000858048000601490017
:105ab00087814900009cbe000294be000400e10002
:105ac0000588e1000690e1000798e100020031003e
:105ad000680044001008e8004f0478000000060049
:105ae000f4874700889fbe008a9fbe008c9fbe003f
:105af0008e1f78000205be000004be00d4b79f00d0
:105b0000e5b79f00f6b79f0087bf9f000000eb003e
:105b1000c0b79f00b0b79f00a0b79f0090b79f008d
:105b200080b79f000d042000bfb097004fb09700d2
:105b3000000140000000e0000f003d004f08de00c3
:105b400000007100c0b79f004d00070001003d003c
:105b5000120020005000070001003d00120020004c
:105b60005500070061000700660007000f004000b5
:105b7000c8ff0700220037004f08de000006710052
:105b8000ccb79f003e00070001003d00120020003e
:105b90004100070001003d00120020004600070000
:105ba000520007000fb297009fb297002fb39700e3
:105bb000bfb39700590007000000520081805a00cf
:105bc00002015b0083815b0080b79f0091b79f005b
:105bd000a2b79f00b3b79f000007eb004f0007007c
:105be0000020e10001a8e10002b0e10003b8e100fb
:105bf000010031001e0020000e005600c0b79f00bb
:105c00004fb297000400e0000700350010002000ac
:105c1000010020006011b800080470008984700041
:105c20000a0571008b8571008d06e900beff3a0000
:105c30000400e00003003d00320007000f004000b8
:105c400094ff07004fa897000000e00004003a000e
:105c50000fb497009fb497002fb59700bfb597007a
:105c60000800be000a01be004f0778004f06be00c4
:105c70004f05be004f04be004f01b10000000600fa
:105c80000180400090b79f000001eb008fb09700ab
:105c90000100e000000006000200700090b79f00c5
:105ca0000180400080b79f000001eb00ffa8970033
:105cb0000100e000000006000200700080b79f00b5
:105cc000018040006faa9700cf20de000100700025
:105cd000f0af9f00040242000800be000a01be00af
:105ce0004f18de000002720000000600e4af9f00c3
:105cf0000804440089844c000a054d008b854d0042
:105d0000000006003fb29700cfb297005fb3970044
:105d1000efb3970000fe2f00000006003fb0970091
:105d2000cfb097005fb19700efb197000000060079
:105d3000881f780018002000881f780068ff07007f
:105d40008f87e9004f04780000000600801feb00f9
:105d500063ff07008f87e90000000600889fbe00f0
:105d60008a9fbe008c1f78000205be000004be00a2
:105d7000e00f5000e08f5800e00f5900e08f59000d
:105d80000c003d006000b8006011b800080450002d
:105d9000898458000a0559008b8559001c00200091
:105da0001f00070008003d00180007000006eb0078
:105db000050037000006eb001900070002003d0057
:105dc0000f0007001c0020000800be000a01be00f2
:105dd000d7ff07000203be000002be000c00e00077
:105de00001003200060007000400be000601be00ec
:105df0004f0678004f05be004f04be0000000600ad
:105e00006000b8006011b8000000370004025000c4
:105e10008582580006035900878359000000060058
:105e2000e00f5200e08f5a00e00f5b00e08f5b0054
:105e300000000600889fbe008a9fbe008c1f78006d
:105e40000205be000004be00e00f5000e08f5800c5
:105e5000e00f5900e08f59000a003d006000b800d3
:105e60006011b80008045000898458000a055900e0
:105e70008b8559001c0020001800070007003d001a
:105e8000050037000006eb001400070003003d008a
:105e90006000b8006011b800150007000800be00df
:105ea0000a01be00a9ff07000203be000002be00f7
:105eb0000c00e000030032006000b8006011b80080
:105ec0000b0007000400be000601be004f0678006c
